{"address":"0x5a5fAe7394C5a287AEcB2fe3C318D11E135391d4","bytecode":"0x60c0604052346100565761001961001461012d565b6101d2565b61002161005b565b612c9761071f8239608051818181610b3501528181610e6301528181611dd80152611e8d015260a05181610e200152612c9790f35b610061565b60405190565b600080fd5b601f801991011690565b634e487b7160e01b600052604160045260246000fd5b9061009090610066565b810190811060018060401b038211176100a857604052565b610070565b906100c06100b961005b565b9283610086565b565b600080fd5b60018060a01b031690565b6100db906100c7565b90565b6100e7906100d2565b90565b6100f3816100de565b036100fa57565b600080fd5b9050519061010c826100ea565b565b9060208282031261012857610125916000016100ff565b90565b6100c2565b61014b6133b680380380610140816100ad565b92833981019061010e565b90565b60018060401b03811161016a57610166602091610066565b0190565b610070565b9061018161017c8361014e565b6100ad565b918252565b60007f42656e746f5553442b0000000000000000000000000000000000000000000000910152565b6101b8600961016f565b906101c560208301610186565b565b6101cf6101ae565b90565b6101ec906101de6101c7565b6101e66101c7565b91610216565b565b90565b60ff1690565b90565b61020e610209610213926101ee565b6101f7565b6101f1565b90565b916102209161024a565b61022981610635565b9060001461023a575b60a052608052565b5061024560126101fa565b610232565b90610254916104b4565b565b5190565b634e487b7160e01b600052602260045260246000fd5b9060016002830492168015610290575b602083101461028b57565b61025a565b91607f1691610280565b600052602060002090565b601f602091010490565b1b90565b919060086102cf9102916102c9600019846102af565b926102af565b9181191691161790565b90565b6102f06102eb6102f5926102d9565b6101f7565b6102d9565b90565b90565b919061031161030c610319936102dc565b6102f8565b9083546102b3565b9055565b600090565b6103349161032e61031d565b916102fb565b565b5b818110610342575050565b806103506000600193610322565b01610337565b9190601f8111610366575b505050565b6103726103979361029a565b90602061037e846102a5565b8301931061039f575b610390906102a5565b0190610336565b388080610361565b915061039081929050610387565b1c90565b906103c290600019906008026103ad565b191690565b816103d1916103b1565b906002021790565b906103e381610256565b9060018060401b0382116104a357610405826103ff8554610270565b85610356565b602090601f831160011461043a579180916104299360009261042e575b50506103c7565b90555b565b90915001513880610422565b601f198316916104498561029a565b9260005b81811061048b57509160029391856001969410610471575b5050500201905561042c565b610481910151601f8416906103b1565b9055388080610465565b9193602060018192878701518155019501920161044d565b610070565b906104b2916103d9565b565b906104c36104ca9260036104a8565b60046104a8565b565b600090565b600090565b6104ea6104e56104ef926100c7565b6101f7565b6100c7565b90565b6104fb906104d6565b90565b610507906104f2565b90565b60000190565b60018060401b03811161052c57610528602091610066565b0190565b610070565b9061054361053e83610510565b6100ad565b918252565b606090565b3d60001461056a5761055e3d610531565b903d6000602084013e5b565b610572610548565b90610568565b5190565b90565b61059361058e6105989261057c565b6101f7565b6102d9565b90565b6105a4816102d9565b036105ab57565b600080fd5b905051906105bd8261059b565b565b906020828203126105d9576105d6916000016105b0565b90565b6100c2565b6105f26105ed6105f7926101f1565b6101f7565b6102d9565b90565b61060e610609610613926102d9565b6101f7565b6101f1565b90565b90565b61062d61062861063292610616565b6101f7565b6101f1565b90565b600061065381926106446104cc565b5061064d6104d1565b506104fe565b600461068a63313ce56760e01b61067b61066b61005b565b938492602084019081520161050a565b60208201810382520382610086565b602081019051915afa61069b61054d565b90806106fa575b6106b8575b506000906106b56000610619565b90565b6106d29060206106c782610578565b8183010191016105bf565b806106e66106e060ff6105de565b916102d9565b116106a757906106f76001926105fa565b90565b5061070481610578565b610717610711602061057f565b916102d9565b10156106a256fe60806040526004361015610013575b610a51565b61001e6000356101cd565b806301e1d114146101c857806306fdde03146101c357806307a2d13a146101be578063095ea7b3146101b95780630a28a477146101b457806318160ddd146101af57806323b872dd146101aa578063313ce567146101a557806338d52e0f146101a0578063395093511461019b578063402d267d146101965780634cdad506146101915780636e553f651461018c57806370a082311461018757806394bf804d1461018257806395d89b411461017d578063a457c2d714610178578063a9059cbb14610173578063b3d7f6b91461016e578063b460af9414610169578063ba08765214610164578063c63d75b61461015f578063c6e6f5921461015a578063ce96cb7714610155578063d905777e14610150578063dd62ed3e1461014b5763ef8b30f70361000e57610a1c565b6109e6565b610983565b61094e565b610919565b6108e4565b6108ae565b610878565b610808565b6107d2565b61079c565b610767565b610731565b6106fc565b6106c6565b610663565b61062e565b6105d9565b6105a4565b61054c565b6104ed565b61047d565b610448565b610412565b61034c565b6102d4565b610219565b60e01c90565b60405190565b600080fd5b600080fd5b60009103126101ee57565b6101de565b90565b6101ff906101f3565b9052565b9190610217906000602085019401906101f6565b565b34610249576102293660046101e3565b610245610234610b22565b61023c6101d3565b91829182610203565b0390f35b6101d9565b5190565b60209181520190565b60005b83811061026f575050906000910152565b80602091830151818501520161025e565b601f801991011690565b6102a96102b26020936102b7936102a08161024e565b93848093610252565b9586910161025b565b610280565b0190565b6102d1916020820191600081840391015261028a565b90565b34610304576102e43660046101e3565b6103006102ef610cf8565b6102f76101d3565b918291826102bb565b0390f35b6101d9565b610312816101f3565b0361031957565b600080fd5b9050359061032b82610309565b565b90602082820312610347576103449160000161031e565b90565b6101de565b3461037c5761037861036761036236600461032d565b610d0e565b61036f6101d3565b91829182610203565b0390f35b6101d9565b60018060a01b031690565b61039590610381565b90565b6103a18161038c565b036103a857565b600080fd5b905035906103ba82610398565b565b91906040838203126103e557806103d96103e292600086016103ad565b9360200161031e565b90565b6101de565b151590565b6103f8906103ea565b9052565b9190610410906000602085019401906103ef565b565b346104435761043f61042e6104283660046103bc565b90610d2b565b6104366101d3565b918291826103fc565b0390f35b6101d9565b346104785761047461046361045e36600461032d565b610d4d565b61046b6101d3565b91829182610203565b0390f35b6101d9565b346104ad5761048d3660046101e3565b6104a9610498610d8f565b6104a06101d3565b91829182610203565b0390f35b6101d9565b90916060828403126104e8576104e56104ce84600085016103ad565b936104dc81602086016103ad565b9360400161031e565b90565b6101de565b3461051e5761051a6105096105033660046104b2565b91610da5565b6105116101d3565b918291826103fc565b0390f35b6101d9565b60ff1690565b61053290610523565b9052565b919061054a90600060208501940190610529565b565b3461057c5761055c3660046101e3565b610578610567610e12565b61056f6101d3565b91829182610536565b0390f35b6101d9565b61058a9061038c565b9052565b91906105a290600060208501940190610581565b565b346105d4576105b43660046101e3565b6105d06105bf610e55565b6105c76101d3565b9182918261058e565b0390f35b6101d9565b3461060a576106066105f56105ef3660046103bc565b90610eaf565b6105fd6101d3565b918291826103fc565b0390f35b6101d9565b9060208282031261062957610626916000016103ad565b90565b6101de565b3461065e5761065a61064961064436600461060f565b610ee4565b6106516101d3565b91829182610203565b0390f35b6101d9565b346106935761068f61067e61067936600461032d565b610ef4565b6106866101d3565b91829182610203565b0390f35b6101d9565b91906040838203126106c157806106b56106be926000860161031e565b936020016103ad565b90565b6101de565b346106f7576106f36106e26106dc366004610698565b90610f90565b6106ea6101d3565b91829182610203565b0390f35b6101d9565b3461072c5761072861071761071236600461060f565b611004565b61071f6101d3565b91829182610203565b0390f35b6101d9565b346107625761075e61074d610747366004610698565b906110a7565b6107556101d3565b91829182610203565b0390f35b6101d9565b34610797576107773660046101e3565b6107936107826110f8565b61078a6101d3565b918291826102bb565b0390f35b6101d9565b346107cd576107c96107b86107b23660046103bc565b906111c6565b6107c06101d3565b918291826103fc565b0390f35b6101d9565b34610803576107ff6107ee6107e83660046103bc565b9061121a565b6107f66101d3565b918291826103fc565b0390f35b6101d9565b346108385761083461082361081e36600461032d565b61123c565b61082b6101d3565b91829182610203565b0390f35b6101d9565b909160608284031261087357610870610859846000850161031e565b9361086781602086016103ad565b936040016103ad565b90565b6101de565b346108a9576108a561089461088e36600461083d565b916112d8565b61089c6101d3565b91829182610203565b0390f35b6101d9565b346108df576108db6108ca6108c436600461083d565b916113b0565b6108d26101d3565b91829182610203565b0390f35b6101d9565b34610914576109106108ff6108fa36600461060f565b611401565b6109076101d3565b91829182610203565b0390f35b6101d9565b346109495761094561093461092f36600461032d565b611411565b61093c6101d3565b91829182610203565b0390f35b6101d9565b3461097e5761097a61096961096436600461060f565b611429565b6109716101d3565b91829182610203565b0390f35b6101d9565b346109b3576109af61099e61099936600461060f565b611449565b6109a66101d3565b91829182610203565b0390f35b6101d9565b91906040838203126109e157806109d56109de92600086016103ad565b936020016103ad565b90565b6101de565b34610a1757610a13610a026109fc3660046109b8565b90611476565b610a0a6101d3565b91829182610203565b0390f35b6101d9565b34610a4c57610a48610a37610a3236600461032d565b61149e565b610a3f6101d3565b91829182610203565b0390f35b6101d9565b600080fd5b600090565b90565b610a72610a6d610a7792610381565b610a5b565b610381565b90565b610a8390610a5e565b90565b610a8f90610a7a565b90565b610a9b90610a7a565b90565b634e487b7160e01b600052604160045260246000fd5b90610abe90610280565b810190811067ffffffffffffffff821117610ad857604052565b610a9e565b60e01b90565b90505190610af082610309565b565b90602082820312610b0c57610b0991600001610ae3565b90565b6101de565b610b196101d3565b3d6000823e3d90fd5b610b2a610a56565b50610b8b6020610b597f0000000000000000000000000000000000000000000000000000000000000000610a86565b6370a0823190610b80610b6b30610a92565b92610b746101d3565b95869485938493610add565b83526004830161058e565b03915afa908115610bd057600091610ba2575b5090565b610bc3915060203d8111610bc9575b610bbb8183610ab4565b810190610af2565b38610b9e565b503d610bb1565b610b11565b606090565b634e487b7160e01b600052602260045260246000fd5b9060016002830492168015610c10575b6020831014610c0b57565b610bda565b91607f1691610c00565b60209181520190565b600052602060002090565b9060009291805490610c49610c4283610bf0565b8094610c1a565b91600181169081600014610ca25750600114610c65575b505050565b610c729192939450610c23565b916000925b818410610c8a5750500190388080610c60565b60018160209295939554848601520191019290610c77565b92949550505060ff1916825215156020020190388080610c60565b90610cc791610c2e565b90565b90610cea610ce392610cda6101d3565b93848092610cbd565b0383610ab4565b565b610cf590610cca565b90565b610d00610bd5565b50610d0b6003610cec565b90565b610d2390610d1a610a56565b506000906114f1565b90565b600090565b610d4891610d37610d26565b50610d40611546565b91909161172e565b600190565b610d6290610d59610a56565b506001906117ec565b90565b60001c90565b90565b610d7a610d7f91610d65565b610d6b565b90565b610d8c9054610d6e565b90565b610d97610a56565b50610da26002610d82565b90565b91610dcf92610db2610d26565b50610dc7610dbe611546565b829084916118c5565b919091611b39565b600190565b600090565b634e487b7160e01b600052601160045260246000fd5b610dfb610e0191610523565b91610523565b019060ff8211610e0d57565b610dd9565b610e1a610dd4565b50610e4d7f0000000000000000000000000000000000000000000000000000000000000000610e47611cff565b90610def565b90565b600090565b610e5d610e50565b50610e877f0000000000000000000000000000000000000000000000000000000000000000610a86565b90565b610e99610e9f919392936101f3565b926101f3565b8201809211610eaa57565b610dd9565b610edf91610ebb610d26565b50610ed9610ec7611546565b91610ed483948094611476565b610e8a565b9161172e565b600190565b50610eed610a56565b5060001990565b610f0990610f00610a56565b506000906114f1565b90565b60007f455243343632363a206465706f736974206d6f7265207468616e206d61780000910152565b610f41601e602092610252565b610f4a81610f0c565b0190565b610f649060208101906000818303910152610f34565b90565b15610f6e57565b610f766101d3565b62461bcd60e51b815280610f8c60048201610f4e565b0390fd5b90610fdd90610f9d610a56565b50610fc383610fbc610fb6610fb185610ee4565b6101f3565b916101f3565b1115610f67565b610fcc8361149e565b92610fd5611546565b918492611dd3565b90565b610fe990610a7a565b90565b90610ff690610fe0565b600052602052604060002090565b61101b61102091611013610a56565b506000610fec565b610d82565b90565b60007f455243343632363a206d696e74206d6f7265207468616e206d61780000000000910152565b611058601b602092610252565b61106181611023565b0190565b61107b906020810190600081830391015261104b565b90565b1561108557565b61108d6101d3565b62461bcd60e51b8152806110a360048201611065565b0390fd5b906110f5906110b4610a56565b506110da836110d36110cd6110c885611401565b6101f3565b916101f3565b111561107e565b6110e38361123c565b926110ec611546565b91849192611dd3565b90565b611100610bd5565b5061110b6004610cec565b90565b60207f207a65726f000000000000000000000000000000000000000000000000000000917f45524332303a2064656372656173656420616c6c6f77616e63652062656c6f7760008201520152565b6111696025604092610252565b6111728161110e565b0190565b61118c906020810190600081830391015261115c565b90565b1561119657565b61119e6101d3565b62461bcd60e51b8152806111b460048201611176565b0390fd5b906111c391036101f3565b90565b611215916111d2610d26565b5061120f6111de611546565b916111ea838590611476565b92611208846112016111fb856101f3565b916101f3565b101561118f565b93926111b8565b9161172e565b600190565b61123791611226610d26565b5061122f611546565b919091611b39565b600190565b61125190611248610a56565b506001906114f1565b90565b60007f455243343632363a207769746864726177206d6f7265207468616e206d617800910152565b611289601f602092610252565b61129281611254565b0190565b6112ac906020810190600081830391015261127c565b90565b156112b657565b6112be6101d3565b62461bcd60e51b8152806112d460048201611296565b0390fd5b9190611329916112e6610a56565b5061130c846113056112ff6112fa85611429565b6101f3565b916101f3565b11156112af565b61131584610d4d565b9361131e611546565b929190918593611e64565b90565b60007f455243343632363a2072656465656d206d6f7265207468616e206d6178000000910152565b611361601d602092610252565b61136a8161132c565b0190565b6113849060208101906000818303910152611354565b90565b1561138e57565b6113966101d3565b62461bcd60e51b8152806113ac6004820161136e565b0390fd5b906113fe916113bd610a56565b506113e3816113dc6113d66113d188611449565b6101f3565b916101f3565b1115611387565b6113ec81610ef4565b936113f5611546565b92859293611e64565b90565b5061140a610a56565b5060001990565b6114269061141d610a56565b506000906117ec565b90565b61143e61144691611438610a56565b50611004565b6000906114f1565b90565b61145b90611455610a56565b50611004565b90565b9061146890610fe0565b600052602052604060002090565b61149b9161149161149692611489610a56565b50600161145e565b610fec565b610d82565b90565b6114b3906114aa610a56565b506000906117ec565b90565b90565b6114cd6114c86114d2926114b6565b610a5b565b6101f3565b90565b6114de90610523565b604d81116114ec57600a0a90565b610dd9565b90611543916114fe610a56565b509061151b61150b610b22565b61151560016114b9565b90610e8a565b61153c611526610d8f565b611536611531611cff565b6114d5565b90610e8a565b9192611f82565b90565b61154e610e50565b503390565b90565b61156a61156561156f92611553565b610a5b565b610381565b90565b61157b90611556565b90565b60207f7265737300000000000000000000000000000000000000000000000000000000917f45524332303a20617070726f76652066726f6d20746865207a65726f2061646460008201520152565b6115d96024604092610252565b6115e28161157e565b0190565b6115fc90602081019060008183039101526115cc565b90565b1561160657565b61160e6101d3565b62461bcd60e51b815280611624600482016115e6565b0390fd5b60207f7373000000000000000000000000000000000000000000000000000000000000917f45524332303a20617070726f766520746f20746865207a65726f20616464726560008201520152565b6116836022604092610252565b61168c81611628565b0190565b6116a69060208101906000818303910152611676565b90565b156116b057565b6116b86101d3565b62461bcd60e51b8152806116ce60048201611690565b0390fd5b60001b90565b906116e5600019916116d2565b9181191691161790565b6117036116fe611708926101f3565b610a5b565b6101f3565b90565b90565b9061172361171e61172a926116ef565b61170b565b82546116d8565b9055565b9190916117578161175061174a6117456000611572565b61038c565b9161038c565b14156115ff565b61177d8361177661177061176b6000611572565b61038c565b9161038c565b14156116a9565b61179c826117976117906001859061145e565b8690610fec565b61170e565b9190916117e76117d56117cf7f8c5be1e5ebec7d5bd14f71427d1e84f3dd0314c0f7b2291e5b200ac8c7c3b92593610fe0565b93610fe0565b936117de6101d3565b91829182610203565b0390a3565b9061183e916117f9610a56565b509061181c611806610d8f565b611816611811611cff565b6114d5565b90610e8a565b611837611827610b22565b61183160016114b9565b90610e8a565b9192611f82565b90565b60007f45524332303a20696e73756666696369656e7420616c6c6f77616e6365000000910152565b611876601d602092610252565b61187f81611841565b0190565b6118999060208101906000818303910152611869565b90565b156118a357565b6118ab6101d3565b62461bcd60e51b8152806118c160048201611883565b0390fd5b6118d0818390611476565b90816118e66118e06000196101f3565b916101f3565b036118f2575b50505050565b6119249361191e916119178461191061190a856101f3565b916101f3565b101561189c565b93926111b8565b9161172e565b388080806118ec565b60207f6472657373000000000000000000000000000000000000000000000000000000917f45524332303a207472616e736665722066726f6d20746865207a65726f20616460008201520152565b6119886025604092610252565b6119918161192d565b0190565b6119ab906020810190600081830391015261197b565b90565b156119b557565b6119bd6101d3565b62461bcd60e51b8152806119d360048201611995565b0390fd5b60207f6573730000000000000000000000000000000000000000000000000000000000917f45524332303a207472616e7366657220746f20746865207a65726f206164647260008201520152565b611a326023604092610252565b611a3b816119d7565b0190565b611a559060208101906000818303910152611a25565b90565b15611a5f57565b611a676101d3565b62461bcd60e51b815280611a7d60048201611a3f565b0390fd5b60207f616c616e63650000000000000000000000000000000000000000000000000000917f45524332303a207472616e7366657220616d6f756e742065786365656473206260008201520152565b611adc6026604092610252565b611ae581611a81565b0190565b611aff9060208101906000818303910152611acf565b90565b15611b0957565b611b116101d3565b62461bcd60e51b815280611b2760048201611ae9565b0390fd5b90611b3691016101f3565b90565b919091611b6281611b5b611b55611b506000611572565b61038c565b9161038c565b14156119ae565b611b8883611b81611b7b611b766000611572565b61038c565b9161038c565b1415611a58565b611bd7611bc6611ba2611b9d60008590610fec565b610d82565b611bbf81611bb8611bb2886101f3565b916101f3565b1015611b02565b84906111b8565b611bd260008490610fec565b61170e565b611bff82611bf9611bea60008790610fec565b91611bf483610d82565b611b2b565b9061170e565b919091611c4a611c38611c327fddf252ad1be2c89b69c2b068fc378daa952ba7f163c4a11628f55a4df523b3ef93610fe0565b93610fe0565b93611c416101d3565b91829182610203565b0390a3565b611c5890610a5e565b90565b611c6490611c4f565b90565b611c7090610a7a565b90565b611c7c81610523565b03611c8357565b600080fd5b90505190611c9582611c73565b565b90602082820312611cb157611cae91600001611c88565b90565b6101de565b60000190565b90565b611cd3611cce611cd892611cbc565b610a5b565b610523565b90565b611ce7611ced91610523565b91610523565b90039060ff8211611cfa57565b610dd9565b611d07610dd4565b50611d3d60126020611d27611d22611d1d610e55565b611c5b565b611c67565b63313ce56790611d356101d3565b948592610add565b82528180611d4d60048201611cb6565b03915afa908115611daa57611d7392600092611d76575b50611d6e90611cbf565b611cdb565b90565b611d6e919250611d9c9060203d8111611da3575b611d948183610ab4565b810190611c97565b9190611d64565b503d611d8a565b610b11565b916020611dd1929493611dca604082019660008301906101f6565b01906101f6565b565b611e097f000000000000000000000000000000000000000000000000000000000000000082611e0130610a92565b90869261206b565b611e1482859061213e565b909192611e4a611e447fdcbc1c05240f31ff3ad067ef1ee35ce4997762752e3a095284754544f4c709d793610fe0565b93610fe0565b93611e5f611e566101d3565b92839283611daf565b0390a3565b80611e77611e718561038c565b9161038c565b03611f0e575b611e88838690612358565b611eb47f0000000000000000000000000000000000000000000000000000000000000000838691612468565b90919293611ef4611eee611ee87ffbde797d201c681b91056529119e0b02407c7bb96a4a2c75c01fc9667232c8db94610fe0565b94610fe0565b94610fe0565b94611f09611f006101d3565b92839283611daf565b0390a4565b611f1a838287916118c5565b611e7d565b634e487b7160e01b600052602160045260246000fd5b60031115611f3f57565b611f1f565b90611f4e82611f35565b565b634e487b7160e01b600052601260045260246000fd5b611f7a611f75611f7f92611553565b610a5b565b6101f3565b90565b91611f8b610a56565b50611f98838383916125a5565b93611fac611fa66001611f44565b91611f44565b149283611fd8575b505050611fbf575b90565b611fd390611fcd60016114b9565b90610e8a565b611fbc565b9091925091909182156120025709611ff9611ff36000611f66565b916101f3565b11388080611fb4565b611f50565b63ffffffff1690565b63ffffffff60e01b1690565b61203061202b61203592612007565b610add565b612010565b90565b604090612062612069949695939661205860608401986000850190610581565b6020830190610581565b01906101f6565b565b6120b893916120a46004946120b393946120886323b872dd61201c565b939190916120946101d3565b9788956020870190815201612038565b60208201810382520383610ab4565b61290d565b565b60007f45524332303a206d696e7420746f20746865207a65726f206164647265737300910152565b6120ef601f602092610252565b6120f8816120ba565b0190565b61211290602081019060008183039101526120e2565b90565b1561211c57565b6121246101d3565b62461bcd60e51b81528061213a600482016120fc565b0390fd5b906121658261215e6121586121536000611572565b61038c565b9161038c565b1415612115565b61218261217b826121766002610d82565b610e8a565b600261170e565b6121aa816121a461219560008690610fec565b9161219f83610d82565b611b2b565b9061170e565b6121b46000611572565b9190916121ff6121ed6121e77fddf252ad1be2c89b69c2b068fc378daa952ba7f163c4a11628f55a4df523b3ef93610fe0565b93610fe0565b936121f66101d3565b91829182610203565b0390a3565b60207f7300000000000000000000000000000000000000000000000000000000000000917f45524332303a206275726e2066726f6d20746865207a65726f2061646472657360008201520152565b61225f6021604092610252565b61226881612204565b0190565b6122829060208101906000818303910152612252565b90565b1561228c57565b6122946101d3565b62461bcd60e51b8152806122aa6004820161226c565b0390fd5b60207f6365000000000000000000000000000000000000000000000000000000000000917f45524332303a206275726e20616d6f756e7420657863656564732062616c616e60008201520152565b6123096022604092610252565b612312816122ae565b0190565b61232c90602081019060008183039101526122fc565b90565b1561233657565b61233e6101d3565b62461bcd60e51b81528061235460048201612316565b0390fd5b61237e8161237761237161236c6000611572565b61038c565b9161038c565b1415612285565b6123cd6123bc61239861239360008590610fec565b610d82565b6123b5816123ae6123a8886101f3565b916101f3565b101561232f565b84906111b8565b6123c860008490610fec565b61170e565b6123ea6123e3836123de6002610d82565b6111b8565b600261170e565b906123f56000611572565b909161243f61242d6124277fddf252ad1be2c89b69c2b068fc378daa952ba7f163c4a11628f55a4df523b3ef93610fe0565b93610fe0565b936124366101d3565b91829182610203565b0390a3565b91602061246692949361245f60408201966000830190610581565b01906101f6565b565b916124ac60049261249d6124b1959361248463a9059cbb61201c565b9261248d6101d3565b9687946020860190815201612444565b60208201810382520383610ab4565b61290d565b565b6124bf6124c5916101f3565b916101f3565b9081156124d0570490565b611f50565b60007f4d6174683a206d756c446976206f766572666c6f770000000000000000000000910152565b61250a6015602092610252565b612513816124d5565b0190565b61252d90602081019060008183039101526124fd565b90565b1561253757565b61253f6101d3565b62461bcd60e51b81528061255560048201612517565b0390fd5b9061256491026101f3565b90565b90565b61257e61257961258392612567565b610a5b565b6101f3565b90565b90565b61259d6125986125a292612586565b610a5b565b6101f3565b90565b9190916125b0610a56565b506125b9610a56565b506125c2610a56565b5060001983820992808202938480821091030391826125ea6125e46000611f66565b916101f3565b1461277257612769928480936126609361261a61276f999861261461260e876101f3565b916101f3565b11612530565b612622610a56565b500990858211900394039360018361264c61263d86196101f3565b612646846114b9565b90611b2b565b168080950496049380600003040190612559565b17916127636127476127236126ff6126db6126b76126886003612683899161256a565b612559565b6126926002612589565b186126b160026126ac6126a68b8590612559565b91612589565b6111b8565b90612559565b6126d560026126d06126ca8a8590612559565b91612589565b6111b8565b90612559565b6126f960026126f46126ee898590612559565b91612589565b6111b8565b90612559565b61271d6002612718612712888590612559565b91612589565b6111b8565b90612559565b612741600261273c612736878590612559565b91612589565b6111b8565b90612559565b9161275e6127586002928590612559565b91612589565b6111b8565b90612559565b90612559565b90565b50505061277e916124b3565b90565b9061279461278d6101d3565b9283610ab4565b565b67ffffffffffffffff81116127b4576127b0602091610280565b0190565b610a9e565b906127cb6127c683612796565b612781565b918252565b60007f5361666545524332303a206c6f772d6c6576656c2063616c6c206661696c6564910152565b61280260206127b9565b9061280f602083016127d0565b565b6128196127f8565b90565b5190565b612829816103ea565b0361283057565b600080fd5b9050519061284282612820565b565b9060208282031261285e5761285b91600001612835565b90565b6101de565b60207f6f74207375636365656400000000000000000000000000000000000000000000917f5361666545524332303a204552433230206f7065726174696f6e20646964206e60008201520152565b6128be602a604092610252565b6128c781612863565b0190565b6128e190602081019060008183039101526128b1565b90565b156128eb57565b6128f36101d3565b62461bcd60e51b815280612909600482016128cb565b0390fd5b6129579161291d61292c92610a86565b90612926612811565b9161297f565b6129358161281c565b6129486129426000611f66565b916101f3565b14908115612959575b506128e4565b565b612974915060206129698261281c565b818301019101612844565b38612951565b606090565b9061299f929161298d61297a565b50906129996000611f66565b91612abd565b90565b6129ab90610a7a565b90565b60207f722063616c6c0000000000000000000000000000000000000000000000000000917f416464726573733a20696e73756666696369656e742062616c616e636520666f60008201520152565b612a096026604092610252565b612a12816129ae565b0190565b612a2c90602081019060008183039101526129fc565b90565b15612a3657565b612a3e6101d3565b62461bcd60e51b815280612a5460048201612a16565b0390fd5b67ffffffffffffffff8111612a7657612a72602091610280565b0190565b610a9e565b90612a8d612a8883612a58565b612781565b918252565b3d600014612aaf57612aa33d612a7b565b903d6000602084013e5b565b612ab761297a565b90612aad565b9160008091612b149593612acf61297a565b50612af6612adc306129a2565b31612aef612ae9856101f3565b916101f3565b1015612a2f565b8591602082019151925af191612b0a612a92565b9092909192612b9b565b90565b60007f416464726573733a2063616c6c20746f206e6f6e2d636f6e7472616374000000910152565b612b4c601d602092610252565b612b5581612b17565b0190565b612b6f9060208101906000818303910152612b3f565b90565b15612b7957565b612b816101d3565b62461bcd60e51b815280612b9760048201612b59565b0390fd5b919290612ba661297a565b50600014612bec5750612bb88261281c565b612bcb612bc56000611f66565b916101f3565b14612bd5575b5090565b612be1612be691612c40565b612b72565b38612bd1565b8290612bf78261281c565b612c0a612c046000611f66565b916101f3565b11600014612c1b5750805190602001fd5b612c3c90612c276101d3565b91829162461bcd60e51b8352600483016102bb565b0390fd5b612c48610d26565b503b612c5d612c576000611f66565b916101f3565b119056fea2646970667358221220f7f03373f69ba466f4fe4bb46e6eb4f20e10799c8d29a0e89f531bd2dc4d01d964736f6c634300081b0033","abi":[{"inputs":[{"internalType":"contract IERC20","name":"asset_","type":"address"}],"stateMutability":"nonpayable","type":"constructor"},{"anonymous":false,"inputs":[{"indexed":true,"internalType":"address","name":"owner","type":"address"},{"indexed":true,"internalType":"address","name":"spender","type":"address"},{"indexed":false,"internalType":"uint256","name":"value","type":"uint256"}],"name":"Approval","type":"event"},{"anonymous":false,"inputs":[{"indexed":true,"internalType":"address","name":"sender","type":"address"},{"indexed":true,"internalType":"address","name":"owner","type":"address"},{"indexed":false,"internalType":"uint256","name":"assets","type":"uint256"},{"indexed":false,"internalType":"uint256","name":"shares","type":"uint256"}],"name":"Deposit","type":"event"},{"anonymous":false,"inputs":[{"indexed":true,"internalType":"address","name":"from","type":"address"},{"indexed":true,"internalType":"address","name":"to","type":"address"},{"indexed":false,"internalType":"uint256","name":"value","type":"uint256"}],"name":"Transfer","type":"event"},{"anonymous":false,"inputs":[{"indexed":true,"internalType":"address","name":"sender","type":"address"},{"indexed":true,"internalType":"address","name":"receiver","type":"address"},{"indexed":true,"internalType":"address","name":"owner","type":"address"},{"indexed":false,"internalType":"uint256","name":"assets","type":"uint256"},{"indexed":false,"internalType":"uint256","name":"shares","type":"uint256"}],"name":"Withdraw","type":"event"},{"inputs":[{"internalType":"address","name":"owner","type":"address"},{"internalType":"address","name":"spender","type":"address"}],"name":"allowance","outputs":[{"internalType":"uint256","name":"","type":"uint256"}],"stateMutability":"view","type":"function"},{"inputs":[{"internalType":"address","name":"spender","type":"address"},{"internalType":"uint256","name":"amount","type":"uint256"}],"name":"approve","outputs":[{"internalType":"bool","name":"","type":"bool"}],"stateMutability":"nonpayable","type":"function"},{"inputs":[],"name":"asset","outputs":[{"internalType":"address","name":"","type":"address"}],"stateMutability":"view","type":"function"},{"inputs":[{"internalType":"address","name":"account","type":"address"}],"name":"balanceOf","outputs":[{"internalType":"uint256","name":"","type":"uint256"}],"stateMutability":"view","type":"function"},{"inputs":[{"internalType":"uint256","name":"shares","type":"uint256"}],"name":"convertToAssets","outputs":[{"internalType":"uint256","name":"","type":"uint256"}],"stateMutability":"view","type":"function"},{"inputs":[{"internalType":"uint256","name":"assets","type":"uint256"}],"name":"convertToShares","outputs":[{"internalType":"uint256","name":"","type":"uint256"}],"stateMutability":"view","type":"function"},{"inputs":[],"name":"decimals","outputs":[{"internalType":"uint8","name":"","type":"uint8"}],"stateMutability":"view","type":"function"},{"inputs":[{"internalType":"address","name":"spender","type":"address"},{"internalType":"uint256","name":"subtractedValue","type":"uint256"}],"name":"decreaseAllowance","outputs":[{"internalType":"bool","name":"","type":"bool"}],"stateMutability":"nonpayable","type":"function"},{"inputs":[{"internalType":"uint256","name":"assets","type":"uint256"},{"internalType":"address","name":"receiver","type":"address"}],"name":"deposit","outputs":[{"internalType":"uint256","name":"","type":"uint256"}],"stateMutability":"nonpayable","type":"function"},{"inputs":[{"internalType":"address","name":"spender","type":"address"},{"internalType":"uint256","name":"addedValue","type":"uint256"}],"name":"increaseAllowance","outputs":[{"internalType":"bool","name":"","type":"bool"}],"stateMutability":"nonpayable","type":"function"},{"inputs":[{"internalType":"address","name":"","type":"address"}],"name":"maxDeposit","outputs":[{"internalType":"uint256","name":"","type":"uint256"}],"stateMutability":"view","type":"function"},{"inputs":[{"internalType":"address","name":"","type":"address"}],"name":"maxMint","outputs":[{"internalType":"uint256","name":"","type":"uint256"}],"stateMutability":"view","type":"function"},{"inputs":[{"internalType":"address","name":"owner","type":"address"}],"name":"maxRedeem","outputs":[{"internalType":"uint256","name":"","type":"uint256"}],"stateMutability":"view","type":"function"},{"inputs":[{"internalType":"address","name":"owner","type":"address"}],"name":"maxWithdraw","outputs":[{"internalType":"uint256","name":"","type":"uint256"}],"stateMutability":"view","type":"function"},{"inputs":[{"internalType":"uint256","name":"shares","type":"uint256"},{"internalType":"address","name":"receiver","type":"address"}],"name":"mint","outputs":[{"internalType":"uint256","name":"","type":"uint256"}],"stateMutability":"nonpayable","type":"function"},{"inputs":[],"name":"name","outputs":[{"internalType":"string","name":"","type":"string"}],"stateMutability":"view","type":"function"},{"inputs":[{"internalType":"uint256","name":"assets","type":"uint256"}],"name":"previewDeposit","outputs":[{"internalType":"uint256","name":"","type":"uint256"}],"stateMutability":"view","type":"function"},{"inputs":[{"internalType":"uint256","name":"shares","type":"uint256"}],"name":"previewMint","outputs":[{"internalType":"uint256","name":"","type":"uint256"}],"stateMutability":"view","type":"function"},{"inputs":[{"internalType":"uint256","name":"shares","type":"uint256"}],"name":"previewRedeem","outputs":[{"internalType":"uint256","name":"","type":"uint256"}],"stateMutability":"view","type":"function"},{"inputs":[{"internalType":"uint256","name":"assets","type":"uint256"}],"name":"previewWithdraw","outputs":[{"internalType":"uint256","name":"","type":"uint256"}],"stateMutability":"view","type":"function"},{"inputs":[{"internalType":"uint256","name":"shares","type":"uint256"},{"internalType":"address","name":"receiver","type":"address"},{"internalType":"address","name":"owner","type":"address"}],"name":"redeem","outputs":[{"internalType":"uint256","name":"","type":"uint256"}],"stateMutability":"nonpayable","type":"function"},{"inputs":[],"name":"symbol","outputs":[{"internalType":"string","name":"","type":"string"}],"stateMutability":"view","type":"function"},{"inputs":[],"name":"totalAssets","outputs":[{"internalType":"uint256","name":"","type":"uint256"}],"stateMutability":"view","type":"function"},{"inputs":[],"name":"totalSupply","outputs":[{"internalType":"uint256","name":"","type":"uint256"}],"stateMutability":"view","type":"function"},{"inputs":[{"internalType":"address","name":"to","type":"address"},{"internalType":"uint256","name":"amount","type":"uint256"}],"name":"transfer","outputs":[{"internalType":"bool","name":"","type":"bool"}],"stateMutability":"nonpayable","type":"function"},{"inputs":[{"internalType":"address","name":"from","type":"address"},{"internalType":"address","name":"to","type":"address"},{"internalType":"uint256","name":"amount","type":"uint256"}],"name":"transferFrom","outputs":[{"internalType":"bool","name":"","type":"bool"}],"stateMutability":"nonpayable","type":"function"},{"inputs":[{"internalType":"uint256","name":"assets","type":"uint256"},{"internalType":"address","name":"receiver","type":"address"},{"internalType":"address","name":"owner","type":"address"}],"name":"withdraw","outputs":[{"internalType":"uint256","name":"","type":"uint256"}],"stateMutability":"nonpayable","type":"function"}]}