{"address":"0xE133Db4B5D0a6c69F05452E294de809e5b59e5f5","bytecode":"0x60a0604052346103d0576132e580380380610019816103d5565b9283398101906080818303126103d05780516001600160401b0381116103d057826100459183016103fa565b602082015190926001600160401b0382116103d0576100659183016103fa565b9061007e606061007760408401610465565b9201610465565b5060008054336001600160a01b0319821681178355916001600160a01b03909116907f8be0079c531659141344cd1fd0a4f28419497f9722a3daafe3b4186f6b6457e09080a36001600160a01b031660805281516001600160401b0381116102db57600a54600181811c911680156103c6575b60208210146102bb57601f8111610361575b50602092601f82116001146102fc57928192936000926102f1575b50508160011b916000199060031b1c191617600a555b80516001600160401b0381116102db57600b54600181811c911680156102d1575b60208210146102bb57601f8111610256575b50602091601f82116001146101f2579181926000926101e7575b50508160011b916000199060031b1c191617600b555b604051612e6b908161047a82396080518181816103fd015281816106e90152818161081201528181610b6d0152818161169f015281816117b201528181611d9901528181611f910152612cbb0152f35b015190503880610181565b601f19821692600b600052806000209160005b85811061023e57508360019510610225575b505050811b01600b55610197565b015160001960f88460031b161c19169055388080610217565b91926020600181928685015181550194019201610205565b600b6000527f0175b7a638427703f0dbe7bb9bbf987a2551717b34e79f33b5b1008d1fa01db9601f830160051c810191602084106102b1575b601f0160051c01905b8181106102a55750610167565b60008155600101610298565b909150819061028f565b634e487b7160e01b600052602260045260246000fd5b90607f1690610155565b634e487b7160e01b600052604160045260246000fd5b01519050388061011e565b601f19821693600a600052806000209160005b8681106103495750836001959610610330575b505050811b01600a55610134565b015160001960f88460031b161c19169055388080610322565b9192602060018192868501518155019401920161030f565b600a6000527fc65a7bb8d6351c1cf70c95a316cc6a92839c986682d98bc35f958f4883f9d2a8601f830160051c810191602084106103bc575b601f0160051c01905b8181106103b05750610103565b600081556001016103a3565b909150819061039a565b90607f16906100f1565b600080fd5b6040519190601f01601f191682016001600160401b038111838210176102db57604052565b81601f820112156103d0578051906001600160401b0382116102db57610429601f8301601f19166020016103d5565b92828452602083830101116103d05760005b82811061045057505060206000918301015290565b8060208092840101518282870101520161043b565b51906001600160a01b03821682036103d05756fe6080604052600436101561001257600080fd5b60003560e01c80621d35671461031c57806301ffc9a71461031757806306fdde031461031257806307e0db171461030d578063095ea7b3146103085780630df374831461030357806310ddb137146102fe578063142ea7d4146102f957806318160ddd1461029f57806323b872dd146102f45780632a205e3d146102ef578063313ce567146102ea57806339509351146102e55780633d8b38f6146102e05780633f1f4fa4146102db57806340c10f19146102d657806342d65a8d146102d157806344770515146102cc5780634c42899a146102cc57806351905636146102c75780635b8c41e6146102c257806366ad5c8a146102bd57806370a08231146102b8578063715018a6146102b35780637533d788146102ae5780638cfd8f5c146102a95780638da5cb5b146102a45780639358928b1461029f578063950c8a741461029a57806395d89b41146102955780639dc29fac146102905780639f38369a1461028b578063a457c2d714610286578063a6c3d16514610281578063a9059cbb1461027c578063b353aaa714610277578063baf3292d14610272578063c44618341461026d578063cbed8b9c14610268578063d1deba1f14610263578063dd62ed3e1461025e578063df2a5b3b14610259578063eab45d9c14610254578063eb8d72b71461024f578063ed629c5c1461024a578063f2fde38b14610245578063f5ecbdbc14610240578063fc0c546a1461023b5763fc84bcaf1461023657600080fd5b611e20565b611e05565b611d30565b611c61565b611c3e565b611b00565b611a9e565b611a04565b6119aa565b61184c565b61175b565b61173e565b6116ce565b611689565b61165f565b6114d8565b61141a565b611377565b611321565b611279565b611250565b6108bb565b611227565b6111cc565b611175565b611042565b611005565b610f7f565b610ec8565b610bf2565b610bd6565b610b54565b610aee565b610ab5565b610a59565b6109be565b6109a2565b610919565b6108d9565b610874565b6107e9565b6107a9565b610774565b6106c0565b6105e3565b6104fc565b6103e6565b61ffff81160361032d57565b600080fd5b9181601f8401121561032d578235916001600160401b03831161032d576020838186019501011161032d57565b604435906001600160401b038216820361032d57565b608060031982011261032d5760043561038d81610321565b916024356001600160401b03811161032d57826103ac91600401610332565b929092916044356001600160401b038116810361032d5791606435906001600160401b03821161032d576103e291600401610332565b9091565b3461032d576103f436610375565b929493919291907f00000000000000000000000000000000000000000000000000000000000000006001600160a01b031633036104b75761047a61048292610488976104736104596104548a61ffff166000526001602052604060002090565b611158565b80519081841491826104ad575b508161048a575b50611e49565b3691610e91565b923691610e91565b926121b7565b005b9050610497368486610e91565b602081519101209060208151910120143861046d565b1515915038610466565b60405162461bcd60e51b815260206004820152601e60248201527f4c7a4170703a20696e76616c696420656e64706f696e742063616c6c657200006044820152606490fd5b3461032d57602036600319011261032d5760043563ffffffff60e01b811680910361032d57801590811561056b575b8115610540575b506040519015158152602090f35b630a72677560e11b81149150811561055a575b5038610532565b6301ffc9a760e01b14905038610553565b6336372b0760e01b8114915061052b565b600091031261032d57565b60005b83811061059a5750506000910152565b818101518382015260200161058a565b906020916105c381518092818552858086019101610587565b601f01601f1916010190565b9060206105e09281815201906105aa565b90565b3461032d57600036600319011261032d576040516000600a546106058161109b565b808452906001811690811561069c575060011461063d575b6106398361062d81850382610e50565b604051918291826105cf565b0390f35b600a60009081527fc65a7bb8d6351c1cf70c95a316cc6a92839c986682d98bc35f958f4883f9d2a8939250905b8082106106825750909150810160200161062d61061d565b91926001816020925483858801015201910190929161066a565b60ff191660208086019190915291151560051b8401909101915061062d905061061d565b3461032d5760006020366003190112610760576004356106df81610321565b6106e761228c565b7f00000000000000000000000000000000000000000000000000000000000000006001600160a01b0316908290823b1561075e57602461ffff918360405195869485936307e0db1760e01b85521660048401525af1801561075957829061074b5780f35b61075491610e50565b388180f35b611ea4565b505b80fd5b6001600160a01b0381160361032d57565b3461032d57604036600319011261032d5761079e60043561079481610763565b60243590336122e4565b602060405160018152f35b3461032d57604036600319011261032d576004356107c681610321565b61ffff602435916107d561228c565b166000526003602052604060002055600080f35b3461032d57600060203660031901126107605760043561080881610321565b61081061228c565b7f00000000000000000000000000000000000000000000000000000000000000006001600160a01b0316908290823b1561075e57602461ffff918360405195869485936310ddb13760e01b85521660048401525af1801561075957829061074b5780f35b3461032d57602036600319011261032d5760043561089181610763565b61089961228c565b600c80546001600160a01b0319166001600160a01b0392909216919091179055005b3461032d57600036600319011261032d576020600954604051908152f35b3461032d57606036600319011261032d5761079e6004356108f981610763565b60243561090581610763565b6044359161091483338361241a565b612566565b3461032d5760a036600319011261032d5760043561093681610321565b6024356001600160401b03811161032d57610955903690600401610332565b91606435604435811515820361032d57608435946001600160401b03861161032d57610988610990963690600401610332565b959094611f2d565b60408051928352602083019190915290f35b3461032d57600036600319011261032d57602060405160128152f35b3461032d57604036600319011261032d576004356109db81610763565b602435336000526008602052610a078260406000209060018060a01b0316600052602052604060002090565b54908101809111610a1c5761079e91336122e4565b611ffd565b90604060031983011261032d57600435610a3a81610321565b91602435906001600160401b03821161032d576103e291600401610332565b3461032d57602061ffff610aa6610a6f36610a21565b9390911660005260018452610a91610a986040600020604051928380926110d5565b0382610e50565b848151910120923691610e91565b82815191012014604051908152f35b3461032d57602036600319011261032d5761ffff600435610ad581610321565b1660005260036020526020604060002054604051908152f35b3461032d57604036600319011261032d57600435610b0b81610763565b60243560018060a01b03600c541633141580610b3f575b610b2f576104889161267f565b6282b42960e81b60005260046000fd5b506000546001600160a01b0316331415610b22565b3461032d57610b6236610a21565b91610b6b61228c565b7f00000000000000000000000000000000000000000000000000000000000000006001600160a01b031690813b1561032d57610bbb60405194859485936342d65a8d60e01b85526004850161202e565b918160008096819503925af1801561075957829061074b5780f35b3461032d57600036600319011261032d57602060405160008152f35b60e036600319011261032d57600435610c0a81610763565b60243590610c1782610321565b6044356001600160401b03811161032d57610c36903690600401610332565b9091606435916084359190610c4a83610763565b60a43590610c5782610763565b60c435906001600160401b03821161032d57610c87610c7d610c8f933690600401610332565b9890923691610e91565b963691610e91565b9060ff60065416600014610dab576022825110610d6657610d4a61ffff9483610d1b7f39a4c66499bcf4b56d79f0dde8ed7a9d4925a0df55825206b2b8531e202be0d098610d158c8a6022610d619a015191166000526002602052610d01604060002060008052602052604060002090565b5490610d0e821515612d2e565b1015612d7a565b87612b8e565b938492610d428b610d3460405196879260208401612739565b03601f198101865285610e50565b34938c612c72565b60405193849360018060a01b03169716958361275c565b0390a3005b60405162461bcd60e51b815260206004820152601c60248201527f4c7a4170703a20696e76616c69642061646170746572506172616d73000000006044820152606490fd5b8151610de657610d4a61ffff94610d6193610d1b7f39a4c66499bcf4b56d79f0dde8ed7a9d4925a0df55825206b2b8531e202be0d098610d15565b60405162461bcd60e51b815260206004820152602660248201527f4f4654436f72653a205f61646170746572506172616d73206d7573742062652060448201526532b6b83a3c9760d11b6064820152608490fd5b634e487b7160e01b600052604160045260246000fd5b90601f801991011681019081106001600160401b03821117610e7157604052565b610e3a565b6001600160401b038111610e7157601f01601f191660200190565b929192610e9d82610e76565b91610eab6040519384610e50565b82948184528183011161032d578281602093846000960137010152565b3461032d57606036600319011261032d57600435610ee581610321565b6024356001600160401b03811161032d573660238201121561032d5761063991610f4d6020610f21610f6e943690602481600401359101610e91565b61ffff610f2c61035f565b94166000526005825260406000208260405194838680955193849201610587565b820190815203019020906001600160401b0316600052602052604060002090565b546040519081529081906020820190565b3461032d57610f8d36610375565b9192949390303303610fb15761047a610fab92610488973691610e91565b92612773565b60405162461bcd60e51b815260206004820152602660248201527f4e6f6e626c6f636b696e674c7a4170703a2063616c6c6572206d7573742062656044820152650204c7a4170760d41b6064820152608490fd5b3461032d57602036600319011261032d5760043561102281610763565b60018060a01b031660005260076020526020604060002054604051908152f35b3461032d57600036600319011261032d5761105b61228c565b600080546001600160a01b0319811682556001600160a01b03167f8be0079c531659141344cd1fd0a4f28419497f9722a3daafe3b4186f6b6457e08280a3005b90600182811c921680156110cb575b60208310146110b557565b634e487b7160e01b600052602260045260246000fd5b91607f16916110aa565b600092918154916110e58361109b565b808352926001811690811561113b575060011461110157505050565b60009081526020812093945091925b838310611121575060209250010190565b600181602092949394548385870101520191019190611110565b915050602093945060ff929192191683830152151560051b010190565b9061117361116c92604051938480926110d5565b0383610e50565b565b3461032d57602036600319011261032d5761ffff60043561119581610321565b166000526001602052610639610a916111b86040600020604051928380926110d5565b6040519182916020835260208301906105aa565b3461032d57604036600319011261032d57602061121e6004356111ee81610321565b61ffff602435916111fe83610321565b166000526002835260406000209061ffff16600052602052604060002090565b54604051908152f35b3461032d57600036600319011261032d576000546040516001600160a01b039091168152602090f35b3461032d57600036600319011261032d576004546040516001600160a01b039091168152602090f35b3461032d57600036600319011261032d576040516000600b5461129b8161109b565b808452906001811690811561069c57506001146112c2576106398361062d81850382610e50565b600b60009081527f0175b7a638427703f0dbe7bb9bbf987a2551717b34e79f33b5b1008d1fa01db9939250905b8082106113075750909150810160200161062d61061d565b9192600181602092548385880101520191019092916112ef565b3461032d57604036600319011261032d5760043561133e81610763565b60243560018060a01b03600c541633141580611362575b610b2f57610488916128a2565b506000546001600160a01b0316331415611355565b3461032d57602036600319011261032d5761ffff60043561139781610321565b166000526001602052610a916113b76040600020604051928380926110d5565b8051156113d55761062d816113cf6106399351612049565b90612a54565b60405162461bcd60e51b815260206004820152601d60248201527f4c7a4170703a206e6f20747275737465642070617468207265636f72640000006044820152606490fd5b3461032d57604036600319011261032d5760043561143781610763565b602435903360005260086020526114648160406000209060018060a01b0316600052602052604060002090565b549180831061148557611479920390336122e4565b60405160018152602090f35b60405162461bcd60e51b815260206004820152602560248201527f45524332303a2064656372656173656420616c6c6f77616e63652062656c6f77604482015264207a65726f60d81b6064820152608490fd5b3461032d576114e636610a21565b916114ef61228c565b6040518383602083013761151c60146020838781013060601b838201520301600b19810184520182610e50565b61ffff821660005260016020526040600020908051906001600160401b038211610e71576115548261154e855461109b565b85612058565b602090601f83116001146115cb57827f8c0400cfe2d1199b1a725c78960bcc2a344d869b80590d0f2bd005db15a572ce97936115bb95936115ac936000926115c0575b50508160011b916000199060031b1c19161790565b90555b6040519384938461202e565b0390a1005b015190503880611597565b90601f198316916115e185600052602060002090565b9260005b81811061164757509260019285927f8c0400cfe2d1199b1a725c78960bcc2a344d869b80590d0f2bd005db15a572ce9a966115bb98961061162e575b505050811b0190556115af565b015160001960f88460031b161c19169055388080611621565b929360206001819287860151815501950193016115e5565b3461032d57604036600319011261032d5761079e60043561167f81610763565b6024359033612566565b3461032d57600036600319011261032d576040517f00000000000000000000000000000000000000000000000000000000000000006001600160a01b03168152602090f35b3461032d57602036600319011261032d577f5db758e995a17ec1ad84bdef7e8c3293a0bd6179bcce400dff5d4c3d87db726b602060043561170e81610763565b61171661228c565b600480546001600160a01b0319166001600160a01b03929092169182179055604051908152a1005b3461032d57600036600319011261032d5760206040516127108152f35b3461032d57608036600319011261032d5760043561177881610321565b60243561178481610321565b604435906064356001600160401b03811161032d576117a7903690600401610332565b906117b061228c565b7f00000000000000000000000000000000000000000000000000000000000000006001600160a01b031691823b1561032d5761ffff9561182787936000979388946040519a8b998a9889976332fb62e760e21b89521660048801521660248601526044850152608060648501526084840191611eb0565b03925af180156107595761183757005b80611846600061048893610e50565b8061057c565b61185536610375565b9161ffff8694929616600052600560205261189c81604060002060206040518092878b833787820190815203019020906001600160401b0316600052602052604060002090565b549182156119595761194d84836119467fc264d91f3adc5588250e1551f547752ca0cfa8f6b530d243b9f9f4cab10ea8e59a60006119328461191a8e8a8f6115bb9f908f611900906118f36119149436908d610e91565b60208151910120146120c3565b61ffff166000526005602052604060002090565b916120aa565b906001600160401b0316600052602052604060002090565b5561193e36878d610e91565b933691610e91565b9188612773565b60405195869586612119565b60405162461bcd60e51b815260206004820152602360248201527f4e6f6e626c6f636b696e674c7a4170703a206e6f2073746f726564206d65737360448201526261676560e81b6064820152608490fd5b3461032d57604036600319011261032d57602061121e6004356119cc81610763565b602435906119d982610763565b60018060a01b03166000526008835260406000209060018060a01b0316600052602052604060002090565b3461032d57606036600319011261032d577f9d5c7c0b934da8fefa9c7760c98383778a12dfbfc0c3b3106518f43fb9508ac06060600435611a4481610321565b60243590611a5182610321565b61ffff8060443592611a6161228c565b169283600052600260205282611a898260406000209061ffff16600052602052604060002090565b556040519384521660208301526040820152a1005b3461032d57602036600319011261032d5760043580151580910361032d5760207f1584ad594a70cbe1e6515592e1272a987d922b097ead875069cebe8b40c004a491611ae861228c565b60ff196006541660ff821617600655604051908152a1005b3461032d57611b0e36610a21565b91611b1761228c565b61ffff811660005260016020526040600020926001600160401b038111610e7157611b4c81611b46865461109b565b86612058565b600093601f8211600114611bad57906115bb916115ac82807ffa41487ad5d6728f0b19276fa1eddc16558578f5109fc39d2dc33c3230470dab98600091611ba2575b508160011b916000199060031b1c19161790565b905087013538611b8e565b601f19821694611bc282600052602060002090565b95815b818110611c265750958392916115bb947ffa41487ad5d6728f0b19276fa1eddc16558578f5109fc39d2dc33c3230470dab9810611c0c575b5050600182811b0190556115af565b860135600019600385901b60f8161c191690553880611bfd565b86830135885560019097019660209283019201611bc5565b3461032d57600036600319011261032d57602060ff600654166040519015158152f35b3461032d57602036600319011261032d57600435611c7e81610763565b611c8661228c565b6001600160a01b03811615611cdc57600080546001600160a01b039283166001600160a01b03198216811783559216907f8be0079c531659141344cd1fd0a4f28419497f9722a3daafe3b4186f6b6457e09080a3005b60405162461bcd60e51b815260206004820152602660248201527f4f776e61626c653a206e6577206f776e657220697320746865207a65726f206160448201526564647265737360d01b6064820152608490fd5b3461032d57608036600319011261032d57600435611d4d81610321565b602435611d5981610321565b611d64604435610763565b61ffff606435604051633d7b2f6f60e21b815293821660048501529116602483015230604483015260648201526000816084817f00000000000000000000000000000000000000000000000000000000000000006001600160a01b03165afa80156107595761063991600091611de2575b50604051918291826105cf565b611dff91503d806000833e611df78183610e50565b810190612192565b38611dd5565b3461032d57600036600319011261032d576020604051308152f35b3461032d57600036600319011261032d57600c546040516001600160a01b039091168152602090f35b15611e5057565b60405162461bcd60e51b815260206004820152602660248201527f4c7a4170703a20696e76616c696420736f757263652073656e64696e6720636f6044820152651b9d1c9858dd60d21b6064820152608490fd5b6040513d6000823e3d90fd5b908060209392818452848401376000828201840152601f01601f1916010190565b919082604091031261032d576020825192015190565b91926105e09694959361ffff611f189316845260018060a01b0316602084015260a0604084015260a08301906105aa565b93151560608201526080818503910152611eb0565b9294611f71611f8d936040979998939699611f5d89519889936000602086015260608c8601526080850191611eb0565b90606083015203601f198101875286610e50565b855163040a7bb160e41b81529788958695309060048801611ee7565b03817f00000000000000000000000000000000000000000000000000000000000000006001600160a01b03165afa91821561075957600090600093611fd157509190565b90506103e291925060403d604011611ff6575b611fee8183610e50565b810190611ed1565b503d611fe4565b634e487b7160e01b600052601160045260246000fd5b90601f8201809211610a1c57565b91908201809211610a1c57565b60409061ffff6105e095931681528160208201520191611eb0565b601319810191908211610a1c57565b601f821161206557505050565b6000526020600020906020601f840160051c830193106120a0575b601f0160051c01905b818110612094575050565b60008155600101612089565b9091508190612080565b6020919283604051948593843782019081520301902090565b156120ca57565b60405162461bcd60e51b815260206004820152602160248201527f4e6f6e626c6f636b696e674c7a4170703a20696e76616c6964207061796c6f616044820152601960fa1b6064820152608490fd5b916121459060609461ffff6001600160401b039499989799168552608060208601526080850191611eb0565b951660408201520152565b81601f8201121561032d57805161216681610e76565b926121746040519485610e50565b8184526020828401011161032d576105e09160208085019101610587565b9060208282031261032d5781516001600160401b03811161032d576105e09201612150565b9290915a92604051633356ae4560e11b602082015261ffff8616602482015260806044820152612220816122126121f160a48301866105aa565b6001600160401b0387166064840152828103602319016084840152876105aa565b03601f198101835282610e50565b6040519460009160c0916122348389610e50565b609688528391829160208a0194601f190136863782602083519301913090f1913d9160968311612283575b8288523e15612270575b5050505050565b61227994612ade565b3880808080612269565b6096925061225f565b6000546001600160a01b031633036122a057565b606460405162461bcd60e51b815260206004820152602060248201527f4f776e61626c653a2063616c6c6572206973206e6f7420746865206f776e65726044820152fd5b6001600160a01b038116919082156123c9576001600160a01b03821693841561237957806123637f8c5be1e5ebec7d5bd14f71427d1e84f3dd0314c0f7b2291e5b200ac8c7c3b9259461234c6123749560018060a01b03166000526008602052604060002090565b9060018060a01b0316600052602052604060002090565b556040519081529081906020820190565b0390a3565b60405162461bcd60e51b815260206004820152602260248201527f45524332303a20617070726f766520746f20746865207a65726f206164647265604482015261737360f01b6064820152608490fd5b60405162461bcd60e51b8152602060048201526024808201527f45524332303a20617070726f76652066726f6d20746865207a65726f206164646044820152637265737360e01b6064820152608490fd5b6001600160a01b038082166000908152600860209081526040808320938616835292905220909190549260018401612453575b50505050565b80841061246e576124659303916122e4565b3880808061244d565b60405162461bcd60e51b815260206004820152601d60248201527f45524332303a20696e73756666696369656e7420616c6c6f77616e63650000006044820152606490fd5b156124ba57565b60405162461bcd60e51b815260206004820152602360248201527f45524332303a207472616e7366657220746f20746865207a65726f206164647260448201526265737360e81b6064820152608490fd5b1561251257565b60405162461bcd60e51b815260206004820152602660248201527f45524332303a207472616e7366657220616d6f756e7420657863656564732062604482015265616c616e636560d01b6064820152608490fd5b916001600160a01b03831691821561262c577fddf252ad1be2c89b69c2b068fc378daa952ba7f163c4a11628f55a4df523b3ef916126166123749260018060a01b038116966125b68815156124b3565b6001600160a01b03811660009081526007602052604090206125fb908590546125e18282101561250b565b039160018060a01b03166000526007602052604060002090565b556001600160a01b0316600090815260076020526040902090565b8054820190556040519081529081906020820190565b60405162461bcd60e51b815260206004820152602560248201527f45524332303a207472616e736665722066726f6d20746865207a65726f206164604482015264647265737360d81b6064820152608490fd5b6001600160a01b038116919082156126f45760095491808301809311610a1c576126e27fddf252ad1be2c89b69c2b068fc378daa952ba7f163c4a11628f55a4df523b3ef9260009460095560018060a01b03166000526007602052604060002090565b805482019055604051908152602090a3565b60405162461bcd60e51b815260206004820152601f60248201527f45524332303a206d696e7420746f20746865207a65726f2061646472657373006044820152606490fd5b929190612757604091600086526060602087015260608601906105aa565b930152565b9291906127576020916040865260408601906105aa565b929150506020810161ffff8151161560001461285d57815182019060608383031261032d576127a29051610321565b6040820151906001600160401b03821161032d576060916020806127ca930191850101612150565b9101519060148151106128205761ffff60207fbf551ec93859b170f9b2141bd9298bf3f64322c6f7beb2543a0cb669834118bf92015160601c9361280e848661267f565b60405193845216918060208101612374565b60405162461bcd60e51b8152602060048201526015602482015274746f416464726573735f6f75744f66426f756e647360581b6044820152606490fd5b60405162461bcd60e51b815260206004820152601c60248201527f4f4654436f72653a20756e6b6e6f776e207061636b65742074797065000000006044820152606490fd5b6001600160a01b038116908115612988576001600160a01b03811660009081526007602052604090205483811061293857837fddf252ad1be2c89b69c2b068fc378daa952ba7f163c4a11628f55a4df523b3ef9261291a60009661237494039160018060a01b03166000526007602052604060002090565b556129288160095403600955565b6040519081529081906020820190565b60405162461bcd60e51b815260206004820152602260248201527f45524332303a206275726e20616d6f756e7420657863656564732062616c616e604482015261636560f01b6064820152608490fd5b60405162461bcd60e51b815260206004820152602160248201527f45524332303a206275726e2066726f6d20746865207a65726f206164647265736044820152607360f81b6064820152608490fd5b156129de57565b60405162461bcd60e51b815260206004820152600e60248201526d736c6963655f6f766572666c6f7760901b6044820152606490fd5b15612a1b57565b60405162461bcd60e51b8152602060048201526011602482015270736c6963655f6f75744f66426f756e647360781b6044820152606490fd5b612a6882612a6181612013565b10156129d7565b612a7f8151612a78846000612021565b1115612a14565b81612a97575050604051600081526020810160405290565b60405191601f811691821560051b808486010193838501920101905b808410612acb5750508252601f01601f191660405290565b9092602080918551815201930190612ab3565b9193612b7b7fe183f33de2837795525b4792ca4cd60535bd77c53b7e7030060bfcf5734d6b0c95612b89939561ffff81516020830120961695866000526005602052612b4283610f4d60208b60406000208260405194838680955193849201610587565b556001600160401b03612b67604051988998895260a060208a015260a08901906105aa565b9216604087015285820360608701526105aa565b9083820360808501526105aa565b0390a1565b6105e09082906001600160a01b03811633146128a257612baf82338361241a565b6128a2565b15612bbb57565b60405162461bcd60e51b815260206004820152603060248201527f4c7a4170703a2064657374696e6174696f6e20636861696e206973206e6f742060448201526f61207472757374656420736f7572636560801b6064820152608490fd5b92612c3f6105e09795969361ffff612c4d9416865260c0602087015260c08601906105aa565b9084820360408601526105aa565b6001600160a01b0394851660608401529316608082015280830360a0909101526105aa565b94612c9b9193929561ffff81166000526001602052612ca26040600020604051948580926110d5565b0384610e50565b612cae83511515612bb4565b612cb9855182612dc6565b7f00000000000000000000000000000000000000000000000000000000000000006001600160a01b031693843b1561032d57600096612d0e91604051998a988997889662c5803160e81b885260048801612c19565b03925af1801561075957612d1f5750565b80611846600061117393610e50565b15612d3557565b60405162461bcd60e51b815260206004820152601a60248201527f4c7a4170703a206d696e4761734c696d6974206e6f74207365740000000000006044820152606490fd5b15612d8157565b60405162461bcd60e51b815260206004820152601b60248201527f4c7a4170703a20676173206c696d697420697320746f6f206c6f7700000000006044820152606490fd5b61ffff166000526003602052604060002054908115612e2b575b11612de757565b606460405162461bcd60e51b815260206004820152602060248201527f4c7a4170703a207061796c6f61642073697a6520697320746f6f206c617267656044820152fd5b6127109150612de056fea26469706673582212209bb4858a15f83403b540836fc9e8a8c528936e7fee645dab407cfec45f9ad67f64736f6c634300081b0033","abi":[{"inputs":[{"internalType":"string","name":"_name","type":"string"},{"internalType":"string","name":"_symbol","type":"string"},{"internalType":"address","name":"_lzEndpoint","type":"address"},{"internalType":"address","name":"_delegate","type":"address"}],"stateMutability":"nonpayable","type":"constructor"},{"inputs":[],"name":"DefaultValueRequired","type":"error"},{"inputs":[],"name":"Inconsistency","type":"error"},{"inputs":[],"name":"InsufficientBalance","type":"error"},{"inputs":[],"name":"NotSupported","type":"error"},{"inputs":[],"name":"RouterNotWhitelisted","type":"error"},{"inputs":[],"name":"SlippageTooHigh","type":"error"},{"inputs":[],"name":"StalePrice","type":"error"},{"inputs":[],"name":"Unauthorized","type":"error"},{"inputs":[],"name":"ZeroAddress","type":"error"},{"inputs":[],"name":"ZeroAmount","type":"error"},{"anonymous":false,"inputs":[{"indexed":true,"internalType":"address","name":"owner","type":"address"},{"indexed":true,"internalType":"address","name":"spender","type":"address"},{"indexed":false,"internalType":"uint256","name":"value","type":"uint256"}],"name":"Approval","type":"event"},{"anonymous":false,"inputs":[{"indexed":false,"internalType":"uint16","name":"_srcChainId","type":"uint16"},{"indexed":false,"internalType":"bytes","name":"_srcAddress","type":"bytes"},{"indexed":false,"internalType":"uint64","name":"_nonce","type":"uint64"},{"indexed":false,"internalType":"bytes","name":"_payload","type":"bytes"},{"indexed":false,"internalType":"bytes","name":"_reason","type":"bytes"}],"name":"MessageFailed","type":"event"},{"anonymous":false,"inputs":[{"indexed":true,"internalType":"address","name":"previousOwner","type":"address"},{"indexed":true,"internalType":"address","name":"newOwner","type":"address"}],"name":"OwnershipTransferred","type":"event"},{"anonymous":false,"inputs":[{"indexed":true,"internalType":"uint16","name":"_srcChainId","type":"uint16"},{"indexed":true,"internalType":"address","name":"_to","type":"address"},{"indexed":false,"internalType":"uint256","name":"_amount","type":"uint256"}],"name":"ReceiveFromChain","type":"event"},{"anonymous":false,"inputs":[{"indexed":false,"internalType":"uint16","name":"_srcChainId","type":"uint16"},{"indexed":false,"internalType":"bytes","name":"_srcAddress","type":"bytes"},{"indexed":false,"internalType":"uint64","name":"_nonce","type":"uint64"},{"indexed":false,"internalType":"bytes32","name":"_payloadHash","type":"bytes32"}],"name":"RetryMessageSuccess","type":"event"},{"anonymous":false,"inputs":[{"indexed":true,"internalType":"uint16","name":"_dstChainId","type":"uint16"},{"indexed":true,"internalType":"address","name":"_from","type":"address"},{"indexed":false,"internalType":"bytes","name":"_toAddress","type":"bytes"},{"indexed":false,"internalType":"uint256","name":"_amount","type":"uint256"}],"name":"SendToChain","type":"event"},{"anonymous":false,"inputs":[{"indexed":false,"internalType":"uint16","name":"_dstChainId","type":"uint16"},{"indexed":false,"internalType":"uint16","name":"_type","type":"uint16"},{"indexed":false,"internalType":"uint256","name":"_minDstGas","type":"uint256"}],"name":"SetMinDstGas","type":"event"},{"anonymous":false,"inputs":[{"indexed":false,"internalType":"address","name":"precrime","type":"address"}],"name":"SetPrecrime","type":"event"},{"anonymous":false,"inputs":[{"indexed":false,"internalType":"uint16","name":"_remoteChainId","type":"uint16"},{"indexed":false,"internalType":"bytes","name":"_path","type":"bytes"}],"name":"SetTrustedRemote","type":"event"},{"anonymous":false,"inputs":[{"indexed":false,"internalType":"uint16","name":"_remoteChainId","type":"uint16"},{"indexed":false,"internalType":"bytes","name":"_remoteAddress","type":"bytes"}],"name":"SetTrustedRemoteAddress","type":"event"},{"anonymous":false,"inputs":[{"indexed":false,"internalType":"bool","name":"_useCustomAdapterParams","type":"bool"}],"name":"SetUseCustomAdapterParams","type":"event"},{"anonymous":false,"inputs":[{"indexed":true,"internalType":"address","name":"from","type":"address"},{"indexed":true,"internalType":"address","name":"to","type":"address"},{"indexed":false,"internalType":"uint256","name":"value","type":"uint256"}],"name":"Transfer","type":"event"},{"inputs":[],"name":"DEFAULT_PAYLOAD_SIZE_LIMIT","outputs":[{"internalType":"uint256","name":"","type":"uint256"}],"stateMutability":"view","type":"function"},{"inputs":[],"name":"NO_EXTRA_GAS","outputs":[{"internalType":"uint256","name":"","type":"uint256"}],"stateMutability":"view","type":"function"},{"inputs":[],"name":"PT_SEND","outputs":[{"internalType":"uint16","name":"","type":"uint16"}],"stateMutability":"view","type":"function"},{"inputs":[{"internalType":"address","name":"owner","type":"address"},{"internalType":"address","name":"spender","type":"address"}],"name":"allowance","outputs":[{"internalType":"uint256","name":"","type":"uint256"}],"stateMutability":"view","type":"function"},{"inputs":[{"internalType":"address","name":"spender","type":"address"},{"internalType":"uint256","name":"amount","type":"uint256"}],"name":"approve","outputs":[{"internalType":"bool","name":"","type":"bool"}],"stateMutability":"nonpayable","type":"function"},{"inputs":[{"internalType":"address","name":"account","type":"address"}],"name":"balanceOf","outputs":[{"internalType":"uint256","name":"","type":"uint256"}],"stateMutability":"view","type":"function"},{"inputs":[],"name":"bentoUSDVault","outputs":[{"internalType":"address","name":"","type":"address"}],"stateMutability":"view","type":"function"},{"inputs":[{"internalType":"address","name":"_from","type":"address"},{"internalType":"uint256","name":"_amount","type":"uint256"}],"name":"burn","outputs":[],"stateMutability":"nonpayable","type":"function"},{"inputs":[],"name":"circulatingSupply","outputs":[{"internalType":"uint256","name":"","type":"uint256"}],"stateMutability":"view","type":"function"},{"inputs":[],"name":"decimals","outputs":[{"internalType":"uint8","name":"","type":"uint8"}],"stateMutability":"view","type":"function"},{"inputs":[{"internalType":"address","name":"spender","type":"address"},{"internalType":"uint256","name":"subtractedValue","type":"uint256"}],"name":"decreaseAllowance","outputs":[{"internalType":"bool","name":"","type":"bool"}],"stateMutability":"nonpayable","type":"function"},{"inputs":[{"internalType":"uint16","name":"_dstChainId","type":"uint16"},{"internalType":"bytes","name":"_toAddress","type":"bytes"},{"internalType":"uint256","name":"_amount","type":"uint256"},{"internalType":"bool","name":"_useZro","type":"bool"},{"internalType":"bytes","name":"_adapterParams","type":"bytes"}],"name":"estimateSendFee","outputs":[{"internalType":"uint256","name":"nativeFee","type":"uint256"},{"internalType":"uint256","name":"zroFee","type":"uint256"}],"stateMutability":"view","type":"function"},{"inputs":[{"internalType":"uint16","name":"","type":"uint16"},{"internalType":"bytes","name":"","type":"bytes"},{"internalType":"uint64","name":"","type":"uint64"}],"name":"failedMessages","outputs":[{"internalType":"bytes32","name":"","type":"bytes32"}],"stateMutability":"view","type":"function"},{"inputs":[{"internalType":"uint16","name":"_srcChainId","type":"uint16"},{"internalType":"bytes","name":"_srcAddress","type":"bytes"}],"name":"forceResumeReceive","outputs":[],"stateMutability":"nonpayable","type":"function"},{"inputs":[{"internalType":"uint16","name":"_version","type":"uint16"},{"internalType":"uint16","name":"_chainId","type":"uint16"},{"internalType":"address","name":"","type":"address"},{"internalType":"uint256","name":"_configType","type":"uint256"}],"name":"getConfig","outputs":[{"internalType":"bytes","name":"","type":"bytes"}],"stateMutability":"view","type":"function"},{"inputs":[{"internalType":"uint16","name":"_remoteChainId","type":"uint16"}],"name":"getTrustedRemoteAddress","outputs":[{"internalType":"bytes","name":"","type":"bytes"}],"stateMutability":"view","type":"function"},{"inputs":[{"internalType":"address","name":"spender","type":"address"},{"internalType":"uint256","name":"addedValue","type":"uint256"}],"name":"increaseAllowance","outputs":[{"internalType":"bool","name":"","type":"bool"}],"stateMutability":"nonpayable","type":"function"},{"inputs":[{"internalType":"uint16","name":"_srcChainId","type":"uint16"},{"internalType":"bytes","name":"_srcAddress","type":"bytes"}],"name":"isTrustedRemote","outputs":[{"internalType":"bool","name":"","type":"bool"}],"stateMutability":"view","type":"function"},{"inputs":[],"name":"lzEndpoint","outputs":[{"internalType":"contract ILayerZeroEndpoint","name":"","type":"address"}],"stateMutability":"view","type":"function"},{"inputs":[{"internalType":"uint16","name":"_srcChainId","type":"uint16"},{"internalType":"bytes","name":"_srcAddress","type":"bytes"},{"internalType":"uint64","name":"_nonce","type":"uint64"},{"internalType":"bytes","name":"_payload","type":"bytes"}],"name":"lzReceive","outputs":[],"stateMutability":"nonpayable","type":"function"},{"inputs":[{"internalType":"uint16","name":"","type":"uint16"},{"internalType":"uint16","name":"","type":"uint16"}],"name":"minDstGasLookup","outputs":[{"internalType":"uint256","name":"","type":"uint256"}],"stateMutability":"view","type":"function"},{"inputs":[{"internalType":"address","name":"_to","type":"address"},{"internalType":"uint256","name":"_amount","type":"uint256"}],"name":"mint","outputs":[],"stateMutability":"nonpayable","type":"function"},{"inputs":[],"name":"name","outputs":[{"internalType":"string","name":"","type":"string"}],"stateMutability":"view","type":"function"},{"inputs":[{"internalType":"uint16","name":"_srcChainId","type":"uint16"},{"internalType":"bytes","name":"_srcAddress","type":"bytes"},{"internalType":"uint64","name":"_nonce","type":"uint64"},{"internalType":"bytes","name":"_payload","type":"bytes"}],"name":"nonblockingLzReceive","outputs":[],"stateMutability":"nonpayable","type":"function"},{"inputs":[],"name":"owner","outputs":[{"internalType":"address","name":"","type":"address"}],"stateMutability":"view","type":"function"},{"inputs":[{"internalType":"uint16","name":"","type":"uint16"}],"name":"payloadSizeLimitLookup","outputs":[{"internalType":"uint256","name":"","type":"uint256"}],"stateMutability":"view","type":"function"},{"inputs":[],"name":"precrime","outputs":[{"internalType":"address","name":"","type":"address"}],"stateMutability":"view","type":"function"},{"inputs":[],"name":"renounceOwnership","outputs":[],"stateMutability":"nonpayable","type":"function"},{"inputs":[{"internalType":"uint16","name":"_srcChainId","type":"uint16"},{"internalType":"bytes","name":"_srcAddress","type":"bytes"},{"internalType":"uint64","name":"_nonce","type":"uint64"},{"internalType":"bytes","name":"_payload","type":"bytes"}],"name":"retryMessage","outputs":[],"stateMutability":"payable","type":"function"},{"inputs":[{"internalType":"address","name":"_from","type":"address"},{"internalType":"uint16","name":"_dstChainId","type":"uint16"},{"internalType":"bytes","name":"_toAddress","type":"bytes"},{"internalType":"uint256","name":"_amount","type":"uint256"},{"internalType":"address payable","name":"_refundAddress","type":"address"},{"internalType":"address","name":"_zroPaymentAddress","type":"address"},{"internalType":"bytes","name":"_adapterParams","type":"bytes"}],"name":"sendFrom","outputs":[],"stateMutability":"payable","type":"function"},{"inputs":[{"internalType":"address","name":"_bentoUSDVault","type":"address"}],"name":"setBentoUSDVault","outputs":[],"stateMutability":"nonpayable","type":"function"},{"inputs":[{"internalType":"uint16","name":"_version","type":"uint16"},{"internalType":"uint16","name":"_chainId","type":"uint16"},{"internalType":"uint256","name":"_configType","type":"uint256"},{"internalType":"bytes","name":"_config","type":"bytes"}],"name":"setConfig","outputs":[],"stateMutability":"nonpayable","type":"function"},{"inputs":[{"internalType":"uint16","name":"_dstChainId","type":"uint16"},{"internalType":"uint16","name":"_packetType","type":"uint16"},{"internalType":"uint256","name":"_minGas","type":"uint256"}],"name":"setMinDstGas","outputs":[],"stateMutability":"nonpayable","type":"function"},{"inputs":[{"internalType":"uint16","name":"_dstChainId","type":"uint16"},{"internalType":"uint256","name":"_size","type":"uint256"}],"name":"setPayloadSizeLimit","outputs":[],"stateMutability":"nonpayable","type":"function"},{"inputs":[{"internalType":"address","name":"_precrime","type":"address"}],"name":"setPrecrime","outputs":[],"stateMutability":"nonpayable","type":"function"},{"inputs":[{"internalType":"uint16","name":"_version","type":"uint16"}],"name":"setReceiveVersion","outputs":[],"stateMutability":"nonpayable","type":"function"},{"inputs":[{"internalType":"uint16","name":"_version","type":"uint16"}],"name":"setSendVersion","outputs":[],"stateMutability":"nonpayable","type":"function"},{"inputs":[{"internalType":"uint16","name":"_remoteChainId","type":"uint16"},{"internalType":"bytes","name":"_path","type":"bytes"}],"name":"setTrustedRemote","outputs":[],"stateMutability":"nonpayable","type":"function"},{"inputs":[{"internalType":"uint16","name":"_remoteChainId","type":"uint16"},{"internalType":"bytes","name":"_remoteAddress","type":"bytes"}],"name":"setTrustedRemoteAddress","outputs":[],"stateMutability":"nonpayable","type":"function"},{"inputs":[{"internalType":"bool","name":"_useCustomAdapterParams","type":"bool"}],"name":"setUseCustomAdapterParams","outputs":[],"stateMutability":"nonpayable","type":"function"},{"inputs":[{"internalType":"bytes4","name":"interfaceId","type":"bytes4"}],"name":"supportsInterface","outputs":[{"internalType":"bool","name":"","type":"bool"}],"stateMutability":"view","type":"function"},{"inputs":[],"name":"symbol","outputs":[{"internalType":"string","name":"","type":"string"}],"stateMutability":"view","type":"function"},{"inputs":[],"name":"token","outputs":[{"internalType":"address","name":"","type":"address"}],"stateMutability":"view","type":"function"},{"inputs":[],"name":"totalSupply","outputs":[{"internalType":"uint256","name":"","type":"uint256"}],"stateMutability":"view","type":"function"},{"inputs":[{"internalType":"address","name":"to","type":"address"},{"internalType":"uint256","name":"amount","type":"uint256"}],"name":"transfer","outputs":[{"internalType":"bool","name":"","type":"bool"}],"stateMutability":"nonpayable","type":"function"},{"inputs":[{"internalType":"address","name":"from","type":"address"},{"internalType":"address","name":"to","type":"address"},{"internalType":"uint256","name":"amount","type":"uint256"}],"name":"transferFrom","outputs":[{"internalType":"bool","name":"","type":"bool"}],"stateMutability":"nonpayable","type":"function"},{"inputs":[{"internalType":"address","name":"newOwner","type":"address"}],"name":"transferOwnership","outputs":[],"stateMutability":"nonpayable","type":"function"},{"inputs":[{"internalType":"uint16","name":"","type":"uint16"}],"name":"trustedRemoteLookup","outputs":[{"internalType":"bytes","name":"","type":"bytes"}],"stateMutability":"view","type":"function"},{"inputs":[],"name":"useCustomAdapterParams","outputs":[{"internalType":"bool","name":"","type":"bool"}],"stateMutability":"view","type":"function"}]}