{"address":"0x9f7F5BedDaB7cde5d6A2Bf239C2C719b7fd8BEaD","bytecode":"0x60e06040523461009e5761001a610014610185565b916101ec565b6100226100a3565b6115106109c28239608051818181610148015281816105da01528181610653015281816108b10152610c2f015260a05181818160b50152610a0f015260c05181818161032b015281816104460152818161068a01528181610765015281816108e801528181610953015281816109cf0152610a5b015261151090f35b6100a9565b60405190565b600080fd5b601f801991011690565b634e487b7160e01b600052604160045260246000fd5b906100d8906100ae565b810190811060018060401b038211176100f057604052565b6100b8565b906101086101016100a3565b92836100ce565b565b600080fd5b60018060a01b031690565b6101239061010f565b90565b61012f8161011a565b0361013657565b600080fd5b9050519061014882610126565b565b90916060828403126101805761017d610166846000850161013b565b93610174816020860161013b565b9360400161013b565b90565b61010a565b6101a3611ed280380380610198816100f5565b92833981019061014a565b909192565b6101b2905161011a565b90565b90565b6101cc6101c76101d19261010f565b6101b5565b61010f565b90565b6101dd906101b8565b90565b6101e9906101d4565b90565b9060805260a05260c05261021e61020b61020660a06101a8565b6101e0565b61021560806101a8565b6000199161036f565b565b610229906101b8565b90565b61023590610220565b90565b61024190610220565b90565b60e01b90565b90565b6102568161024a565b0361025d57565b600080fd5b9050519061026f8261024d565b565b9060208282031261028b5761028891600001610262565b90565b61010a565b6102999061011a565b9052565b9160206102bf9294936102b860408201966000830190610290565b0190610290565b565b6102c96100a3565b3d6000823e3d90fd5b63ffffffff1690565b63ffffffff60e01b1690565b6102fb6102f6610300926102d2565b610244565b6102db565b90565b634e487b7160e01b600052601160045260246000fd5b61032861032e9193929361024a565b9261024a565b820180921161033957565b610303565b6103479061024a565b9052565b91602061036d92949361036660408201966000830190610290565b019061033e565b565b909161037a8261022c565b602063dd62ed3e9161038b30610238565b906103a887946103b361039c6100a3565b96879586948594610244565b84526004840161029d565b03915afa93841561044b576104076004946103ee61041b976104169560009161041d575b5091956103e763095ea7b36102e7565b9492610319565b906103f76100a3565b968794602086019081520161034b565b602082018103825203836100ce565b6105f2565b565b61043e915060203d8111610444575b61043681836100ce565b810190610271565b386103d7565b503d61042c565b6102c1565b60018060401b03811161046c576104686020916100ae565b0190565b6100b8565b9061048361047e83610450565b6100f5565b918252565b60007f5361666545524332303a206c6f772d6c6576656c2063616c6c206661696c6564910152565b6104ba6020610471565b906104c760208301610488565b565b6104d16104b0565b90565b5190565b90565b6104ef6104ea6104f4926104d8565b6101b5565b61024a565b90565b151590565b610505816104f7565b0361050c57565b600080fd5b9050519061051e826104fc565b565b9060208282031261053a5761053791600001610511565b90565b61010a565b60209181520190565b60207f6f74207375636365656400000000000000000000000000000000000000000000917f5361666545524332303a204552433230206f7065726174696f6e20646964206e60008201520152565b6105a3602a60409261053f565b6105ac81610548565b0190565b6105c69060208101906000818303910152610596565b90565b156105d057565b6105d86100a3565b62461bcd60e51b8152806105ee600482016105b0565b0390fd5b61063c916106026106119261022c565b9061060b6104c9565b91610664565b61061a816104d4565b61062d61062760006104db565b9161024a565b1490811561063e575b506105c9565b565b6106599150602061064e826104d4565b818301019101610520565b38610636565b606090565b90610684929161067261065f565b509061067e60006104db565b916107a0565b90565b61069090610220565b90565b60207f722063616c6c0000000000000000000000000000000000000000000000000000917f416464726573733a20696e73756666696369656e742062616c616e636520666f60008201520152565b6106ee602660409261053f565b6106f781610693565b0190565b61071190602081019060008183039101526106e1565b90565b1561071b57565b6107236100a3565b62461bcd60e51b815280610739600482016106fb565b0390fd5b60018060401b038111610759576107556020916100ae565b0190565b6100b8565b9061077061076b8361073d565b6100f5565b918252565b3d600014610792576107863d61075e565b903d6000602084013e5b565b61079a61065f565b90610790565b91600080916107f795936107b261065f565b506107d96107bf30610687565b316107d26107cc8561024a565b9161024a565b1015610714565b8591602082019151925af1916107ed610775565b909290919261087e565b90565b60007f416464726573733a2063616c6c20746f206e6f6e2d636f6e7472616374000000910152565b61082f601d60209261053f565b610838816107fa565b0190565b6108529060208101906000818303910152610822565b90565b1561085c57565b6108646100a3565b62461bcd60e51b81528061087a6004820161083c565b0390fd5b91929061088961065f565b506000146108cf575061089b826104d4565b6108ae6108a860006104db565b9161024a565b146108b8575b5090565b6108c46108c9916109a0565b610855565b386108b4565b82610948565b5190565b60005b8381106108ed575050906000910152565b8060209183015181850152016108dc565b61091d61092660209361092b93610914816108d5565b9384809361053f565b958691016108d9565b6100ae565b0190565b61094591602082019160008184039101526108fe565b90565b90610952826104d4565b61096561095f60006104db565b9161024a565b116000146109765750805190602001fd5b610997906109826100a3565b91829162461bcd60e51b83526004830161092f565b0390fd5b600090565b6109a861099b565b503b6109bd6109b760006104db565b9161024a565b119056fe60806040526004361015610013575b610382565b61001e60003561008d565b80631083f761146100885780636c9fa59e14610083578063853828b61461007e578063b6b55f2514610079578063e0cc0d6814610074578063f3fef3a31461006f5763f851a4400361000e5761034d565b6102f5565b610294565b61021e565b6101a5565b61016a565b610111565b60e01c90565b60405190565b600080fd5b600080fd5b60009103126100ae57565b61009e565b7f000000000000000000000000000000000000000000000000000000000000000090565b60018060a01b031690565b6100eb906100d7565b90565b6100f7906100e2565b9052565b919061010f906000602085019401906100ee565b565b34610141576101213660046100a3565b61013d61012c6100b3565b610134610093565b918291826100fb565b0390f35b610099565b7f000000000000000000000000000000000000000000000000000000000000000090565b3461019a5761017a3660046100a3565b610196610185610146565b61018d610093565b918291826100fb565b0390f35b610099565b60000190565b346101d3576101b53660046100a3565b6101bd61074b565b6101c5610093565b806101cf8161019f565b0390f35b610099565b90565b6101e4816101d8565b036101eb57565b600080fd5b905035906101fd826101db565b565b9060208282031261021957610216916000016101f0565b90565b61009e565b3461024c576102366102313660046101ff565b6109b4565b61023e610093565b806102488161019f565b0390f35b610099565b61025a816100e2565b0361026157565b600080fd5b9050359061027382610251565b565b9060208282031261028f5761028c91600001610266565b90565b61009e565b346102c2576102ac6102a7366004610275565b610a3f565b6102b4610093565b806102be8161019f565b0390f35b610099565b91906040838203126102f057806102e46102ed9260008601610266565b936020016101f0565b90565b61009e565b346103245761030e6103083660046102c7565b90610cd3565b610316610093565b806103208161019f565b0390f35b610099565b7f000000000000000000000000000000000000000000000000000000000000000090565b3461037d5761035d3660046100a3565b610379610368610329565b610370610093565b918291826100fb565b0390f35b610099565b600080fd5b60209181520190565b60207f6e00000000000000000000000000000000000000000000000000000000000000917f4f6e6c792061646d696e2063616e2063616c6c20746869732066756e6374696f60008201520152565b6103eb6021604092610387565b6103f481610390565b0190565b61040e90602081019060008183039101526103de565b90565b1561041857565b610420610093565b62461bcd60e51b815280610436600482016103f8565b0390fd5b6104763361047061046a7f00000000000000000000000000000000000000000000000000000000000000006100e2565b916100e2565b14610411565b61047e6105cd565b565b90565b61049761049261049c926100d7565b610480565b6100d7565b90565b6104a890610483565b90565b6104b49061049f565b90565b6104c090610483565b90565b6104cc906104b7565b90565b6104d8906104b7565b90565b601f801991011690565b634e487b7160e01b600052604160045260246000fd5b90610505906104db565b810190811067ffffffffffffffff82111761051f57604052565b6104e5565b60e01b90565b90505190610537826101db565b565b90602082820312610553576105509160000161052a565b90565b61009e565b610560610093565b3d6000823e3d90fd5b61057290610483565b90565b61057e90610569565b90565b61058a906104b7565b90565b610596906101d8565b9052565b6040906105c46105cb94969593966105ba6060840198600085019061058d565b60208301906100ee565b01906100ee565b565b61063560206106036105fe7f00000000000000000000000000000000000000000000000000000000000000006104ab565b6104c3565b6370a082319061062a610615306104cf565b9261061e610093565b95869485938493610524565b8352600483016100fb565b03915afa90811561074657600091610718575b50602061067c6106777f0000000000000000000000000000000000000000000000000000000000000000610575565b610581565b63ba08765292906106ca60007f0000000000000000000000000000000000000000000000000000000000000000956106d56106b6306104cf565b6106be610093565b98899788968795610524565b85526004850161059a565b03925af18015610713576106e7575b50565b6107079060203d811161070c575b6106ff81836104fb565b810190610539565b6106e4565b503d6106f5565b610558565b610739915060203d811161073f575b61073181836104fb565b810190610539565b38610648565b503d610727565b610558565b61075361043a565b565b61079a906107953361078f6107897f00000000000000000000000000000000000000000000000000000000000000006100e2565b916100e2565b14610411565b6108a7565b565b9160206107be9294936107b76040820196600083019061058d565b01906100ee565b565b906107d36107cc610093565b92836104fb565b565b67ffffffffffffffff81116107f3576107ef6020916104db565b0190565b6104e5565b9061080a610805836107d5565b6107c0565b918252565b60007f5265636569766564207368617265733a20257300000000000000000000000000910152565b61084160136107f8565b9061084e6020830161080f565b565b610858610837565b90565b60007f73656e6420746f2061646d696e3a202573000000000000000000000000000000910152565b61088d60116107f8565b9061089a6020830161085b565b565b6108a4610883565b90565b60206108da6108d57f0000000000000000000000000000000000000000000000000000000000000000610575565b610581565b636e553f65929061091f60007f00000000000000000000000000000000000000000000000000000000000000009561092a610913610093565b97889687958694610524565b84526004840161079c565b03925af180156109af5761094e91600091610981575b50610949610850565b610d60565b61097f7f000000000000000000000000000000000000000000000000000000000000000061097a61089c565b610dc9565b565b6109a2915060203d81116109a8575b61099a81836104fb565b810190610539565b38610940565b503d610990565b610558565b6109bd90610755565b565b610a04906109ff336109f96109f37f00000000000000000000000000000000000000000000000000000000000000006100e2565b916100e2565b14610411565b610a06565b565b610a3d90610a337f00000000000000000000000000000000000000000000000000000000000000006104ab565b9060001991610ecb565b565b610a48906109bf565b565b90610a9091610a8b33610a85610a7f7f00000000000000000000000000000000000000000000000000000000000000006100e2565b916100e2565b14610411565b610be1565b565b90565b610aa9610aa4610aae92610a92565b610480565b6101d8565b90565b60007f4d75737420776974686472617720736f6d657468696e67000000000000000000910152565b610ae66017602092610387565b610aef81610ab1565b0190565b610b099060208101906000818303910152610ad9565b90565b15610b1357565b610b1b610093565b62461bcd60e51b815280610b3160048201610af3565b0390fd5b610b49610b44610b4e92610a92565b610480565b6100d7565b90565b610b5a90610b35565b90565b60007f4d757374207370656369667920726563697069656e7400000000000000000000910152565b610b926016602092610387565b610b9b81610b5d565b0190565b610bb59060208101906000818303910152610b85565b90565b15610bbf57565b610bc7610093565b62461bcd60e51b815280610bdd60048201610b9f565b0390fd5b602090610c0183610bfb610bf56000610a95565b916101d8565b11610b0c565b610c2781610c20610c1a610c156000610b51565b6100e2565b916100e2565b1415610bb8565b610c58610c537f0000000000000000000000000000000000000000000000000000000000000000610575565b610581565b610c85600063b460af94959395610c90610c71306104cf565b610c79610093565b98899788968795610524565b85526004850161059a565b03925af18015610cce57610ca2575b50565b610cc29060203d8111610cc7575b610cba81836104fb565b810190610539565b610c9f565b503d610cb0565b610558565b90610cdd91610a4a565b565b5190565b60005b838110610cf7575050906000910152565b806020918301518185015201610ce6565b610d27610d30602093610d3593610d1e81610cdf565b93848093610387565b95869101610ce3565b6104db565b0190565b92916020610d56610d5e9360408701908782036000890152610d08565b94019061058d565b565b90610d9b610da092610d8c610d73610093565b938492600460208501632d839cb360e21b815201610d39565b602082018103825203826104fb565b610fac565b565b92916020610dbf610dc79360408701908782036000890152610d08565b9401906100ee565b565b90610e04610e0992610df5610ddc610093565b93849260046020850163319af33360e01b815201610da2565b602082018103825203826104fb565b610fac565b565b610e14906104b7565b90565b916020610e39929493610e32604082019660008301906100ee565b01906100ee565b565b63ffffffff1690565b63ffffffff60e01b1690565b610e64610e5f610e6992610e3b565b610524565b610e44565b90565b634e487b7160e01b600052601160045260246000fd5b610e91610e97919392936101d8565b926101d8565b8201809211610ea257565b610e6c565b916020610ec9929493610ec2604082019660008301906100ee565b019061058d565b565b9091610ed6826104c3565b602063dd62ed3e91610ee730610e0b565b90610f048794610f0f610ef8610093565b96879586948594610524565b845260048401610e17565b03915afa938415610fa757610f63600494610f4a610f7797610f7295600091610f79575b509195610f4363095ea7b3610e50565b9492610e82565b90610f53610093565b9687946020860190815201610ea7565b602082018103825203836104fb565b611103565b565b610f9a915060203d8111610fa0575b610f9281836104fb565b810190610539565b38610f33565b503d610f88565b610558565b610fbf90610fba600161119c565b6114c8565b565b60007f5361666545524332303a206c6f772d6c6576656c2063616c6c206661696c6564910152565b610ff360206107f8565b9061100060208301610fc1565b565b61100a610fe9565b90565b5190565b151590565b61101f81611011565b0361102657565b600080fd5b9050519061103882611016565b565b90602082820312611054576110519160000161102b565b90565b61009e565b60207f6f74207375636365656400000000000000000000000000000000000000000000917f5361666545524332303a204552433230206f7065726174696f6e20646964206e60008201520152565b6110b4602a604092610387565b6110bd81611059565b0190565b6110d790602081019060008183039101526110a7565b90565b156110e157565b6110e9610093565b62461bcd60e51b8152806110ff600482016110c1565b0390fd5b61114d91611113611122926104c3565b9061111c611002565b916111ad565b61112b8161100d565b61113e6111386000610a95565b916101d8565b1490811561114f575b506110da565b565b61116a9150602061115f8261100d565b81830101910161103a565b38611147565b6a636f6e736f6c652e6c6f6790565b6000809161118b611170565b602082519201905afa50565b600090565b6111a4611197565b5090565b606090565b906111cd92916111bb6111a8565b50906111c76000610a95565b916112eb565b90565b6111d9906104b7565b90565b60207f722063616c6c0000000000000000000000000000000000000000000000000000917f416464726573733a20696e73756666696369656e742062616c616e636520666f60008201520152565b6112376026604092610387565b611240816111dc565b0190565b61125a906020810190600081830391015261122a565b90565b1561126457565b61126c610093565b62461bcd60e51b81528061128260048201611244565b0390fd5b67ffffffffffffffff81116112a4576112a06020916104db565b0190565b6104e5565b906112bb6112b683611286565b6107c0565b918252565b3d6000146112dd576112d13d6112a9565b903d6000602084013e5b565b6112e56111a8565b906112db565b916000809161134295936112fd6111a8565b5061132461130a306111d0565b3161131d611317856101d8565b916101d8565b101561125d565b8591602082019151925af1916113386112c0565b90929091926113c9565b90565b60007f416464726573733a2063616c6c20746f206e6f6e2d636f6e7472616374000000910152565b61137a601d602092610387565b61138381611345565b0190565b61139d906020810190600081830391015261136d565b90565b156113a757565b6113af610093565b62461bcd60e51b8152806113c560048201611387565b0390fd5b9192906113d46111a8565b5060001461141a57506113e68261100d565b6113f96113f36000610a95565b916101d8565b14611403575b5090565b61140f61141491611491565b6113a0565b386113ff565b82611439565b6114369160208201916000818403910152610d08565b90565b906114438261100d565b6114566114506000610a95565b916101d8565b116000146114675750805190602001fd5b61148890611473610093565b91829162461bcd60e51b835260048301611420565b0390fd5b600090565b61149961148c565b503b6114ae6114a86000610a95565b916101d8565b1190565b634e487b7160e01b600052605160045260246000fd5b6001036114b2576114d89061117f565b56fea2646970667358221220d7eb1c6074c1c4535d7871d29e26f017a0c7bc59af561abd3a0348ed8d4b075464736f6c634300081b0033","abi":[{"inputs":[{"internalType":"address","name":"_assetToken","type":"address"},{"internalType":"address","name":"_shareToken","type":"address"},{"internalType":"address","name":"_admin","type":"address"}],"stateMutability":"nonpayable","type":"constructor"},{"inputs":[],"name":"admin","outputs":[{"internalType":"address","name":"","type":"address"}],"stateMutability":"view","type":"function"},{"inputs":[{"internalType":"address","name":"_vault","type":"address"}],"name":"approveVault","outputs":[],"stateMutability":"nonpayable","type":"function"},{"inputs":[],"name":"assetToken","outputs":[{"internalType":"address","name":"","type":"address"}],"stateMutability":"view","type":"function"},{"inputs":[{"internalType":"uint256","name":"_amount","type":"uint256"}],"name":"deposit","outputs":[],"stateMutability":"nonpayable","type":"function"},{"inputs":[],"name":"shareToken","outputs":[{"internalType":"address","name":"","type":"address"}],"stateMutability":"view","type":"function"},{"inputs":[{"internalType":"address","name":"_recipient","type":"address"},{"internalType":"uint256","name":"_amount","type":"uint256"}],"name":"withdraw","outputs":[],"stateMutability":"nonpayable","type":"function"},{"inputs":[],"name":"withdrawAll","outputs":[],"stateMutability":"nonpayable","type":"function"}]}