{"address":"0x6BfB50ce7f9D383b713A399f453AF8290cf14a74","bytecode":"0x60803461012257601f6107f338819003918201601f19168301916001600160401b038311848410176101275780849260209460405283398101031261012257516001600160a01b038116808203610122576100593361013d565b600054336001600160a01b03909116036100de571561008a5761007b9061013d565b60405161066e90816101858239f35b60405162461bcd60e51b815260206004820152602660248201527f4f776e61626c653a206e6577206f776e657220697320746865207a65726f206160448201526564647265737360d01b6064820152608490fd5b606460405162461bcd60e51b815260206004820152602060248201527f4f776e61626c653a2063616c6c6572206973206e6f7420746865206f776e65726044820152fd5b600080fd5b634e487b7160e01b600052604160045260246000fd5b600080546001600160a01b039283166001600160a01b03198216811783559216907f8be0079c531659141344cd1fd0a4f28419497f9722a3daafe3b4186f6b6457e09080a356fe6080604052600436101561001257600080fd5b60003560e01c8063715018a61461052a5780638da5cb5b146105015780639593720c146104a7578063aea9107814610293578063e81668fc1461012a5763f2fde38b1461005e57600080fd5b3461012557602036600319011261012557610077610583565b61007f6105d2565b6001600160a01b031680156100d157600080546001600160a01b03198116831782556001600160a01b0316907f8be0079c531659141344cd1fd0a4f28419497f9722a3daafe3b4186f6b6457e09080a3005b60405162461bcd60e51b815260206004820152602660248201527f4f776e61626c653a206e6577206f776e657220697320746865207a65726f206160448201526564647265737360d01b6064820152608490fd5b600080fd5b3461012557608036600319011261012557610143610583565b6024356001600160a01b0381169190829003610125576064359060ff8216809203610125576101706105d2565b60405163313ce56760e01b81528290602081600481885afa6000918161024b575b5061022b575b505060405192606084019284841067ffffffffffffffff8511176102155760019360405284526020840190815260408401916044358352838060a01b03166000528260205260ff60406000209451168454916101008560a81b03905160081b16916affffffffffffffffffffff60a81b161717835551910155600080f35b634e487b7160e01b600052604160045260246000fd5b60ff160361023a578184610197565b630d917f2f60e21b60005260046000fd5b9092506020813d60201161028b575b8161026760209383610599565b8101031261028757519060ff821682036102845750839186610191565b80fd5b5080fd5b3d915061025a565b34610125576020366003190112610125576001600160a01b036102b4610583565b1660005260016020526040600020805490600160ff818060a01b038460081c169316910154821561049657600183146104855760a060049360405194858092633fabe5a360e21b82525afa908115610479576000938492610422575b50810180911161036657421161041157600082126103cd57818160121160001461037c575060120360128111610366576103499061062a565b90818102918183041490151715610366576020905b604051908152f35b634e487b7160e01b600052601160045260246000fd5b919080601210610391575b506020915061035e565b601119810191508111610366576103a79061062a565b80156103b7576020910482610387565b634e487b7160e01b600052601260045260246000fd5b606460405162461bcd60e51b815260206004820152602060248201527f53616665436173743a2076616c7565206d75737420626520706f7369746976656044820152fd5b630cd5fa0760e11b60005260046000fd5b9390915060a0843d60a011610471575b8161043f60a09383610599565b810103126102845750610451836105bb565b5060208301516104686080606086015195016105bb565b50929084610310565b3d9150610432565b6040513d6000823e3d90fd5b630280e1e560e61b60005260046000fd5b63d92e233d60e01b60005260046000fd5b34610125576020366003190112610125576001600160a01b036104c8610583565b16600052600160205260606040600020600181549101546040519160ff8116835260018060a01b039060081c1660208301526040820152f35b34610125576000366003190112610125576000546040516001600160a01b039091168152602090f35b34610125576000366003190112610125576105436105d2565b600080546001600160a01b0319811682556001600160a01b03167f8be0079c531659141344cd1fd0a4f28419497f9722a3daafe3b4186f6b6457e08280a3005b600435906001600160a01b038216820361012557565b90601f8019910116810190811067ffffffffffffffff82111761021557604052565b519069ffffffffffffffffffff8216820361012557565b6000546001600160a01b031633036105e657565b606460405162461bcd60e51b815260206004820152602060248201527f4f776e61626c653a2063616c6c6572206973206e6f7420746865206f776e65726044820152fd5b604d811161036657600a0a9056fea26469706673582212204fe649d5841460aea526a742fbc1d11d8819da5dfe2c2a189d9b6e022aee121964736f6c634300081b0033","abi":[{"inputs":[{"internalType":"address","name":"initialOwner","type":"address"}],"stateMutability":"nonpayable","type":"constructor"},{"inputs":[],"name":"DefaultValueRequired","type":"error"},{"inputs":[],"name":"Inconsistency","type":"error"},{"inputs":[],"name":"InsufficientBalance","type":"error"},{"inputs":[],"name":"NotSupported","type":"error"},{"inputs":[],"name":"RouterNotWhitelisted","type":"error"},{"inputs":[],"name":"SlippageTooHigh","type":"error"},{"inputs":[],"name":"StalePrice","type":"error"},{"inputs":[],"name":"Unauthorized","type":"error"},{"inputs":[],"name":"ZeroAddress","type":"error"},{"inputs":[],"name":"ZeroAmount","type":"error"},{"anonymous":false,"inputs":[{"indexed":true,"internalType":"address","name":"previousOwner","type":"address"},{"indexed":true,"internalType":"address","name":"newOwner","type":"address"}],"name":"OwnershipTransferred","type":"event"},{"inputs":[{"internalType":"address","name":"asset","type":"address"},{"internalType":"address","name":"feedAddress","type":"address"},{"internalType":"uint256","name":"maxStaleness","type":"uint256"},{"internalType":"uint8","name":"decimals","type":"uint8"}],"name":"addFeed","outputs":[],"stateMutability":"nonpayable","type":"function"},{"inputs":[],"name":"owner","outputs":[{"internalType":"address","name":"","type":"address"}],"stateMutability":"view","type":"function"},{"inputs":[{"internalType":"address","name":"asset","type":"address"}],"name":"price","outputs":[{"internalType":"uint256","name":"","type":"uint256"}],"stateMutability":"view","type":"function"},{"inputs":[],"name":"renounceOwnership","outputs":[],"stateMutability":"nonpayable","type":"function"},{"inputs":[{"internalType":"address","name":"","type":"address"}],"name":"tokenToFeed","outputs":[{"internalType":"uint8","name":"decimals","type":"uint8"},{"internalType":"address","name":"feedAddress","type":"address"},{"internalType":"uint256","name":"maxStaleness","type":"uint256"}],"stateMutability":"view","type":"function"},{"inputs":[{"internalType":"address","name":"newOwner","type":"address"}],"name":"transferOwnership","outputs":[],"stateMutability":"nonpayable","type":"function"}]}