{"address":"0x0A7383cc00E2b886a65e024CD1B3dC99A601B858","bytecode":"0x60806040523461002f576100196100146100fa565b61011b565b610021610034565b61123661025f823961123690f35b61003a565b60405190565b600080fd5b601f801991011690565b634e487b7160e01b600052604160045260246000fd5b906100699061003f565b810190811060018060401b0382111761008157604052565b610049565b90610099610092610034565b928361005f565b565b600080fd5b60018060a01b031690565b6100b4906100a0565b90565b6100c0816100ab565b036100c757565b600080fd5b905051906100d9826100b7565b565b906020828203126100f5576100f2916000016100cc565b90565b61009b565b6101186114958038038061010d81610086565b9283398101906100db565b90565b50610124610126565b565b61013661013161013d565b6101fd565b565b600090565b610145610138565b503390565b60001c90565b60018060a01b031690565b61016761016c9161014a565b610150565b90565b610179905461015b565b90565b60001b90565b9061019360018060a01b039161017c565b9181191691161790565b90565b6101b46101af6101b9926100a0565b61019d565b6100a0565b90565b6101c5906101a0565b90565b6101d1906101bc565b90565b90565b906101ec6101e76101f3926101c8565b6101d4565b8254610182565b9055565b60000190565b610207600061016f565b6102128260006101d7565b906102466102407f8be0079c531659141344cd1fd0a4f28419497f9722a3daafe3b4186f6b6457e0936101c8565b916101c8565b9161024f610034565b80610259816101f7565b0390a356fe60806040526004361015610013575b610465565b61001e60003561007d565b8063715018a6146100785780638da5cb5b146100735780639593720c1461006e578063aea9107814610069578063e81668fc146100645763f2fde38b0361000e57610432565b6103fb565b610337565b6102e9565b610116565b6100a9565b60e01c90565b60405190565b600080fd5b600080fd5b600091031261009e57565b61008e565b60000190565b346100d7576100b9366004610093565b6100c16104bb565b6100c9610083565b806100d3816100a3565b0390f35b610089565b60018060a01b031690565b6100f0906100dc565b90565b6100fc906100e7565b9052565b9190610114906000602085019401906100f3565b565b3461014657610126366004610093565b6101426101316104eb565b610139610083565b91829182610100565b0390f35b610089565b610154816100e7565b0361015b57565b600080fd5b9050359061016d8261014b565b565b906020828203126101895761018691600001610160565b90565b61008e565b90565b6101a56101a06101aa926100dc565b61018e565b6100dc565b90565b6101b690610191565b90565b6101c2906101ad565b90565b906101cf906101b9565b600052602052604060002090565b60001c90565b60ff1690565b6101f56101fa916101dd565b6101e3565b90565b61020790546101e9565b90565b60081c90565b60018060a01b031690565b61022761022c9161020a565b610210565b90565b610239905461021b565b90565b90565b61024b610250916101dd565b61023c565b90565b61025d905461023f565b90565b61026b9060016101c5565b610277600082016101fd565b9161029060016102896000850161022f565b9301610253565b90565b60ff1690565b6102a290610293565b9052565b90565b6102b2906102a6565b9052565b6040906102e06102e794969593966102d660608401986000850190610299565b60208301906100f3565b01906102a9565b565b3461031c576103186103046102ff36600461016f565b610260565b61030f939193610083565b938493846102b6565b0390f35b610089565b9190610335906000602085019401906102a9565b565b346103675761036361035261034d36600461016f565b61085d565b61035a610083565b91829182610321565b0390f35b610089565b610375816102a6565b0361037c57565b600080fd5b9050359061038e8261036c565b565b61039981610293565b036103a057565b600080fd5b905035906103b282610390565b565b6080818303126103f6576103cb8260008301610160565b926103f36103dc8460208501610160565b936103ea8160408601610381565b936060016103a5565b90565b61008e565b3461042d5761041761040e3660046103b4565b92919091610d7c565b61041f610083565b80610429816100a3565b0390f35b610089565b346104605761044a61044536600461016f565b610e78565b610452610083565b8061045c816100a3565b0390f35b610089565b600080fd5b610472610f06565b61047a6104a7565b565b90565b61049361048e6104989261047c565b61018e565b6100dc565b90565b6104a49061047f565b90565b6104b96104b4600061049b565b610f6d565b565b6104c361046a565b565b600090565b6104d66104db916101dd565b610210565b90565b6104e890546104ca565b90565b6104f36104c5565b506104fe60006104de565b90565b600090565b90565b60209181520190565b60007f4173736574206e6f7420617661696c61626c6500000000000000000000000000910152565b6105476013602092610509565b61055081610512565b0190565b61056a906020810190600081830391015261053a565b90565b1561057457565b61057c610083565b62461bcd60e51b81528061059260048201610554565b0390fd5b600190565b60007f4669786564207072696365206665656473206e6f7420737570706f7274656400910152565b6105d0601f602092610509565b6105d98161059b565b0190565b6105f390602081019060008183039101526105c3565b90565b156105fd57565b610605610083565b62461bcd60e51b81528061061b600482016105dd565b0390fd5b61062890610191565b90565b6106349061061f565b90565b610640906101ad565b90565b601f801991011690565b634e487b7160e01b600052604160045260246000fd5b9061066d90610643565b810190811067ffffffffffffffff82111761068757604052565b61064d565b60e01b90565b69ffffffffffffffffffff1690565b6106aa81610692565b036106b157565b600080fd5b905051906106c3826106a1565b565b90565b6106d1816106c5565b036106d857565b600080fd5b905051906106ea826106c8565b565b905051906106f98261036c565b565b919060a08382031261074d5761071481600085016106b6565b9261072282602083016106dd565b9261074a61073384604085016106ec565b9361074181606086016106ec565b936080016106b6565b90565b61008e565b61075a610083565b3d6000823e3d90fd5b634e487b7160e01b600052601160045260246000fd5b61078861078e919392936102a6565b926102a6565b820180921161079957565b610763565b60007f4f7261636c6520707269636520746f6f206f6c64000000000000000000000000910152565b6107d36014602092610509565b6107dc8161079e565b0190565b6107f690602081019060008183039101526107c6565b90565b1561080057565b610808610083565b62461bcd60e51b81528061081e600482016107e0565b0390fd5b90565b61083961083461083e92610822565b61018e565b6102a6565b90565b61085561085061085a92610293565b61018e565b6102a6565b90565b6108746108799161086c610501565b5060016101c5565b610506565b6108856000820161022f565b9061091460a06108fe6108f96108a960016108a2600088016101fd565b9601610253565b956108d0816108c96108c36108be600061049b565b6100e7565b916100e7565b141561056d565b6108f4816108ed6108e76108e2610596565b6100e7565b916100e7565b14156105f6565b61062b565b610637565b63feaf968c9061090c610083565b93849261068c565b82528180610924600482016100a3565b03915afa9081156109ce5761098d936109739260008080809592505091610990575b5061096e916109559193610779565b610967610961426102a6565b916102a6565b10156107f9565b611089565b906109876109816012610825565b91610841565b9161116a565b90565b61096e92935061095591506109bb9060a03d81116109c7575b6109b38183610663565b8101906106fb565b50959450509150610946565b503d6109a9565b610752565b906109e79392916109e2610f06565b610c85565b565b905051906109f682610390565b565b90602082820312610a1257610a0f916000016109e9565b90565b61008e565b60207f20646563696d616c730000000000000000000000000000000000000000000000917f496e70757420646563696d616c7320646f206e6f74206d61746368206665656460008201520152565b610a726029604092610509565b610a7b81610a17565b0190565b610a959060208101906000818303910152610a65565b90565b15610a9f57565b610aa7610083565b62461bcd60e51b815280610abd60048201610a7f565b0390fd5b90610ad4610acd610083565b9283610663565b565b610ae06060610ac1565b90565b90610aed90610293565b9052565b90610afb906100e7565b9052565b90610b09906102a6565b9052565b610b179051610293565b90565b60001b90565b90610b2c60ff91610b1a565b9181191691161790565b610b4a610b45610b4f92610293565b61018e565b610293565b90565b90565b90610b6a610b65610b7192610b36565b610b52565b8254610b20565b9055565b610b7f90516100e7565b90565b60081b90565b90610b9b610100600160a81b0391610b82565b9181191691161790565b90565b90610bbd610bb8610bc4926101b9565b610ba5565b8254610b88565b9055565b610bd290516102a6565b90565b90610be260001991610b1a565b9181191691161790565b610c00610bfb610c05926102a6565b61018e565b6102a6565b90565b90565b90610c20610c1b610c2792610bec565b610c08565b8254610bd5565b9055565b90610c7160406001610c7794610c5060008201610c4a60008801610b0d565b90610b55565b610c6960008201610c6360208801610b75565b90610ba8565b019201610bc8565b90610c0b565b565b90610c8391610c2b565b565b610d18610d1f9293610d0f610d2496610cc06020610caa610ca58a61062b565b610637565b63313ce56790610cb8610083565b93849261068c565b82528180610cd0600482016100a3565b03915afa8091600092610d4c575b5015600014610d2b57506001610d26575b5b95610d06610cfc610ad6565b9760008901610ae3565b60208701610af1565b60408501610aff565b60016101c5565b610c79565b565b610cef565b610d4790610d41610d3b84610293565b91610293565b14610a98565b610cf0565b610d6e91925060203d8111610d75575b610d668183610663565b8101906109f8565b9038610cde565b503d610d5c565b90610d889392916109d3565b565b610d9b90610d96610f06565b610e47565b565b60207f6464726573730000000000000000000000000000000000000000000000000000917f4f776e61626c653a206e6577206f776e657220697320746865207a65726f206160008201520152565b610df86026604092610509565b610e0181610d9d565b0190565b610e1b9060208101906000818303910152610deb565b90565b15610e2557565b610e2d610083565b62461bcd60e51b815280610e4360048201610e05565b0390fd5b610e7690610e7181610e6a610e64610e5f600061049b565b6100e7565b916100e7565b1415610e1e565b610f6d565b565b610e8190610d8a565b565b60007f4f776e61626c653a2063616c6c6572206973206e6f7420746865206f776e6572910152565b610eb760208092610509565b610ec081610e83565b0190565b610eda9060208101906000818303910152610eab565b90565b15610ee457565b610eec610083565b62461bcd60e51b815280610f0260048201610ec4565b0390fd5b610f30610f116104eb565b610f2a610f24610f1f6111f3565b6100e7565b916100e7565b14610edd565b565b90610f4360018060a01b0391610b1a565b9181191691161790565b90610f62610f5d610f69926101b9565b610ba5565b8254610f32565b9055565b610f7760006104de565b610f82826000610f4d565b90610fb6610fb07f8be0079c531659141344cd1fd0a4f28419497f9722a3daafe3b4186f6b6457e0936101b9565b916101b9565b91610fbf610083565b80610fc9816100a3565b0390a3565b610fe2610fdd610fe79261047c565b61018e565b6106c5565b90565b60007f53616665436173743a2076616c7565206d75737420626520706f736974697665910152565b61101e60208092610509565b61102781610fea565b0190565b6110419060208101906000818303910152611012565b90565b1561104b57565b611053610083565b62461bcd60e51b8152806110696004820161102b565b0390fd5b61108161107c611086926106c5565b61018e565b6102a6565b90565b6110b990611095610501565b506110b4816110ad6110a76000610fce565b916106c5565b1215611044565b61106d565b90565b6110cb6110d1919392936102a6565b926102a6565b82039182116110dc57565b610763565b6110ea906102a6565b604d81116110f857600a0a90565b610763565b634e487b7160e01b600052601260045260246000fd5b61111f611125916102a6565b916102a6565b908115611130570490565b6110fd565b61114461114a919392936102a6565b926102a6565b916111568382026102a6565b92818404149015171561116557565b610763565b91611173610501565b5081611187611181836102a6565b916102a6565b116000146111af576111a06111a5916111ab94936110bc565b6110e1565b90611135565b5b90565b90806111c36111bd846102a6565b916102a6565b106111d0575b50506111ac565b6111e16111e6916111ec94936110bc565b6110e1565b90611113565b38806111c9565b6111fb6104c5565b50339056fea26469706673582212201793fd98a683886999cdb9148200c6fc807dd54fe1bc2034b4e8c1acec35984c64736f6c634300081b0033","abi":[{"inputs":[{"internalType":"address","name":"initialOwner","type":"address"}],"stateMutability":"nonpayable","type":"constructor"},{"anonymous":false,"inputs":[{"indexed":true,"internalType":"address","name":"previousOwner","type":"address"},{"indexed":true,"internalType":"address","name":"newOwner","type":"address"}],"name":"OwnershipTransferred","type":"event"},{"inputs":[{"internalType":"address","name":"asset","type":"address"},{"internalType":"address","name":"feedAddress","type":"address"},{"internalType":"uint256","name":"maxStaleness","type":"uint256"},{"internalType":"uint8","name":"decimals","type":"uint8"}],"name":"addFeed","outputs":[],"stateMutability":"nonpayable","type":"function"},{"inputs":[],"name":"owner","outputs":[{"internalType":"address","name":"","type":"address"}],"stateMutability":"view","type":"function"},{"inputs":[{"internalType":"address","name":"asset","type":"address"}],"name":"price","outputs":[{"internalType":"uint256","name":"","type":"uint256"}],"stateMutability":"view","type":"function"},{"inputs":[],"name":"renounceOwnership","outputs":[],"stateMutability":"nonpayable","type":"function"},{"inputs":[{"internalType":"address","name":"","type":"address"}],"name":"tokenToFeed","outputs":[{"internalType":"uint8","name":"decimals","type":"uint8"},{"internalType":"address","name":"feedAddress","type":"address"},{"internalType":"uint256","name":"maxStaleness","type":"uint256"}],"stateMutability":"view","type":"function"},{"inputs":[{"internalType":"address","name":"newOwner","type":"address"}],"name":"transferOwnership","outputs":[],"stateMutability":"nonpayable","type":"function"}]}