{"address":"0x6ae08082387AaBcA74830054B1f3ba8a0571F9c6","bytecode":"0x60a0604052346100435761001d61001461025a565b939290926102a5565b610025610048565b610ef961067482396080518181816102180152610d1d0152610ef990f35b61004e565b60405190565b600080fd5b601f801991011690565b634e487b7160e01b600052604160045260246000fd5b9061007d90610053565b810190811060018060401b0382111761009557604052565b61005d565b906100ad6100a6610048565b9283610073565b565b600080fd5b600080fd5b60018060a01b031690565b6100cd906100b9565b90565b6100d9816100c4565b036100e057565b600080fd5b905051906100f2826100d0565b565b600080fd5b600080fd5b60018060401b03811161011a57610116602091610053565b0190565b61005d565b60005b838110610133575050906000910152565b806020918301518185015201610122565b90929192610159610154826100fe565b61009a565b93818552602085019082840111610175576101739261011f565b565b6100f9565b9080601f830112156101985781602061019593519101610144565b90565b6100f4565b90565b6101a98161019d565b036101b057565b600080fd5b905051906101c2826101a0565b565b151590565b6101d2816101c4565b036101d957565b600080fd5b905051906101eb826101c9565b565b919060a0838203126102555761020681600085016100e5565b9261021482602083016100e5565b92604082015160018060401b038111610250576102368461024d92850161017a565b9361024481606086016101b5565b936080016101de565b90565b6100b4565b6100af565b61027861156d8038038061026d8161009a565b9283398101906101ed565b9091929394565b5190565b90565b90565b61029d6102986102a292610283565b610286565b61019d565b90565b906102b66102bb9295939495610330565b61035f565b6102c48261027f565b6102d76102d16000610289565b9161019d565b11908115610304575b506102ec575b50608052565b6102fd906102f861036f565b610433565b50386102e6565b9050386102e0565b7f58a6b8f109ed5c70ad37140473420d0209511d3629dc7480eab94a450067bd5f90565b61033861030c565b55565b7f24ed44ee9374370fd3aa7c8b1abf58827504c20f65246b17d2b9e7e1aef7784790565b61036761033b565b55565b600090565b61037761036a565b5061038061033b565b5490565b606090565b60018060401b0381116103a5576103a1602091610053565b0190565b61005d565b906103bc6103b783610389565b61009a565b918252565b60207f206661696c656400000000000000000000000000000000000000000000000000917f416464726573733a206c6f772d6c6576656c2064656c65676174652063616c6c60008201520152565b61041960276103aa565b90610426602083016103c1565b565b61043061040f565b90565b9061045091610440610384565b509061044a610428565b91610495565b90565b90610465610460836100fe565b61009a565b918252565b3d6000146104875761047b3d610453565b903d6000602084013e5b565b61048f610384565b90610485565b90916000806104c5946104a6610384565b508490602081019051915af4916104bb61046a565b9092909192610555565b90565b60209181520190565b60007f416464726573733a2063616c6c20746f206e6f6e2d636f6e7472616374000000910152565b610506601d6020926104c8565b61050f816104d1565b0190565b61052990602081019060008183039101526104f9565b90565b1561053357565b61053b610048565b62461bcd60e51b81528061055160048201610513565b0390fd5b919290610560610384565b506000146105a657506105728261027f565b61058561057f6000610289565b9161019d565b1461058f575b5090565b61059b6105a091610652565b61052c565b3861058b565b826105fa565b5190565b6105cf6105d86020936105dd936105c6816105ac565b938480936104c8565b9586910161011f565b610053565b0190565b6105f791602082019160008184039101526105b0565b90565b906106048261027f565b6106176106116000610289565b9161019d565b116000146106285750805190602001fd5b61064990610634610048565b91829162461bcd60e51b8352600483016105e1565b0390fd5b600090565b61065a61064d565b503b61066f6106696000610289565b9161019d565b119056fe60806040526004361015610018575b36610d9457610d87565b6100236000356100d2565b8063025313a2146100cd57806310776181146100c85780631bbd1a10146100c35780632ecaf675146100be5780632fa8ad53146100b95780635c60da1b146100b457806381ac1659146100af57806387b27951146100aa5780638b677b03146100a5578063adb3ce92146100a05763d33219b40361000e576103cd565b61039a565b610365565b610332565b6102fd565b6102c8565b610295565b610260565b6101e3565b6101b0565b610132565b60e01c90565b60405190565b600080fd5b600080fd5b60009103126100f357565b6100e3565b60018060a01b031690565b61010c906100f8565b90565b61011890610103565b9052565b91906101309060006020850194019061010f565b565b34610162576101423660046100e8565b61015e61014d61042b565b6101556100d8565b9182918261011c565b0390f35b6100de565b61017081610103565b0361017757565b600080fd5b9050359061018982610167565b565b906020828203126101a5576101a29160000161017c565b90565b6100e3565b60000190565b346101de576101c86101c336600461018b565b61053d565b6101d06100d8565b806101da816101aa565b0390f35b6100de565b34610211576101f33660046100e8565b6101fb6106e7565b6102036100d8565b8061020d816101aa565b0390f35b6100de565b7f000000000000000000000000000000000000000000000000000000000000000090565b90565b6102469061023a565b9052565b919061025e9060006020850194019061023d565b565b34610290576102703660046100e8565b61028c61027b610216565b6102836100d8565b9182918261024a565b0390f35b6100de565b346102c3576102a53660046100e8565b6102ad6107cd565b6102b56100d8565b806102bf816101aa565b0390f35b6100de565b346102f8576102d83660046100e8565b6102f46102e361081f565b6102eb6100d8565b9182918261011c565b0390f35b6100de565b3461032d5761030d3660046100e8565b610329610318610834565b6103206100d8565b9182918261011c565b0390f35b6100de565b34610360576103423660046100e8565b61034a610ad6565b6103526100d8565b8061035c816101aa565b0390f35b6100de565b34610395576103753660046100e8565b610391610380610bc0565b6103886100d8565b9182918261011c565b0390f35b6100de565b346103c8576103b26103ad36600461018b565b610ce0565b6103ba6100d8565b806103c4816101aa565b0390f35b6100de565b346103fd576103dd3660046100e8565b6103f96103e8610d72565b6103f06100d8565b9182918261024a565b0390f35b6100de565b600090565b7f58a6b8f109ed5c70ad37140473420d0209511d3629dc7480eab94a450067bd5f90565b610433610402565b5061043c610407565b5490565b60209181520190565b60407f6f776e65722e0000000000000000000000000000000000000000000000000000917f557067726164656162696c69747950726f78793a206f6e6c792063757272656e60008201527f742070726f7879206f776e65722063616e20736574206e65772070726f78792060208201520152565b6104ca6046606092610440565b6104d381610449565b0190565b6104ed90602081019060008183039101526104bd565b90565b156104f757565b6104ff6100d8565b62461bcd60e51b815280610515600482016104d7565b0390fd5b7f089a30daf7a7609a193f76c173c735bdd3fb300b4d9b7c61ea0c4395e0b20cf690565b6105603361055a61055461054f61042b565b610103565b91610103565b146104f0565b610568610519565b55565b601f801991011690565b634e487b7160e01b600052604160045260246000fd5b906105959061056b565b810190811067ffffffffffffffff8211176105af57604052565b610575565b906105c76105c06100d8565b928361058b565b565b67ffffffffffffffff81116105e7576105e360209161056b565b0190565b610575565b906105fe6105f9836105c9565b6105b4565b918252565b60007f626c6f636b2e74696d657374616d703a00000000000000000000000000000000910152565b61063560106105ec565b9061064260208301610603565b565b61064c61062b565b90565b60007f626c6f636b2e6e756d6265723a00000000000000000000000000000000000000910152565b610681600d6105ec565b9061068e6020830161064f565b565b610698610677565b90565b60007f74696d656c6f636b3a0000000000000000000000000000000000000000000000910152565b6106cd60096105ec565b906106da6020830161069b565b565b6106e46106c3565b90565b6106f8426106f3610644565b610dc8565b61070943610704610690565b610dc8565b610721610714610d72565b61071c6106dc565b610dc8565b565b60207f6e65722063616e207472616e73666572206f776e6572736869702e0000000000917f557067726164656162696c69747950726f78793a206f6e6c79206e6577206f7760008201520152565b61077e603b604092610440565b61078781610723565b0190565b6107a19060208101906000818303910152610771565b90565b156107ab57565b6107b36100d8565b62461bcd60e51b8152806107c96004820161078b565b0390fd5b6107f96107d8610834565b6107f4336107ee6107e884610103565b91610103565b146107a4565b610e0a565b565b7f24ed44ee9374370fd3aa7c8b1abf58827504c20f65246b17d2b9e7e1aef7784790565b610827610402565b506108306107fb565b5490565b61083c610402565b50610845610519565b5490565b60407f6e2e000000000000000000000000000000000000000000000000000000000000917f557067726164656162696c69747950726f78793a206f6e6c792070726f78792060008201527f6f776e65722063616e207472616e7366657220696d706c656d656e746174696f60208201520152565b6108ca6042606092610440565b6108d381610849565b0190565b6108ed90602081019060008183039101526108bd565b90565b156108f757565b6108ff6100d8565b62461bcd60e51b815280610915600482016108d7565b0390fd5b905090565b60407f2074696d653a2000000000000000000000000000000000000000000000000000917f557067726164656162696c69747950726f78793a2063616e6e6f74207472616e60008201527f7366657220696d706c656d656e746174696f6e207965742e2043757272656e7460208201520152565b61099e60478092610919565b6109a78161091e565b0190565b90565b6109ba6109bf9161023a565b6109ab565b9052565b60007f2c2052657175697265642074696d653a20000000000000000000000000000000910152565b6109f760118092610919565b610a00816109c3565b0190565b610a286020809493610a22610a1b610a2f95610992565b80926109ae565b016109eb565b80926109ae565b0190565b90565b5190565b60005b838110610a4e575050906000910152565b806020918301518185015201610a3d565b610a7e610a87602093610a8c93610a7581610a36565b93848093610440565b95869101610a3a565b61056b565b0190565b610aa69160208201916000818403910152610a5f565b90565b15610ab15750565b610ad290610abd6100d8565b91829162461bcd60e51b835260048301610a90565b0390fd5b610ade6106e7565b610b0133610afb610af5610af061042b565b610103565b91610103565b146108f0565b610b19610b0c610d72565b610b146106dc565b610dc8565b610b2a42610b25610644565b610dc8565b610b8a42610b47610b41610b3c610d72565b61023a565b9161023a565b1015610b8442610b7f610b58610d72565b91610b70610b646100d8565b93849260208401610a04565b6020820181038252038261058b565b610a33565b90610aa9565b610b9a610b95610bc0565b610e15565b565b7f762ff5225469654ad30beda02ad3106fbdd38c4bff827c9426bf649d95ed7e1d90565b610bc8610402565b50610bd1610b9c565b5490565b60407f656e746174696f6e2e0000000000000000000000000000000000000000000000917f557067726164656162696c69747950726f78793a206f6e6c792063757272656e60008201527f742070726f7879206f776e65722063616e20736574206e657720696d706c656d60208201520152565b610c566049606092610440565b610c5f81610bd5565b0190565b610c799060208101906000818303910152610c49565b90565b15610c8357565b610c8b6100d8565b62461bcd60e51b815280610ca160048201610c63565b0390fd5b634e487b7160e01b600052601160045260246000fd5b610cca610cd09193929361023a565b9261023a565b8201809211610cdb57565b610ca5565b610ce86106e7565b610d0b33610d05610cff610cfa61042b565b610103565b91610103565b14610c7c565b610d13610b9c565b55610d47610d42427f000000000000000000000000000000000000000000000000000000000000000090610cbb565b610e20565b565b600090565b7fbc70700c0bb41e729f3b16a22511bc61a02ceaa6d1f98256bf8f5df4fa51e7a990565b610d7a610d49565b50610d83610d4e565b5490565b610d8f61081f565b610e2b565b610d9c61081f565b610e2b565b92916020610dbe610dc69360408701908782036000890152610a5f565b94019061023d565b565b90610e03610e0892610df4610ddb6100d8565b938492600460208501632d839cb360e21b815201610da1565b6020820181038252038261058b565b610e4e565b565b610e12610407565b55565b610e1d6107fb565b55565b610e28610d4e565b55565b60008091368280378136915af43d6000803e600014610e49573d6000f35b3d6000fd5b610e6190610e5c6001610e8f565b610eb1565b565b6a636f6e736f6c652e6c6f6790565b60008091610e7e610e63565b602082519201905afa50565b600090565b610e97610e8a565b5090565b634e487b7160e01b600052605160045260246000fd5b600103610e9b57610ec190610e72565b56fea26469706673582212205b9a6aeade4b8a121f10d05c280e44c0b1d5476ed7d0625954c3ea22d5437d7864736f6c634300081b0033","abi":[{"inputs":[{"internalType":"address","name":"_proxyOwner","type":"address"},{"internalType":"address","name":"_implementation","type":"address"},{"internalType":"bytes","name":"initializationData","type":"bytes"},{"internalType":"uint256","name":"_timelockPeriod","type":"uint256"},{"internalType":"bool","name":"forceCall","type":"bool"}],"stateMutability":"nonpayable","type":"constructor"},{"stateMutability":"payable","type":"fallback"},{"inputs":[],"name":"implementation","outputs":[{"internalType":"address","name":"_implementation","type":"address"}],"stateMutability":"view","type":"function"},{"inputs":[],"name":"newImplementation","outputs":[{"internalType":"address","name":"_newImplementation","type":"address"}],"stateMutability":"view","type":"function"},{"inputs":[],"name":"newProxyOwner","outputs":[{"internalType":"address","name":"_newProxyOwner","type":"address"}],"stateMutability":"view","type":"function"},{"inputs":[],"name":"printChainState","outputs":[],"stateMutability":"view","type":"function"},{"inputs":[],"name":"proxyOwner","outputs":[{"internalType":"address","name":"_proxyOwner","type":"address"}],"stateMutability":"view","type":"function"},{"inputs":[{"internalType":"address","name":"_newImplementation","type":"address"}],"name":"setNewImplementation","outputs":[],"stateMutability":"nonpayable","type":"function"},{"inputs":[{"internalType":"address","name":"_newProxyOwner","type":"address"}],"name":"setNewProxyOwner","outputs":[],"stateMutability":"nonpayable","type":"function"},{"inputs":[],"name":"timelock","outputs":[{"internalType":"uint256","name":"_timelock","type":"uint256"}],"stateMutability":"view","type":"function"},{"inputs":[],"name":"timelockPeriod","outputs":[{"internalType":"uint256","name":"","type":"uint256"}],"stateMutability":"view","type":"function"},{"inputs":[],"name":"transferImplementation","outputs":[],"stateMutability":"nonpayable","type":"function"},{"inputs":[],"name":"transferProxyOwnership","outputs":[],"stateMutability":"nonpayable","type":"function"},{"stateMutability":"payable","type":"receive"}]}