{"address":"0x6ae08082387AaBcA74830054B1f3ba8a0571F9c6","bytecode":"0x60a0604052346101af57610c7180380380610019816101b4565b928339810160a0828203126101af57610031826101ef565b61003d602084016101ef565b60408401516001600160401b0381116101af5784019183601f840112156101af5782519261007261006d85610203565b6101b4565b938085526020850195602082840101116101af57856020610093930161021e565b608060608601519501519081151582036101af577f58a6b8f109ed5c70ad37140473420d0209511d3629dc7480eab94a450067bd5f55817f24ed44ee9374370fd3aa7c8b1abf58827504c20f65246b17d2b9e7e1aef7784755825115908115916101a7575b50610121575b8360805260405161097c90816102f5823960805181818161022301526106110152f35b6000806101969461013260606101b4565b94602786527f416464726573733a206c6f772d6c6576656c2064656c65676174652063616c6c6020870152660819985a5b195960ca1b60408701525190845af43d1561019f573d9161018661006d84610203565b9283523d6000602085013e610241565b503880806100fe565b606091610241565b9050386100f8565b600080fd5b6040519190601f01601f191682016001600160401b038111838210176101d957604052565b634e487b7160e01b600052604160045260246000fd5b51906001600160a01b03821682036101af57565b6001600160401b0381116101d957601f01601f191660200190565b60005b8381106102315750506000910152565b8181015183820152602001610221565b919290156102a35750815115610255575090565b3b1561025e5790565b60405162461bcd60e51b815260206004820152601d60248201527f416464726573733a2063616c6c20746f206e6f6e2d636f6e74726163740000006044820152606490fd5b8251909150156102b65750805190602001fd5b6044604051809262461bcd60e51b8252602060048301526102e6815180928160248601526020868601910161021e565b601f01601f19168101030190fdfe60806040526004361015610018575b3661086c5761086c565b60003560e01c8063025313a2146100c857806310776181146100c35780631bbd1a10146100be5780632ecaf675146100b95780632fa8ad53146100b45780635c60da1b146100af57806381ac1659146100aa57806387b27951146100a55780638b677b03146100a0578063adb3ce921461009b5763d33219b40361000e576106c5565b6105b2565b61056a565b610396565b61034e565b610306565b610246565b61020b565b6101f0565b610125565b346100fe5760003660031901126100fe57600080516020610927833981519152546040516001600160a01b039091168152602090f35b600080fd5b60209060031901126100fe576004356001600160a01b03811681036100fe5790565b346100fe5761013336610103565b600080516020610927833981519152546001600160a01b03163303610176577f089a30daf7a7609a193f76c173c735bdd3fb300b4d9b7c61ea0c4395e0b20cf655005b60405162461bcd60e51b815260206004820152604660248201527f557067726164656162696c69747950726f78793a206f6e6c792063757272656e60448201527f742070726f7879206f776e65722063616e20736574206e65772070726f78792060648201526537bbb732b91760d11b608482015260a490fd5b346100fe5760003660031901126100fe5761020961077d565b005b346100fe5760003660031901126100fe5760206040517f00000000000000000000000000000000000000000000000000000000000000008152f35b346100fe5760003660031901126100fe577f089a30daf7a7609a193f76c173c735bdd3fb300b4d9b7c61ea0c4395e0b20cf6546001600160a01b038116330361029b5760008051602061092783398151915255005b60405162461bcd60e51b815260206004820152603b60248201527f557067726164656162696c69747950726f78793a206f6e6c79206e6577206f7760448201527f6e65722063616e207472616e73666572206f776e6572736869702e00000000006064820152608490fd5b346100fe5760003660031901126100fe577f24ed44ee9374370fd3aa7c8b1abf58827504c20f65246b17d2b9e7e1aef77847546040516001600160a01b039091168152602090f35b346100fe5760003660031901126100fe577f089a30daf7a7609a193f76c173c735bdd3fb300b4d9b7c61ea0c4395e0b20cf6546040516001600160a01b039091168152602090f35b346100fe5760003660031901126100fe576103af61077d565b600080516020610927833981519152546001600160a01b031633036104f4576104ab600080516020610907833981519152546103f2816103ed610756565b6108ae565b6103fe426103ed610728565b604051906104a38261049583426020840190916098927f557067726164656162696c69747950726f78793a2063616e6e6f74207472616e83527f7366657220696d706c656d656e746174696f6e207965742e2043757272656e746020840152660103a34b6b29d160cd1b6040840152604783015270016102932b8bab4b932b2103a34b6b29d1607d1b606783015260788201520190565b03601f1981018452836106f0565b421015610819565b6102097f762ff5225469654ad30beda02ad3106fbdd38c4bff827c9426bf649d95ed7e1d547f24ed44ee9374370fd3aa7c8b1abf58827504c20f65246b17d2b9e7e1aef7784755565b60405162461bcd60e51b815260206004820152604260248201527f557067726164656162696c69747950726f78793a206f6e6c792070726f78792060448201527f6f776e65722063616e207472616e7366657220696d706c656d656e746174696f606482015261371760f11b608482015260a490fd5b346100fe5760003660031901126100fe577f762ff5225469654ad30beda02ad3106fbdd38c4bff827c9426bf649d95ed7e1d546040516001600160a01b039091168152602090f35b346100fe576105c036610103565b6105c861077d565b600080516020610927833981519152546001600160a01b03163303610648577f762ff5225469654ad30beda02ad3106fbdd38c4bff827c9426bf649d95ed7e1d556102096106367f000000000000000000000000000000000000000000000000000000000000000042610849565b60008051602061090783398151915255565b60405162461bcd60e51b815260206004820152604960248201527f557067726164656162696c69747950726f78793a206f6e6c792063757272656e60448201527f742070726f7879206f776e65722063616e20736574206e657720696d706c656d60648201526832b73a30ba34b7b71760b91b608482015260a490fd5b346100fe5760003660031901126100fe57602060008051602061090783398151915254604051908152f35b90601f8019910116810190811067ffffffffffffffff82111761071257604052565b634e487b7160e01b600052604160045260246000fd5b604051906107376040836106f0565b601082526f313637b1b5973a34b6b2b9ba30b6b81d60811b6020830152565b604051906107656040836106f0565b60098252683a34b6b2b637b1b59d60b91b6020830152565b610789426103ed610728565b6107bb60405161079a6040826106f0565b600d81526c313637b1b597373ab6b132b91d60991b602082015243906108ae565b6107d6600080516020610907833981519152546103ed610756565b565b919082519283825260005b848110610804575050826000602080949584010152601f8019910116010190565b806020809284010151828286010152016107e3565b156108215750565b60405162461bcd60e51b8152602060048201529081906108459060248301906107d8565b0390fd5b9190820180921161085657565b634e487b7160e01b600052601160045260246000fd5b6000807f24ed44ee9374370fd3aa7c8b1abf58827504c20f65246b17d2b9e7e1aef7784754368280378136915af43d6000803e156108a9573d6000f35b3d6000fd5b6000919082916108f360405180926108df6020830195632d839cb360e21b87526040602485015260648401906107d8565b90604483015203601f1981018352826106f0565b51906a636f6e736f6c652e6c6f675afa5056febc70700c0bb41e729f3b16a22511bc61a02ceaa6d1f98256bf8f5df4fa51e7a958a6b8f109ed5c70ad37140473420d0209511d3629dc7480eab94a450067bd5fa26469706673582212203fd8fd3fdf07de833e203979ff48ba74cb764904c9cd4ca5f55522e12b0fbebd64736f6c634300081b0033","abi":[{"inputs":[{"internalType":"address","name":"_proxyOwner","type":"address"},{"internalType":"address","name":"_implementation","type":"address"},{"internalType":"bytes","name":"initializationData","type":"bytes"},{"internalType":"uint256","name":"_timelockPeriod","type":"uint256"},{"internalType":"bool","name":"forceCall","type":"bool"}],"stateMutability":"nonpayable","type":"constructor"},{"stateMutability":"payable","type":"fallback"},{"inputs":[],"name":"implementation","outputs":[{"internalType":"address","name":"_implementation","type":"address"}],"stateMutability":"view","type":"function"},{"inputs":[],"name":"newImplementation","outputs":[{"internalType":"address","name":"_newImplementation","type":"address"}],"stateMutability":"view","type":"function"},{"inputs":[],"name":"newProxyOwner","outputs":[{"internalType":"address","name":"_newProxyOwner","type":"address"}],"stateMutability":"view","type":"function"},{"inputs":[],"name":"printChainState","outputs":[],"stateMutability":"view","type":"function"},{"inputs":[],"name":"proxyOwner","outputs":[{"internalType":"address","name":"_proxyOwner","type":"address"}],"stateMutability":"view","type":"function"},{"inputs":[{"internalType":"address","name":"_newImplementation","type":"address"}],"name":"setNewImplementation","outputs":[],"stateMutability":"nonpayable","type":"function"},{"inputs":[{"internalType":"address","name":"_newProxyOwner","type":"address"}],"name":"setNewProxyOwner","outputs":[],"stateMutability":"nonpayable","type":"function"},{"inputs":[],"name":"timelock","outputs":[{"internalType":"uint256","name":"_timelock","type":"uint256"}],"stateMutability":"view","type":"function"},{"inputs":[],"name":"timelockPeriod","outputs":[{"internalType":"uint256","name":"","type":"uint256"}],"stateMutability":"view","type":"function"},{"inputs":[],"name":"transferImplementation","outputs":[],"stateMutability":"nonpayable","type":"function"},{"inputs":[],"name":"transferProxyOwnership","outputs":[],"stateMutability":"nonpayable","type":"function"},{"stateMutability":"payable","type":"receive"}]}