{"address":"0x222DD7EbAEb66d0B2bA0147046C1f62B30D1b26D","bytecode":"0x60806040523461002757610011610037565b61001961002c565b615336610267823961533690f35b610032565b60405190565b600080fd5b61003f6101da565b565b60081c90565b60ff1690565b61005961005e91610041565b610047565b90565b61006b905461004d565b90565b151590565b60209181520190565b60207f616c697a696e6700000000000000000000000000000000000000000000000000917f496e697469616c697a61626c653a20636f6e747261637420697320696e69746960008201520152565b6100d76027604092610073565b6100e08161007c565b0190565b6100fa90602081019060008183039101526100ca565b90565b1561010457565b61010c61002c565b62461bcd60e51b815280610122600482016100e4565b0390fd5b60001c90565b60ff1690565b61013e61014391610126565b61012c565b90565b6101509054610132565b90565b60ff1690565b60001b90565b9061016b60ff91610159565b9181191691161790565b90565b61018c61018761019192610153565b610175565b610153565b90565b90565b906101ac6101a76101b392610178565b610194565b825461015f565b9055565b6101c090610153565b9052565b91906101d8906000602085019401906101b7565b565b6101f56101f06101ea6000610061565b1561006e565b6100fd565b6101ff6000610146565b61021261020c60ff610153565b91610153565b0361021a575b565b61022660ff6000610197565b60ff61025e7f7f26b83ff96e1f2b6a682f133852f6798a09c465da95921460cefb38474024989161025561002c565b918291826101c4565b0390a161021856fe60a06040526004361015610013575b611208565b61001e6000356101fd565b80630a789ece146101f85780630b5580a4146101f35780630c340a24146101ee57806315e6bc99146101e957806322acb867146101e45780632fd34f5f146101df5780634a3e6544146101da5780634a5e42b1146101d55780634a7fe890146101d05780634d69ee0e146101cb57806355a29e91146101c6578063578e5c22146101c157806367e4ac2c146101bc57806372cb5d97146101b757806377736ed8146101b2578063829c8db7146101ad57806396c82e57146101a85780639b68c768146101a3578063a158b3ae1461019e578063a1b2439e14610199578063abaa991614610194578063aee3fee71461018f578063b0ce3dfa1461018a578063b5c705b514610185578063b658e9f814610180578063bca678e01461017b578063c4d66de814610176578063c9339e9f14610171578063caa648b41461016c5763f11b81880361000e576111cf565b61102b565b610ff6565b610fc3565b610f8e565b610f28565b610ec7565b610e90565b610e59565b610d97565b610d61565b610d05565b610c95565b610be5565b610b54565b610b0f565b610ac1565b610a5e565b610919565b610869565b610826565b6107f1565b61071d565b6106e8565b610694565b610548565b61046a565b610407565b6103b4565b610333565b60e01c90565b60405190565b600080fd5b600080fd5b600080fd5b60018060a01b031690565b61022c90610218565b90565b61023881610223565b0361023f57565b600080fd5b905035906102518261022f565b565b9060208282031261026d5761026a91600001610244565b90565b61020e565b90565b61028961028461028e92610218565b610272565b610218565b90565b61029a90610275565b90565b6102a690610291565b90565b906102b39061029d565b600052602052604060002090565b1c90565b60018060a01b031690565b6102e09060086102e593026102c1565b6102c5565b90565b906102f391546102d0565b90565b61030d906103086007916000926102a9565b6102e8565b90565b61031990610223565b9052565b919061033190600060208501940190610310565b565b346103635761035f61034e610349366004610253565b6102f6565b610356610203565b9182918261031d565b0390f35b610209565b90565b61037481610368565b0361037b57565b600080fd5b9050359061038d8261036b565b565b906020828203126103a9576103a691600001610380565b90565b61020e565b60000190565b346103e2576103cc6103c736600461038f565b611501565b6103d4610203565b806103de816103ae565b0390f35b610209565b60009103126103f257565b61020e565b61040460026000906102e8565b90565b34610437576104173660046103e7565b6104336104226103f7565b61042a610203565b9182918261031d565b0390f35b610209565b919060408382031261046557806104596104629260008601610380565b93602001610380565b90565b61020e565b346104995761048361047d36600461043c565b90611942565b61048b610203565b80610495816103ae565b0390f35b610209565b5190565b60209181520190565b60200190565b63ffffffff1690565b6104c3906104b1565b9052565b906104d4816020936104ba565b0190565b60200190565b906104fb6104f56104ee8461049e565b80936104a2565b926104ab565b9060005b81811061050c5750505090565b90919261052561051f60019286516104c7565b946104d8565b91019190916104ff565b61054591602082019160008184039101526104de565b90565b34610578576105583660046103e7565b610574610563611b79565b61056b610203565b9182918261052f565b0390f35b610209565b600080fd5b600080fd5b600080fd5b909182601f830112156105c65781359167ffffffffffffffff83116105c15760200192602083028401116105bc57565b610587565b610582565b61057d565b909182601f830112156106055781359167ffffffffffffffff83116106005760200192602083028401116105fb57565b610587565b610582565b61057d565b909160a08284031261068f576106238360008401610244565b926106318160208501610380565b9261063f8260408301610380565b92606082013567ffffffffffffffff811161068a578361066091840161058c565b929093608082013567ffffffffffffffff81116106855761068192016105cb565b9091565b610213565b610213565b61020e565b346106c9576106b36106a736600461060a565b95949094939193611c13565b6106bb610203565b806106c5816103ae565b0390f35b610209565b6106e5906106e06009916000926102a9565b6102e8565b90565b34610718576107146107036106fe366004610253565b6106ce565b61070b610203565b9182918261031d565b0390f35b610209565b3461074b57610735610730366004610253565b612080565b61073d610203565b80610747816103ae565b0390f35b610209565b5190565b60209181520190565b60200190565b61076c90610368565b9052565b9061077d81602093610763565b0190565b60200190565b906107a461079e61079784610750565b8093610754565b9261075d565b9060005b8181106107b55750505090565b9091926107ce6107c86001928651610770565b94610781565b91019190916107a8565b6107ee9160208201916000818403910152610787565b90565b34610821576108013660046103e7565b61081d61080c6121af565b610814610203565b918291826107d8565b0390f35b610209565b346108545761083e610839366004610253565b612424565b610846610203565b80610850816103ae565b0390f35b610209565b61086660046000906102e8565b90565b34610899576108793660046103e7565b610895610884610859565b61088c610203565b9182918261031d565b0390f35b610209565b634e487b7160e01b600052603260045260246000fd5b5490565b600052602060002090565b6108cc816108b4565b8210156108e7576108de6001916108b8565b91020190600090565b61089e565b60066108f7816108b4565b821015610914576109119161090b916108c3565b906102e8565b90565b600080fd5b346109495761094561093461092f36600461038f565b6108ec565b61093c610203565b9182918261031d565b0390f35b610209565b5190565b60209181520190565b60200190565b151590565b61096f90610961565b9052565b60ff1690565b61098290610973565b9052565b61098f90610223565b9052565b906060806109db936109ad60008201516000860190610966565b6109bf60208201516020860190610979565b6109d1604082015160408601906104ba565b0151910190610986565b565b906109ea81608093610993565b0190565b60200190565b90610a11610a0b610a048461094e565b8093610952565b9261095b565b9060005b818110610a225750505090565b909192610a3b610a3560019286516109dd565b946109ee565b9101919091610a15565b610a5b91602082019160008184039101526109f4565b90565b34610a8e57610a6e3660046103e7565b610a8a610a796125da565b610a81610203565b91829182610a45565b0390f35b610209565b9190604083820312610abc5780610ab0610ab99260008601610244565b93602001610244565b90565b61020e565b34610af057610ada610ad4366004610a93565b906126bb565b610ae2610203565b80610aec816103ae565b0390f35b610209565b610b0c90610b07600a916000926102a9565b6102e8565b90565b34610b3f57610b3b610b2a610b25366004610253565b610af5565b610b32610203565b9182918261031d565b0390f35b610209565b610b5160036000906102e8565b90565b34610b8457610b643660046103e7565b610b80610b6f610b44565b610b77610203565b9182918261031d565b0390f35b610209565b90565b610b9c906008610ba193026102c1565b610b89565b90565b90610baf9154610b8c565b90565b610bbf6001600090610ba4565b90565b610bcb90610368565b9052565b9190610be390600060208501940190610bc2565b565b34610c1557610bf53660046103e7565b610c11610c00610bb2565b610c08610203565b91829182610bcf565b0390f35b610209565b610c2381610961565b03610c2a57565b600080fd5b90503590610c3c82610c1a565b565b919060a083820312610c9057610c578160008501610380565b92610c658260208301610244565b92610c8d610c768460408501610244565b93610c848160608601610244565b93608001610c2f565b90565b61020e565b34610cc957610cc5610cb4610cab366004610c3e565b9392909261277c565b610cbc610203565b91829182610bcf565b0390f35b610209565b90565b610ce5610ce0610cea92610cce565b610272565b610368565b90565b610cf76001610cd1565b90565b610d02610ced565b90565b34610d3557610d153660046103e7565b610d31610d20610cfa565b610d28610203565b91829182610bcf565b0390f35b610209565b92916020610d57610d5f9360408701908782036000890152610787565b940190610bc2565b565b34610d9257610d79610d7436600461038f565b6129c9565b90610d8e610d85610203565b92839283610d3a565b0390f35b610209565b34610dc557610da73660046103e7565b610daf612d30565b610db7610203565b80610dc1816103ae565b0390f35b610209565b610dd381610973565b03610dda57565b600080fd5b90503590610dec82610dca565b565b610df7816104b1565b03610dfe57565b600080fd5b90503590610e1082610dee565b565b608081830312610e5457610e298260008301610244565b92610e51610e3a8460208501610ddf565b93610e488160408601610e03565b93606001610244565b90565b61020e565b34610e8b57610e75610e6c366004610e12565b92919091612eef565b610e7d610203565b80610e87816103ae565b0390f35b610209565b34610ec257610eac610ea3366004610e12565b929190916130ce565b610eb4610203565b80610ebe816103ae565b0390f35b610209565b34610ef557610edf610eda366004610253565b613159565b610ee7610203565b80610ef1816103ae565b0390f35b610209565b9190604083820312610f235780610f17610f209260008601610244565b93602001610380565b90565b61020e565b34610f5757610f41610f3b366004610efa565b90613201565b610f49610203565b80610f53816103ae565b0390f35b610209565b90610f669061029d565b600052602052604060002090565b610f8b90610f86600891600092610f5c565b610ba4565b90565b34610fbe57610fba610fa9610fa4366004610253565b610f74565b610fb1610203565b91829182610bcf565b0390f35b610209565b34610ff157610fdb610fd6366004610253565b613586565b610fe3610203565b80610fed816103ae565b0390f35b610209565b346110265761102261101161100c36600461038f565b6135cc565b611019610203565b918291826107d8565b0390f35b610209565b3461105b5761103b3660046103e7565b6110576110466136bd565b61104e610203565b91829182610bcf565b0390f35b610209565b9061106a9061029d565b600052602052604060002090565b60001c90565b60ff1690565b61109061109591611078565b61107e565b90565b6110a29054611084565b90565b60081c90565b60ff1690565b6110bd6110c2916110a5565b6110ab565b90565b6110cf90546110b1565b90565b60101c90565b63ffffffff1690565b6110ed6110f2916110d2565b6110d8565b90565b6110ff90546110e1565b90565b60301c90565b61111461111991611102565b6102c5565b90565b6111269054611108565b90565b611134906005611060565b9061114160008301611098565b9161114e600082016110c5565b91611166600061115f8185016110f5565b930161111c565b90565b61117290610961565b9052565b61117f90610973565b9052565b61118c906104b1565b9052565b6111c66111cd946111bc6060949897956111b2608086019a6000870190611169565b6020850190611176565b6040830190611183565b0190610310565b565b34611203576111ff6111ea6111e5366004610253565b611129565b906111f6949294610203565b94859485611190565b0390f35b610209565b600080fd5b61121961121e91611078565b6102c5565b90565b61122b905461120d565b90565b61123790610275565b90565b6112439061122e565b90565b61124f90610291565b90565b600080fd5b601f801991011690565b634e487b7160e01b600052604160045260246000fd5b9061128190611257565b810190811067ffffffffffffffff82111761129b57604052565b611261565b60e01b90565b905051906112b38261036b565b565b906020828203126112cf576112cc916000016112a6565b90565b61020e565b6112dc610203565b3d6000823e3d90fd5b60209181520190565b60207f20696e207573657227732077616c6c6574000000000000000000000000000000917f5661756c74436f72653a20696e73756666696369656e742042656e746f55534460008201520152565b61134960316040926112e5565b611352816112ee565b0190565b61136c906020810190600081830391015261133c565b90565b1561137657565b61137e610203565b62461bcd60e51b81528061139460048201611356565b0390fd5b6113a190610275565b90565b6113ad90611398565b90565b6113b990610291565b90565b60009103126113c757565b61020e565b9160206113ee9294936113e760408201966000830190610310565b0190610bc2565b565b90565b61140761140261140c926113f0565b610272565b610368565b90565b600161141b9101610368565b90565b61142790610291565b90565b9061143482610750565b811015611445576020809102010190565b61089e565b6114549051610368565b90565b60207f7320696e207661756c7400000000000000000000000000000000000000000000917f5661756c74436f72653a20696e73756666696369656e74204c5420746f6b656e60008201520152565b6114b2602a6040926112e5565b6114bb81611457565b0190565b6114d590602081019060008183039101526114a5565b90565b156114df57565b6114e7610203565b62461bcd60e51b8152806114fd600482016114bf565b0390fd5b9061150b826135cc565b91611555602061152b6115266115216003611221565b61123a565b611246565b6370a082319061154a339261153e610203565b958694859384936112a0565b83526004830161031d565b03915afa801561179c576115859160009161176e575b5061157e61157884610368565b91610368565b101561136f565b61159f61159a6115956003611221565b6113a4565b6113b0565b90639dc29fac90339092803b15611769576115ce600080946115d96115c2610203565b978896879586946112a0565b8452600484016113cc565b03925af1801561176457611737575b506115f360006113f3565b5b8061161061160a61160560066108b4565b610368565b91610368565b101561173257611640600061163a61163361162d600686906108c3565b906102e8565b6005611060565b0161111c565b9061168960206116576116528561123a565b611246565b6370a082319061167e6116693061141e565b92611672610203565b958694859384936112a0565b83526004830161031d565b03915afa801561172d576116fa936116d66116db926116f5946000916116ff575b506116cf6116c96116c46116bf8c8a9061142a565b61144a565b610368565b91610368565b10156114d8565b61123a565b336116ef6116ea88869061142a565b61144a565b916139d3565b61140f565b6115f4565b611720915060203d8111611726575b6117188183611277565b8101906112b5565b386116aa565b503d61170e565b6112d4565b509050565b6117579060003d811161175d575b61174f8183611277565b8101906113bc565b386115e8565b503d611745565b6112d4565b611252565b61178f915060203d8111611795575b6117878183611277565b8101906112b5565b3861156b565b503d61177d565b6112d4565b905090565b60207f6967682e20546f74616c2076616c75653a200000000000000000000000000000917f5661756c74436f72653a20707269636520646576696174696f6e20746f6f206860008201520152565b611800603280926117a1565b611809816117a6565b0190565b5190565b60005b838110611825575050906000910152565b806020918301518185015201611814565b61185b611852926020926118498161180d565b948580936117a1565b93849101611811565b0190565b60007f2c204d696e696d756d2072657175697265643a20000000000000000000000000910152565b611893601480926117a1565b61189c8161185f565b0190565b6118ba6118c593926118b46118bf936117f4565b90611836565b611887565b90611836565b90565b90565b6118ea6118f36020936118f8936118e18161180d565b938480936112e5565b95869101611811565b611257565b0190565b61191291602082019160008184039101526118cb565b90565b1561191d5750565b61193e90611929610203565b91829162461bcd60e51b8352600483016118fc565b0390fd5b61194b906129c9565b92909261195860006113f3565b5b8061197561196f61196a60066108b4565b610368565b91610368565b10156119cd576119c8906119c361199f61199a611994600685906108c3565b906102e8565b61123a565b336119a93061141e565b906119bd6119b88b879061142a565b61144a565b92613a51565b61140f565b611959565b5091611a34919350611a2e836119eb6119e584610368565b91610368565b1191611a29611a026119fc87613b4a565b92613b4a565b91611a1a611a0e610203565b938492602084016118a0565b60208201810382520382611277565b6118c8565b90611915565b611a4e611a49611a446003611221565b6113a4565b6113b0565b906340c10f1990339092803b15611acc57611a7d60008094611a88611a71610203565b978896879586946112a0565b8452600484016113cc565b03925af18015611ac757611a9a575b50565b611aba9060003d8111611ac0575b611ab28183611277565b8101906113bc565b38611a97565b503d611aa8565b6112d4565b611252565b606090565b90611ae9611ae2610203565b9283611277565b565b67ffffffffffffffff8111611b035760208091020190565b611261565b90611b1a611b1583611aeb565b611ad6565b918252565b369037565b90611b49611b3183611b08565b92602080611b3f8693611aeb565b9201910390611b1f565b565b90611b558261049e565b811015611b66576020809102010190565b61089e565b90611b75906104b1565b9052565b611b81611ad1565b50611b94611b8f60066108b4565b611b24565b611b9e60006113f3565b5b80611bbb611bb5611bb060066108b4565b610368565b91610368565b1015611c0f57611c0a90611c05611bf36000611bed6005611be7611be1600688906108c3565b906102e8565b90611060565b016110f5565b611c008591849092611b4b565b611b6b565b61140f565b611b9f565b5090565b91611c28969492959391909192939495613ea0565b565b60207f74696f6e00000000000000000000000000000000000000000000000000000000917f4f6e6c7920676f7665726e6f722063616e2063616c6c20746869732066756e6360008201520152565b611c8560246040926112e5565b611c8e81611c2a565b0190565b611ca89060208101906000818303910152611c78565b90565b15611cb257565b611cba610203565b62461bcd60e51b815280611cd060048201611c92565b0390fd5b611d0290611cfd33611cf7611cf1611cec6002611221565b610223565b91610223565b14611cab565b611f16565b565b60007f4173736574206973206e6f7420737570706f7274656400000000000000000000910152565b611d3960166020926112e5565b611d4281611d04565b0190565b611d5c9060208101906000818303910152611d2c565b90565b15611d6657565b611d6e610203565b62461bcd60e51b815280611d8460048201611d46565b0390fd5b611d9c611d97611da1926113f0565b610272565b6104b1565b90565b60001b90565b90611db660ff91611da4565b9181191691161790565b611dc990610961565b90565b90565b90611de4611ddf611deb92611dc0565b611dcc565b8254611daa565b9055565b634e487b7160e01b600052601160045260246000fd5b611e14611e1a91939293610368565b92610368565b8203918211611e2557565b611def565b1b90565b91906008611e4e910291611e4860018060a01b0384611e2a565b92611e2a565b9181191691161790565b90565b9190611e71611e6c611e799361029d565b611e58565b908354611e2e565b9055565b90565b634e487b7160e01b600052603160045260246000fd5b5490565b600052602060002090565b611eae81611e96565b821015611ec957611ec0600191611e9a565b91020190600090565b61089e565b600090565b611ee591611edf611ece565b91611e5b565b565b611ef081611e96565b8015611f11576001900390611f0e611f088383611ea5565b90611ed3565b55565b611e80565b611f35611f306000611f2a60058590611060565b01611098565b611d5f565b611f6081611f506000611f4a60058690611060565b016110f5565b611f5a6000611d88565b91614569565b611f78600080611f7260058590611060565b01611dcf565b611f8260006113f3565b5b80611f9f611f99611f9460066108b4565b610368565b91610368565b101561207a57611fba611fb4600683906108c3565b906102e8565b611fcc611fc684610223565b91610223565b14611fdf57611fda9061140f565b611f83565b6120259061201f612017612011600661200b611ffb60066108b4565b6120056001610cd1565b90611e05565b906108c3565b906102e8565b9160066108c3565b90611e5b565b6120376120326006611e7d565b611ee7565b5b6120627f37803e2125c48ee96c38ddf04e826daf335b0e1603579040fd275aba6d06b6fc9161029d565b9061206b610203565b80612075816103ae565b0390a2565b50612038565b61208990611cd4565b565b606090565b67ffffffffffffffff81116120a85760208091020190565b611261565b906120bf6120ba83612090565b611ad6565b918252565b369037565b906120ee6120d6836120ad565b926020806120e48693612090565b92019103906120c4565b565b6120f990610275565b90565b612105906120f0565b90565b61211190610291565b90565b9050519061212182610dca565b565b9060208282031261213d5761213a91600001612114565b90565b61020e565b90565b61215961215461215e92612142565b610272565b610368565b90565b61216a90610973565b604d811161217857600a0a90565b611def565b61218690610275565b90565b6121929061217d565b90565b61219e90610291565b90565b906121ab90610368565b9052565b6121b761208b565b506121c260066108b4565b6121cb816120c9565b916121d660006113f3565b5b806121ea6121e485610368565b91610368565b10156123655761225d90612209612203600683906108c3565b906102e8565b602061224761224261223c6000612236600561223061222a60068b906108c3565b906102e8565b90611060565b0161111c565b936120fc565b612108565b63313ce56790612255610203565b9586926112a0565b8252818061226d600482016103ae565b03915afa908115612360576122a161229c6122966020946122c897600091612333575b50612161565b92612189565b612195565b6122bd63c6e6f5926122b1610203565b968794859384936112a0565b835260048301610bcf565b03915afa91821561232e576122fb926122f691600091612300575b506122f1879184909261142a565b6121a1565b61140f565b6121d7565b612321915060203d8111612327575b6123198183611277565b8101906112b5565b386122e3565b503d61230f565b6112d4565b6123539150863d8111612359575b61234b8183611277565b810190612123565b38612290565b503d612341565b6112d4565b5091905090565b61239a906123953361238f6123896123846002611221565b610223565b91610223565b14611cab565b6123d7565b565b906123ad60018060a01b0391611da4565b9181191691161790565b906123cc6123c76123d39261029d565b611e58565b825461239c565b9055565b6123e28160046123b7565b61240c7fb12580e226e25bbb446909adeb7b42f7dd51fc77e9b58f14f321016cbd68c16a9161029d565b90612415610203565b8061241f816103ae565b0390a2565b61242d9061236c565b565b606090565b67ffffffffffffffff811161244c5760208091020190565b611261565b9061246361245e83612434565b611ad6565b918252565b6124726080611ad6565b90565b600090565b600090565b600090565b600090565b612491612468565b906020808080856124a0612475565b8152016124ab61247a565b8152016124b661247f565b8152016124c1612484565b81525050565b6124cf612489565b90565b60005b8281106124e157505050565b6020906124ec6124c7565b81840152016124d5565b9061251b61250383612451565b926020806125118693612434565b92019103906124d2565b565b906125278261094e565b811015612538576020809102010190565b61089e565b9061254790610961565b9052565b9061255590610973565b9052565b9061256390610223565b9052565b906125cc6125c36000612578612468565b9461258f612587838301611098565b83880161253d565b6125a661259d8383016110c5565b6020880161254b565b6125bd6125b48383016110f5565b60408801611b6b565b0161111c565b60608401612559565b565b6125d790612567565b90565b6125e261242f565b506125f56125f060066108b4565b6124f6565b6125ff60006113f3565b5b8061261c61261661261160066108b4565b610368565b91610368565b10156126705761266b90612664612649600561264361263d600686906108c3565b906102e8565b90611060565b8461265484926125ce565b61265e838361251d565b5261251d565b515061140f565b612600565b5090565b906126a39161269e3361269861269261268d6002611221565b610223565b91610223565b14611cab565b6126a5565b565b6126b46126b9929160096102a9565b6123b7565b565b906126c591612674565b565b600090565b6126d590610275565b90565b6126e1906126cc565b90565b6126ed90610291565b90565b90565b61270761270261270c926126f0565b610272565b610368565b90565b61271e61272491939293610368565b92610368565b91612730838202610368565b92818404149015171561273f57565b611def565b634e487b7160e01b600052601260045260246000fd5b61276661276c91610368565b91610368565b908115612777570490565b612744565b9390602061279d6127986127c7966127926126c7565b506126d8565b6126e4565b63aea91078906127bc84926127b0610203565b988994859384936112a0565b83526004830161031d565b03915afa801561298357612888956128506128619461285c9461285694602099600091612956575b50916000146128fb578161281361280d670de0b6b3a76400006126f3565b91610368565b106128d2575b612833600061282d61284b935b6005611060565b016110c5565b93612845670de0b6b3a76400006126f3565b9061270f565b61275a565b90614642565b92612189565b612195565b61287d63c6e6f592612871610203565b958694859384936112a0565b835260048301610bcf565b03915afa9081156128cd5760009161289f575b5090565b6128c0915060203d81116128c6575b6128b88183611277565b8101906112b5565b3861289b565b503d6128ae565b6112d4565b905061284b612833600061282d6128f0670de0b6b3a76400006126f3565b949350505050612819565b81612916612910670de0b6b3a76400006126f3565b91610368565b1161292d575b612833600061282d61284b93612826565b905061284b612833600061282d61294b670de0b6b3a76400006126f3565b94935050505061291c565b61297691508a3d811161297c575b61296e8183611277565b8101906112b5565b386127ef565b503d612964565b6112d4565b61299c6129976129a1926104b1565b610272565b610368565b90565b6129b36129b991939293610368565b92610368565b82018092116129c457565b611def565b6129d161208b565b506129da6126c7565b506129e560066108b4565b916129ef836120c9565b926129f9816120c9565b90612a0460006113f3565b92612a0f60006113f3565b935b84612a24612a1e85610368565b91610368565b1015612b8457612a8a90612a43612a3d600688906108c3565b906102e8565b906020612a60612a5b612a566004611221565b6126d8565b6126e4565b63aea9107890612a7f8592612a73610203565b978894859384936112a0565b83526004830161031d565b03915afa8015612b7f57612af1612b1c93612b0392612b2296600091612b51575b509081612ac8612ac2670de0b6b3a76400006126f3565b91610368565b11612b28575b612ae76000612ae1612aec936005611060565b016110f5565b612988565b61270f565b612afe8b918a909261142a565b6121a1565b612b16612b118a899061142a565b61144a565b906129a4565b9461140f565b93612a11565b9050612aec612ae76000612ae1612b46670de0b6b3a76400006126f3565b949350505050612ace565b612b72915060203d8111612b78575b612b6a8183611277565b8101906112b5565b38612aab565b503d612b60565b6112d4565b92959194909350612b9560006113f3565b93612ba060006113f3565b945b85612bb5612baf89610368565b91610368565b1015612ceb57612c16612c5491612bfd612beb612be487612bde612bd98d8c61142a565b61144a565b9061270f565b899061275a565b612bf88c918b909261142a565b6121a1565b612c10612c0b8b8a9061142a565b61144a565b906129a4565b956020612c3e612c39612c34612c2e600686906108c3565b906102e8565b6120fc565b612108565b63313ce56790612c4c610203565b9485926112a0565b82528180612c64600482016103ae565b03915afa8015612ce657612c9b612cad91612cb294600091612cb8575b50612c95612c908d869061142a565b61144a565b90614642565b612ca88b9184909261142a565b6121a1565b61140f565b94612ba2565b612cd9915060203d8111612cdf575b612cd18183611277565b810190612123565b38612c81565b503d612cc7565b6112d4565b96945094505050509190565b612d1c33612d16612d10612d0b6002611221565b610223565b91610223565b14611cab565b612d24612d26565b565b612d2e6146f9565b565b612d38612cf7565b565b90612d6b939291612d6633612d60612d5a612d556002611221565b610223565b91610223565b14611cab565b612e35565b565b60081b90565b90612d8061ff0091612d6d565b9181191691161790565b612d9e612d99612da392610973565b610272565b610973565b90565b90565b90612dbe612db9612dc592612d8a565b612da6565b8254612d73565b9055565b60301b90565b90612de76601000000000000600160d01b0391612dc9565b9181191691161790565b90612e06612e01612e0d9261029d565b611e58565b8254612dcf565b9055565b916020612e33929493612e2c60408201966000830190611176565b0190611183565b565b909192612ea990612e5b612e566000612e5060058790611060565b01611098565b611d5f565b612e7d83612e766000612e7060058890611060565b016110f5565b8791614569565b612e95846000612e8f60058790611060565b01612da9565b6000612ea360058590611060565b01612df1565b9091612ed57fd19afa6a62432ff0578526c79ab25d5e83049cfd7c7dade58cb858714dc0df039261029d565b92612eea612ee1610203565b92839283612e11565b0390a2565b90612efb939291612d3a565b565b90612f2e939291612f2933612f23612f1d612f186002611221565b610223565b91610223565b14611cab565b612fe9565b565b60007f417373657420697320616c726561647920737570706f72746564000000000000910152565b612f65601a6020926112e5565b612f6e81612f30565b0190565b612f889060208101906000818303910152612f58565b90565b15612f9257565b612f9a610203565b62461bcd60e51b815280612fb060048201612f72565b0390fd5b9081549168010000000000000000831015612fe45782612fdc916001612fe295018155611ea5565b90611e5b565b565b611261565b9091926130749061301861301361300d600061300760058890611060565b01611098565b15610961565b612f8b565b61302f836000906130298892611d88565b90614569565b6130486001600061304260058790611060565b01611dcf565b61306084600061305a60058790611060565b01612da9565b600061306e60058590611060565b01612df1565b6130886130816006611e7d565b8290612fb4565b90916130b47f62bd751f51149024e62ea3228318ca127fd1c35241bf764fba1e4b27d255e9309261029d565b926130c96130c0610203565b92839283612e11565b0390a2565b906130da939291612efd565b565b61310a90613105336130ff6130f96130f46002611221565b610223565b91610223565b14611cab565b61310c565b565b6131178160036123b7565b6131417f81b85e876e8723f9d61f238308ea004b759aee15ab163f6bd9b2cde9b20cc6189161029d565b9061314a610203565b80613154816103ae565b0390a2565b613162906130dc565b565b906131939161318e3361318861318261317d6002611221565b610223565b91610223565b14611cab565b6131eb565b565b906131a260001991611da4565b9181191691161790565b6131c06131bb6131c592610368565b610272565b610368565b90565b90565b906131e06131db6131e7926131ac565b6131c8565b8254613195565b9055565b6131fa6131ff92916008610f5c565b6131cb565b565b9061320b91613164565b565b61321961321e916110a5565b61107e565b90565b61322b905461320d565b90565b61323a61323f91611078565b6110ab565b90565b61324c905461322e565b90565b61326361325e61326892610cce565b610272565b610973565b90565b61327490610291565b90565b60207f647920696e697469616c697a6564000000000000000000000000000000000000917f496e697469616c697a61626c653a20636f6e747261637420697320616c72656160008201520152565b6132d2602e6040926112e5565b6132db81613277565b0190565b6132f590602081019060008183039101526132c5565b90565b156132ff57565b613307610203565b62461bcd60e51b81528061331d600482016132df565b0390fd5b9061333661333161333d92612d8a565b612da6565b8254611daa565b9055565b9061335661335161335d92611dc0565b611dcc565b8254612d73565b9055565b61336a9061324f565b9052565b919061338290600060208501940190613361565b565b6133d161339a6133946000613221565b15610961565b918280613483575b8015613434575b6133b2906132f8565b6133c66133bf600161324f565b6000613321565b82613423575b613553565b6133d8575b565b6133e3600080613341565b600161341b7f7f26b83ff96e1f2b6a682f133852f6798a09c465da95921460cefb384740249891613412610203565b9182918261336e565b0390a16133d6565b61342f60016000613341565b6133cc565b5061344f6134496134443061326b565b61498a565b15610961565b8061345a575b6133a9565b506133b26134686000613242565b61347b613475600161324f565b91610973565b149050613455565b5061348e6000613242565b6134a161349b600161324f565b91610973565b106133a2565b6134bb6134b66134c0926113f0565b610272565b610218565b90565b6134cc906134a7565b90565b60007f476f7665726e6f722063616e6e6f74206265207a65726f206164647265737300910152565b613504601f6020926112e5565b61350d816134cf565b0190565b61352790602081019060008183039101526134f7565b90565b1561353157565b613539610203565b62461bcd60e51b81528061354f60048201613511565b0390fd5b6135849061357d8161357661357061356b60006134c3565b610223565b91610223565b141561352a565b60026123b7565b565b61358f90613384565b565b61359b90516104b1565b90565b6135aa6135af91611078565b610b89565b90565b6135bc905461359e565b90565b6135c99051610223565b90565b6135d461208b565b506135e76135e260066108b4565b6120c9565b906135f26004611221565b906135fd60006113f3565b5b8061361a61361461360f60066108b4565b610368565b91610368565b10156136b7576136b2906136ad61369b61363f613639600685906108c3565b906102e8565b61365361364e60058390611060565b6125ce565b61369160606136896136798a61367361366e60408801613591565b612988565b9061270f565b61368360016135b2565b9061275a565b9392016135bf565b889160019361277c565b6136a8879184909261142a565b6121a1565b61140f565b6135fe565b50505090565b6136c56126c7565b506136d060006113f3565b906136db60006113f3565b915b826136f96136f36136ee60066108b4565b610368565b91610368565b10156139a55761371461370e600685906108c3565b906102e8565b61375c602061372a6137258461123a565b611246565b6370a082319061375161373c3061141e565b92613745610203565b958694859384936112a0565b83526004830161031d565b03915afa9081156139a057600091613972575b5091613788600061378260058590611060565b0161111c565b6137d0602061379e6137998461123a565b611246565b6370a08231906137c56137b03061141e565b926137b9610203565b958694859384936112a0565b83526004830161031d565b03915afa91821561396d576137fc6137f761382394602094600091613940575b5092612189565b612195565b6138186307a2d13a61380c610203565b958694859384936112a0565b835260048301610bcf565b03915afa90811561393b5761388a946020926138489260009161390e575b50906129a4565b9261386361385e6138596004611221565b6126d8565b6126e4565b61387f63aea91078613873610203565b978894859384936112a0565b83526004830161031d565b03915afa8015613909576138b26138cf936138c9926138d5966000916138db575b509061270f565b6138c3670de0b6b3a76400006126f3565b9061275a565b906129a4565b9261140f565b916136dd565b6138fc915060203d8111613902575b6138f48183611277565b8101906112b5565b386138ab565b503d6138ea565b6112d4565b61392e9150843d8111613934575b6139268183611277565b8101906112b5565b38613841565b503d61391c565b6112d4565b6139609150853d8111613966575b6139588183611277565b8101906112b5565b386137f0565b503d61394e565b6112d4565b613993915060203d8111613999575b61398b8183611277565b8101906112b5565b3861376f565b503d613981565b6112d4565b90915090565b63ffffffff60e01b1690565b6139cb6139c66139d0926104b1565b6112a0565b6139ab565b90565b91613a17600492613a08613a1c95936139ef63a9059cbb6139b7565b926139f8610203565b96879460208601908152016113cc565b60208201810382520383611277565b614ad3565b565b604090613a48613a4f9496959396613a3e60608401986000850190610310565b6020830190610310565b0190610bc2565b565b613a9e9391613a8a600494613a999394613a6e6323b872dd6139b7565b93919091613a7a610203565b9788956020870190815201613a1e565b60208201810382520383611277565b614ad3565b565b606090565b90613ab09101610368565b90565b67ffffffffffffffff8111613ad157613acd602091611257565b0190565b611261565b90613ae8613ae383613ab3565b611ad6565b918252565b369037565b90613b17613aff83613ad6565b92602080613b0d8693613ab3565b9201910390613aed565b565b6001613b259103610368565b90565b613b34613b3a91610368565b91610368565b908115613b45570490565b612744565b613b52613aa0565b50613b6f613b5f82614c95565b613b696001610cd1565b90613aa5565b90613b7982613af2565b91613b826126c7565b5060200182015b600115613bed57613b9c613bc891613b19565b916f181899199a1a9b1b9c1cb0b131b232b360811b600a82061a8353613bc2600a612145565b90613b28565b80613bdc613bd660006113f3565b91610368565b14613be75790613b89565b50505b90565b5050613bea565b60007f416d6f756e74206d7573742062652067726561746572207468616e2030000000910152565b613c29601d6020926112e5565b613c3281613bf4565b0190565b613c4c9060208101906000818303910152613c1c565b90565b15613c5657565b613c5e610203565b62461bcd60e51b815280613c7460048201613c36565b0390fd5b5090565b60007f496e76616c696420726f757465722064617461206c656e677468000000000000910152565b613cb1601a6020926112e5565b613cba81613c7c565b0190565b613cd49060208101906000818303910152613ca4565b90565b15613cde57565b613ce6610203565b62461bcd60e51b815280613cfc60048201613cbe565b0390fd5b9190811015613d10576020020190565b61089e565b35613d1f8161022f565b90565b600080fd5b600080fd5b600080fd5b903590600160200381360303821215613d73570180359067ffffffffffffffff8211613d6e57602001916001820236038313613d6957565b613d2c565b613d27565b613d22565b90821015613d93576020613d8f9202810190613d31565b9091565b61089e565b613dce613dd594613dc4606094989795613dba608086019a6000870190610310565b6020850190610310565b6040830190610310565b0190610bc2565b565b90565b613dee613de9613df392613dd7565b610272565b610368565b90565b60207f64207765696768747320746f6f20686967680000000000000000000000000000917f5661756c74436f72653a20646576696174696f6e2066726f6d2064657369726560008201520152565b613e5160326040926112e5565b613e5a81613df6565b0190565b613e749060208101906000818303910152613e44565b90565b15613e7e57565b613e86610203565b62461bcd60e51b815280613e9c60048201613e5e565b0390fd5b9496939195608052613ec7613ec26000613ebc60058990611060565b01611098565b611d5f565b613ee481613ede613ed860006113f3565b91610368565b11613c4f565b613f15613ef48860805190613c78565b613f0f613f09613f0460066108b4565b610368565b91610368565b14613cd7565b613f1f60016135b2565b92613f2a60006113f3565b94613f3560066108b4565b97613f4060006113f3565b965b87613f55613f4f8c610368565b91610368565b10156143da57613f70613f6a60068a906108c3565b906102e8565b80613f83613f7d8c610223565b91610223565b141560001461431557613fe991613fa4613f9f60058490611060565b6125ce565b6020613fb7613fb28561123a565b611246565b6370a0823190613fde613fc93061141e565b92613fd2610203565b988994859384936112a0565b83526004830161031d565b03915afa801561431057614046946000916142e2575b50602061401c6140176140126004611221565b6126d8565b6126e4565b63aea910789061403b879261402f610203565b998a94859384936112a0565b83526004830161031d565b03915afa80156142dd578f956000916142af575b50948c8b8a8861407a614074670de0b6b3a76400006126f3565b91610368565b1161427f575b9161409d6140986140a9936140af9695908491613d00565b613d15565b92906080519091613d78565b91614ff6565b6140f760206140c56140c08761123a565b611246565b6370a08231906140ec6140d73061141e565b926140e0610203565b958694859384936112a0565b83526004830161031d565b03915afa90811561427a5760009161424c575b509061411591611e05565b928c90888d8c61412492613d00565b61412d90613d15565b9085927fffebebfb273923089a3ed6bac0fd4686ac740307859becadeb82f998e30db6149361415a610203565b9384936141679385613d98565b0390a1879060400161417890613591565b61418190612988565b61418a9161270f565b896141949161275a565b808361419f90610368565b906141a990610368565b116000146142339461422c9461420a6141eb6142269561420f95614239576141e66141d5828690611e05565b5b6141e06064613dda565b9061270f565b61275a565b6142046141fe6141f9610ced565b610368565b91610368565b10613e77565b61270f565b614220670de0b6b3a76400006126f3565b9061275a565b906129a4565b975b61140f565b96613f42565b6141e6614247858390611e05565b6141d6565b61426d915060203d8111614273575b6142658183611277565b8101906112b5565b3861410a565b503d61425b565b6112d4565b97506140af929161409d6140986140a9936142a1670de0b6b3a76400006126f3565b9b9395965093505050614080565b6142d0915060203d81116142d6575b6142c88183611277565b8101906112b5565b3861405a565b503d6142be565b6112d4565b614303915060203d8111614309575b6142fb8183611277565b8101906112b5565b38613fff565b503d6142f1565b6112d4565b602061435c9161433561433061432b6004611221565b6126d8565b6126e4565b61435163aea91078614345610203565b958694859384936112a0565b83526004830161031d565b03915afa9182156143d55761439b614384614233946143a1946000916143a7575b508961270f565b614395670de0b6b3a76400006126f3565b9061275a565b906129a4565b9761422e565b6143c8915060203d81116143ce575b6143c08183611277565b8101906112b5565b3861437d565b503d6143b6565b6112d4565b985095509750505050506144489150614442836143ff6143f984610368565b91610368565b119161443d61441661441087613b4a565b92613b4a565b9161442e614422610203565b938492602084016118a0565b60208201810382520382611277565b6118c8565b90611915565b61446261445d6144586003611221565b6113a4565b6113b0565b906340c10f1990339092803b156144e0576144916000809461449c614485610203565b978896879586946112a0565b8452600484016113cc565b03925af180156144db576144ae575b50565b6144ce9060003d81116144d4575b6144c68183611277565b8101906113bc565b386144ab565b503d6144bc565b6112d4565b611252565b60101b90565b906144fc65ffffffff0000916144e5565b9181191691161790565b61451a61451561451f926104b1565b610272565b6104b1565b90565b90565b9061453a61453561454192614506565b614522565b82546144eb565b9055565b91602061456792949361456060408201966000830190611183565b0190611183565b565b6145a161459a61458b61457c60016135b2565b61458587612988565b906129a4565b61459485612988565b90611e05565b60016131cb565b6145b98360006145b360058590611060565b01614525565b90916145e57ffe53ad22d287601d2ed917d8aedf4a9bf6f948833c8b55fbc07d8a4e1cdd77899261029d565b926145fa6145f1610203565b92839283614545565b0390a2565b90565b61461661461161461b926145ff565b610272565b610973565b90565b61462a61463091610973565b91610973565b90039060ff821161463d57565b611def565b61464a6126c7565b508061465f6146596012614602565b91610973565b1060001461468f5761468661468161468c939261467c6012614602565b61461e565b612161565b9061275a565b90565b806146a361469d6012614602565b91610973565b116146ac575090565b6146cc6146c76146d293926146c16012614602565b9061461e565b612161565b9061270f565b90565b6146de90610275565b90565b6146ea906146d5565b90565b6146f690610291565b90565b61470360066108b4565b9061470e60006113f3565b5b8061472261471c85610368565b91610368565b10156149805761474561474061473a600684906108c3565b906102e8565b61123a565b90614786602061475484611246565b6370a082319061477b6147663061141e565b9261476f610203565b958694859384936112a0565b83526004830161031d565b03915afa90811561497b5760009161494d575b506147b66147b160086147ab86611246565b90610f5c565b6135b2565b90806147ca6147c484610368565b91610368565b1061494157906147d991611e05565b6147f56147f060096147ea86611246565b906102a9565b611221565b908161481261480c61480760006134c3565b610223565b91610223565b141580614926575b614831575b505061482c91505b61140f565b61470f565b61485661483d836146e1565b6148518661484a836146ed565b85916139d3565b6146ed565b9363b6b55f2582863b156149215761488e9661488360008094614877610203565b9a8b95869485936112a0565b835260048301610bcf565b03925af190811561491c5761482c956148ac926148ef575b50611246565b9190916148e57f41b99659f6ba0803f444aff29e5bf6e26dd86a3219aff92119d69710a956ba8d936148dc610203565b93849384613a1e565b0390a1388061481f565b61490f9060003d8111614915575b6149078183611277565b8101906113bc565b386148a6565b503d6148fd565b6112d4565b611252565b508061493b61493560006113f3565b91610368565b1161481a565b505061482c9150614827565b61496e915060203d8111614974575b6149668183611277565b8101906112b5565b38614799565b503d61495c565b6112d4565b509050565b600090565b614992614985565b503b6149a76149a160006113f3565b91610368565b1190565b60007f5361666545524332303a206c6f772d6c6576656c2063616c6c206661696c6564910152565b6149dd6020613ad6565b906149ea602083016149ab565b565b6149f46149d3565b90565b5190565b90505190614a0882610c1a565b565b90602082820312614a2457614a21916000016149fb565b90565b61020e565b60207f6f74207375636365656400000000000000000000000000000000000000000000917f5361666545524332303a204552433230206f7065726174696f6e20646964206e60008201520152565b614a84602a6040926112e5565b614a8d81614a29565b0190565b614aa79060208101906000818303910152614a77565b90565b15614ab157565b614ab9610203565b62461bcd60e51b815280614acf60048201614a91565b0390fd5b614b1d91614ae3614af292611246565b90614aec6149ec565b916150a4565b614afb816149f7565b614b0e614b0860006113f3565b91610368565b14908115614b1f575b50614aaa565b565b614b3a91506020614b2f826149f7565b818301019101614a0a565b38614b17565b90565b614b57614b52614b5c92614b40565b610272565b610368565b90565b90565b614b76614b71614b7b92614b5f565b610272565b610368565b90565b90565b614b95614b90614b9a92614b7e565b610272565b610368565b90565b90565b614bb4614baf614bb992614b9d565b610272565b610368565b90565b90565b614bd3614bce614bd892614bbc565b610272565b610368565b90565b90565b614bf2614bed614bf792614bdb565b610272565b610368565b90565b90565b614c11614c0c614c1692614bfa565b610272565b610368565b90565b90565b614c30614c2b614c3592614c19565b610272565b610368565b90565b90565b614c4f614c4a614c5492614c38565b610272565b610368565b90565b90565b614c6e614c69614c7392614c57565b610272565b610368565b90565b90565b614c8d614c88614c9292614c76565b610272565b610368565b90565b614c9d6126c7565b50614ca860006113f3565b9080614cd7614cd17a184f03e93ff9f4daa797ed6e38ed64bf6a1f010000000000000000614b43565b91610368565b1015614eaf575b80614cff614cf96d04ee2d6d415b85acef8100000000614b81565b91610368565b1015614e74575b80614d20614d1a662386f26fc10000614bbf565b91610368565b1015614e40575b80614d3e614d386305f5e100614bfd565b91610368565b1015614e0f575b80614d5a614d54612710614c3b565b91610368565b1015614de0575b80614d75614d6f6064613dda565b91610368565b1015614db2575b614d8f614d89600a612145565b91610368565b1015614d99575b90565b614dad90614da76001610cd1565b90613aa5565b614d96565b614dc9614dda91614dc36064613dda565b90613b28565b91614dd46002614c79565b90613aa5565b90614d7c565b614df8614e0991614df2612710614c3b565b90613b28565b91614e036004614c5a565b90613aa5565b90614d61565b614e29614e3a91614e236305f5e100614bfd565b90613b28565b91614e346008614c1c565b90613aa5565b90614d45565b614e5d614e6e91614e57662386f26fc10000614bbf565b90613b28565b91614e686010614bde565b90613aa5565b90614d27565b614e98614ea991614e926d04ee2d6d415b85acef8100000000614b81565b90613b28565b91614ea36020614ba0565b90613aa5565b90614d06565b614ee0614ef191614eda7a184f03e93ff9f4daa797ed6e38ed64bf6a1f010000000000000000614b43565b90613b28565b91614eeb6040614b62565b90613aa5565b90614cde565b905090565b90826000939282370152565b909182614f1881614f1f93614ef7565b8093614efc565b0190565b9091614f2e92614f08565b90565b67ffffffffffffffff8111614f4f57614f4b602091611257565b0190565b611261565b90614f66614f6183614f31565b611ad6565b918252565b606090565b3d600014614f8d57614f813d614f54565b903d6000602084013e5b565b614f95614f6b565b90614f8b565b60007f556e6b6e6f776e20726561736f6e000000000000000000000000000000000000910152565b614fd0600e6020926112e5565b614fd981614f9b565b0190565b614ff39060208101906000818303910152614fc3565b90565b9060009283809392615012615009610203565b93849283614f23565b03925af1615028615021614f70565b9115610961565b61502f5750565b615038816149f7565b61504b61504560006113f3565b91610368565b116000146150815761505f61507d916118c8565b615067610203565b918291634ecb9b6d60e01b8352600483016118fc565b0390fd5b615089610203565b634ecb9b6d60e01b8152806150a060048201614fdd565b0390fd5b906150c492916150b2614f6b565b50906150be60006113f3565b9161517d565b90565b6150d090610291565b90565b60207f722063616c6c0000000000000000000000000000000000000000000000000000917f416464726573733a20696e73756666696369656e742062616c616e636520666f60008201520152565b61512e60266040926112e5565b615137816150d3565b0190565b6151519060208101906000818303910152615121565b90565b1561515b57565b615163610203565b62461bcd60e51b8152806151796004820161513b565b0390fd5b91600080916151d4959361518f614f6b565b506151b661519c306150c7565b316151af6151a985610368565b91610368565b1015615154565b8591602082019151925af1916151ca614f70565b909290919261525b565b90565b60007f416464726573733a2063616c6c20746f206e6f6e2d636f6e7472616374000000910152565b61520c601d6020926112e5565b615215816151d7565b0190565b61522f90602081019060008183039101526151ff565b90565b1561523957565b615241610203565b62461bcd60e51b81528061525760048201615219565b0390fd5b919290615266614f6b565b506000146152ac5750615278826149f7565b61528b61528560006113f3565b91610368565b14615295575b5090565b6152a16152a69161498a565b615232565b38615291565b82906152b7826149f7565b6152ca6152c460006113f3565b91610368565b116000146152db5750805190602001fd5b6152fc906152e7610203565b91829162461bcd60e51b8352600483016118fc565b0390fdfea2646970667358221220a009f460a36f3979617c9a133a3cad2160fa108f9c6f098380bcd4820124b1fc64736f6c634300081b0033","abi":[{"inputs":[],"stateMutability":"nonpayable","type":"constructor"},{"inputs":[{"internalType":"string","name":"reason","type":"string"}],"name":"SwapFailed","type":"error"},{"anonymous":false,"inputs":[{"indexed":true,"internalType":"address","name":"asset","type":"address"},{"indexed":false,"internalType":"uint8","name":"decimals","type":"uint8"},{"indexed":false,"internalType":"uint32","name":"weight","type":"uint32"}],"name":"AssetAdded","type":"event"},{"anonymous":false,"inputs":[{"indexed":false,"internalType":"address","name":"asset","type":"address"},{"indexed":false,"internalType":"address","name":"strategy","type":"address"},{"indexed":false,"internalType":"uint256","name":"amount","type":"uint256"}],"name":"AssetAllocated","type":"event"},{"anonymous":false,"inputs":[{"indexed":true,"internalType":"address","name":"asset","type":"address"},{"indexed":false,"internalType":"uint8","name":"decimals","type":"uint8"},{"indexed":false,"internalType":"uint32","name":"weight","type":"uint32"}],"name":"AssetChanged","type":"event"},{"anonymous":false,"inputs":[{"indexed":true,"internalType":"address","name":"asset","type":"address"}],"name":"AssetRemoved","type":"event"},{"anonymous":false,"inputs":[{"indexed":true,"internalType":"address","name":"asset","type":"address"},{"indexed":false,"internalType":"uint32","name":"oldWeight","type":"uint32"},{"indexed":false,"internalType":"uint32","name":"newWeight","type":"uint32"}],"name":"AssetWeightChanged","type":"event"},{"anonymous":false,"inputs":[{"indexed":true,"internalType":"address","name":"bentoUSD","type":"address"}],"name":"BentoUSDUpdated","type":"event"},{"anonymous":false,"inputs":[{"indexed":true,"internalType":"address","name":"governor","type":"address"}],"name":"GovernorUpdated","type":"event"},{"anonymous":false,"inputs":[{"indexed":false,"internalType":"uint8","name":"version","type":"uint8"}],"name":"Initialized","type":"event"},{"anonymous":false,"inputs":[{"indexed":true,"internalType":"address","name":"oracleRouter","type":"address"}],"name":"OracleRouterUpdated","type":"event"},{"anonymous":false,"inputs":[{"indexed":false,"internalType":"address","name":"inputAsset","type":"address"},{"indexed":false,"internalType":"address","name":"outputAsset","type":"address"},{"indexed":false,"internalType":"address","name":"router","type":"address"},{"indexed":false,"internalType":"uint256","name":"amount","type":"uint256"}],"name":"Swap","type":"event"},{"inputs":[{"internalType":"uint256","name":"","type":"uint256"}],"name":"allAssets","outputs":[{"internalType":"address","name":"","type":"address"}],"stateMutability":"view","type":"function"},{"inputs":[],"name":"allocate","outputs":[],"stateMutability":"nonpayable","type":"function"},{"inputs":[{"internalType":"address","name":"","type":"address"}],"name":"assetToEthenaWalletProxy","outputs":[{"internalType":"address","name":"","type":"address"}],"stateMutability":"view","type":"function"},{"inputs":[{"internalType":"address","name":"","type":"address"}],"name":"assetToStrategy","outputs":[{"internalType":"address","name":"","type":"address"}],"stateMutability":"view","type":"function"},{"inputs":[{"internalType":"address","name":"","type":"address"}],"name":"assets","outputs":[{"internalType":"bool","name":"isSupported","type":"bool"},{"internalType":"uint8","name":"decimals","type":"uint8"},{"internalType":"uint32","name":"weight","type":"uint32"},{"internalType":"address","name":"ltToken","type":"address"}],"stateMutability":"view","type":"function"},{"inputs":[],"name":"bentoUSD","outputs":[{"internalType":"address","name":"","type":"address"}],"stateMutability":"view","type":"function"},{"inputs":[{"internalType":"address","name":"_asset","type":"address"},{"internalType":"uint8","name":"_decimals","type":"uint8"},{"internalType":"uint32","name":"_weight","type":"uint32"},{"internalType":"address","name":"_ltToken","type":"address"}],"name":"changeAsset","outputs":[],"stateMutability":"nonpayable","type":"function"},{"inputs":[{"internalType":"uint256","name":"amount","type":"uint256"},{"internalType":"address","name":"asset","type":"address"},{"internalType":"address","name":"ltToken","type":"address"},{"internalType":"address","name":"priceOracle","type":"address"},{"internalType":"bool","name":"redeemFlag","type":"bool"}],"name":"convertToLTAmount","outputs":[{"internalType":"uint256","name":"","type":"uint256"}],"stateMutability":"view","type":"function"},{"inputs":[],"name":"deviationTolerance","outputs":[{"internalType":"uint256","name":"","type":"uint256"}],"stateMutability":"view","type":"function"},{"inputs":[],"name":"getAssets","outputs":[{"components":[{"internalType":"bool","name":"isSupported","type":"bool"},{"internalType":"uint8","name":"decimals","type":"uint8"},{"internalType":"uint32","name":"weight","type":"uint32"},{"internalType":"address","name":"ltToken","type":"address"}],"internalType":"struct VaultStorage.Asset[]","name":"","type":"tuple[]"}],"stateMutability":"view","type":"function"},{"inputs":[{"internalType":"uint256","name":"desiredAmount","type":"uint256"}],"name":"getDepositAssetAmounts","outputs":[{"internalType":"uint256[]","name":"","type":"uint256[]"},{"internalType":"uint256","name":"","type":"uint256"}],"stateMutability":"view","type":"function"},{"inputs":[{"internalType":"uint256","name":"inputAmount","type":"uint256"}],"name":"getOutputLTAmounts","outputs":[{"internalType":"uint256[]","name":"","type":"uint256[]"}],"stateMutability":"view","type":"function"},{"inputs":[],"name":"getTokenToShareRatios","outputs":[{"internalType":"uint256[]","name":"","type":"uint256[]"}],"stateMutability":"view","type":"function"},{"inputs":[],"name":"getTotalValue","outputs":[{"internalType":"uint256","name":"","type":"uint256"}],"stateMutability":"view","type":"function"},{"inputs":[],"name":"getWeights","outputs":[{"internalType":"uint32[]","name":"","type":"uint32[]"}],"stateMutability":"view","type":"function"},{"inputs":[],"name":"governor","outputs":[{"internalType":"address","name":"","type":"address"}],"stateMutability":"view","type":"function"},{"inputs":[{"internalType":"address","name":"_governor","type":"address"}],"name":"initialize","outputs":[],"stateMutability":"nonpayable","type":"function"},{"inputs":[{"internalType":"address","name":"","type":"address"}],"name":"ltTokenToAsset","outputs":[{"internalType":"address","name":"","type":"address"}],"stateMutability":"view","type":"function"},{"inputs":[{"internalType":"address","name":"","type":"address"}],"name":"minimalAmountInVault","outputs":[{"internalType":"uint256","name":"","type":"uint256"}],"stateMutability":"view","type":"function"},{"inputs":[{"internalType":"address","name":"_asset","type":"address"},{"internalType":"uint256","name":"_amount","type":"uint256"},{"internalType":"uint256","name":"_minimumBentoUSDAmount","type":"uint256"},{"internalType":"address[]","name":"_routers","type":"address[]"},{"internalType":"bytes[]","name":"_routerData","type":"bytes[]"}],"name":"mint","outputs":[],"stateMutability":"nonpayable","type":"function"},{"inputs":[{"internalType":"uint256","name":"_amount","type":"uint256"},{"internalType":"uint256","name":"_minimumBentoUSDAmount","type":"uint256"}],"name":"mintBasket","outputs":[],"stateMutability":"nonpayable","type":"function"},{"inputs":[],"name":"oracleRouter","outputs":[{"internalType":"address","name":"","type":"address"}],"stateMutability":"view","type":"function"},{"inputs":[{"internalType":"uint256","name":"_amount","type":"uint256"}],"name":"redeemLTBasket","outputs":[],"stateMutability":"nonpayable","type":"function"},{"inputs":[{"internalType":"address","name":"_asset","type":"address"}],"name":"removeAsset","outputs":[],"stateMutability":"nonpayable","type":"function"},{"inputs":[{"internalType":"address","name":"_asset","type":"address"},{"internalType":"uint8","name":"_decimals","type":"uint8"},{"internalType":"uint32","name":"_weight","type":"uint32"},{"internalType":"address","name":"_ltToken","type":"address"}],"name":"setAsset","outputs":[],"stateMutability":"nonpayable","type":"function"},{"inputs":[{"internalType":"address","name":"_bentoUSD","type":"address"}],"name":"setBentoUSD","outputs":[],"stateMutability":"nonpayable","type":"function"},{"inputs":[{"internalType":"address","name":"_asset","type":"address"},{"internalType":"uint256","name":"_amount","type":"uint256"}],"name":"setMinimalAmountInVault","outputs":[],"stateMutability":"nonpayable","type":"function"},{"inputs":[{"internalType":"address","name":"_oracleRouter","type":"address"}],"name":"setOracleRouter","outputs":[],"stateMutability":"nonpayable","type":"function"},{"inputs":[{"internalType":"address","name":"_asset","type":"address"},{"internalType":"address","name":"_strategy","type":"address"}],"name":"setStrategy","outputs":[],"stateMutability":"nonpayable","type":"function"},{"inputs":[],"name":"totalWeight","outputs":[{"internalType":"uint256","name":"","type":"uint256"}],"stateMutability":"view","type":"function"}]}