{"address":"0x0bfAaF9bB359148dC912C752CBE19eF156630DaC","bytecode":"0x60806040523461002757610011610037565b61001961002c565b6155a561026782396155a590f35b610032565b60405190565b600080fd5b61003f6101da565b565b60081c90565b60ff1690565b61005961005e91610041565b610047565b90565b61006b905461004d565b90565b151590565b60209181520190565b60207f616c697a696e6700000000000000000000000000000000000000000000000000917f496e697469616c697a61626c653a20636f6e747261637420697320696e69746960008201520152565b6100d76027604092610073565b6100e08161007c565b0190565b6100fa90602081019060008183039101526100ca565b90565b1561010457565b61010c61002c565b62461bcd60e51b815280610122600482016100e4565b0390fd5b60001c90565b60ff1690565b61013e61014391610126565b61012c565b90565b6101509054610132565b90565b60ff1690565b60001b90565b9061016b60ff91610159565b9181191691161790565b90565b61018c61018761019192610153565b610175565b610153565b90565b90565b906101ac6101a76101b392610178565b610194565b825461015f565b9055565b6101c090610153565b9052565b91906101d8906000602085019401906101b7565b565b6101f56101f06101ea6000610061565b1561006e565b6100fd565b6101ff6000610146565b61021261020c60ff610153565b91610153565b0361021a575b565b61022660ff6000610197565b60ff61025e7f7f26b83ff96e1f2b6a682f133852f6798a09c465da95921460cefb38474024989161025561002c565b918291826101c4565b0390a161021856fe60806040526004361015610013575b610f8d565b61001e60003561018d565b80630329e33c146101885780630c340a2414610183578063152245191461017e578063254b9e6a146101795780632acada4d146101745780633e55e5801461016f5780634a5e42b11461016a5780634d69ee0e1461016557806355a29e9114610160578063578e5c221461015b57806357e285071461015657806360938db514610151578063829c8db71461014c57806396c82e5714610147578063a158b3ae14610142578063a1b2439e1461013d578063a594e81e14610138578063abaa991614610133578063b5c705b51461012e578063c4d66de814610129578063c9339e9f14610124578063d45d84251461011f5763e45d65df0361000e57610f58565b610eec565b610de0565b610d94565b610d61565b610d2e565b610cfa565b610c89565b610bb2565b610b46565b610adb565b610a98565b610a5c565b6107e5565b610716565b6106d3565b6106a0565b61064c565b610483565b6103ac565b61031a565b6102e5565b610239565b60e01c90565b60405190565b600080fd5b600080fd5b60018060a01b031690565b6101b7906101a3565b90565b6101c3816101ae565b036101ca57565b600080fd5b905035906101dc826101ba565b565b90565b6101ea816101de565b036101f157565b600080fd5b90503590610203826101e1565b565b919060408382031261022e578061022261022b92600086016101cf565b936020016101f6565b90565b61019e565b60000190565b346102685761025261024c366004610205565b90611219565b61025a610193565b8061026481610233565b0390f35b610199565b600091031261027857565b61019e565b1c90565b60018060a01b031690565b61029c9060086102a1930261027d565b610281565b90565b906102af915461028c565b90565b6102bf60026000906102a4565b90565b6102cb906101ae565b9052565b91906102e3906000602085019401906102c2565b565b34610315576102f536600461026d565b6103116103006102b2565b610308610193565b918291826102cf565b0390f35b610199565b346103495761033361032d366004610205565b906114b9565b61033b610193565b8061034581610233565b0390f35b610199565b90916060828403126103845761038161036a84600085016101f6565b9361037881602086016101cf565b936040016101cf565b90565b61019e565b610392906101de565b9052565b91906103aa90600060208501940190610389565b565b346103dd576103d96103c86103c236600461034e565b916114ee565b6103d0610193565b91829182610396565b0390f35b610199565b5190565b60209181520190565b60200190565b6103fe906101ae565b9052565b9061040f816020936103f5565b0190565b60200190565b90610436610430610429846103e2565b80936103e6565b926103ef565b9060005b8181106104475750505090565b90919261046061045a6001928651610402565b94610413565b910191909161043a565b6104809160208201916000818403910152610419565b90565b346104b35761049336600461026d565b6104af61049e611652565b6104a6610193565b9182918261046a565b0390f35b610199565b5190565b60209181520190565b60200190565b63ffffffff1690565b6104dd906104cb565b9052565b60ff1690565b6104f0906104e1565b9052565b634e487b7160e01b600052602160045260246000fd5b6003111561051457565b6104f4565b906105238261050a565b565b61052e90610519565b90565b61053a90610525565b9052565b610547906101de565b9052565b9060c0806105c993610565600082015160008601906103f5565b610577602082015160208601906104d4565b610589604082015160408601906104e7565b61059b606082015160608601906104e7565b6105ad60808201516080860190610531565b6105bf60a082015160a08601906103f5565b015191019061053e565b565b906105d88160e09361054b565b0190565b60200190565b906105ff6105f96105f2846104b8565b80936104bc565b926104c5565b9060005b8181106106105750505090565b90919261062961062360019286516105cb565b946105dc565b9101919091610603565b61064991602082019160008184039101526105e2565b90565b3461067c5761065c36600461026d565b6106786106676118b9565b61066f610193565b91829182610633565b0390f35b610199565b9060208282031261069b57610698916000016101cf565b90565b61019e565b346106ce576106b86106b3366004610681565b611e14565b6106c0610193565b806106ca81610233565b0390f35b610199565b34610701576106eb6106e6366004610681565b611edd565b6106f3610193565b806106fd81610233565b0390f35b610199565b61071360046000906102a4565b90565b346107465761072636600461026d565b610742610731610706565b610739610193565b918291826102cf565b0390f35b610199565b9060208282031261076557610762916000016101f6565b90565b61019e565b634e487b7160e01b600052603260045260246000fd5b5490565b600052602060002090565b61079881610780565b8210156107b3576107aa600191610784565b91020190600090565b61076a565b60066107c381610780565b8210156107e0576107dd916107d79161078f565b906102a4565b90565b600080fd5b34610815576108116108006107fb36600461074b565b6107b8565b610808610193565b918291826102cf565b0390f35b610199565b90565b61083161082c610836926101a3565b61081a565b6101a3565b90565b6108429061081d565b90565b61084e90610839565b90565b9061085b90610845565b600052602052604060002090565b60001c90565b61087b61088091610869565b610281565b90565b61088d905461086f565b90565b60a01c90565b63ffffffff1690565b6108ab6108b091610890565b610896565b90565b6108bd905461089f565b90565b60c01c90565b60ff1690565b6108d86108dd916108c0565b6108c6565b90565b6108ea90546108cc565b90565b60c81c90565b6108ff610904916108ed565b6108c6565b90565b61091190546108f3565b90565b60d01c90565b60ff1690565b61092c61093191610914565b61091a565b90565b61093e9054610920565b90565b90565b61095061095591610869565b610941565b90565b6109629054610944565b90565b610970906005610851565b61097c60008201610883565b91610989600083016108b3565b91610996600082016108e0565b916109a360008301610907565b916109b060008201610934565b916109c960026109c260018501610883565b9301610958565b90565b6109d5906104cb565b9052565b6109e2906104e1565b9052565b6109ef90610525565b9052565b949290979695939160e086019860008701610a0d916102c2565b60208601610a1a916109cc565b60408501610a27916109d9565b60608401610a34916109d9565b60808301610a41916109e6565b60a08201610a4e916102c2565b60c001610a5a91610389565b565b34610a9357610a8f610a77610a72366004610681565b610965565b93610a86979597939193610193565b978897886109f3565b0390f35b610199565b34610ac657610ab0610aab366004610681565b611f0c565b610ab8610193565b80610ac281610233565b0390f35b610199565b610ad860036000906102a4565b90565b34610b0b57610aeb36600461026d565b610b07610af6610acb565b610afe610193565b918291826102cf565b0390f35b610199565b610b20906008610b25930261027d565b610941565b90565b90610b339154610b10565b90565b610b436001600090610b28565b90565b34610b7657610b5636600461026d565b610b72610b61610b36565b610b69610193565b91829182610396565b0390f35b610199565b90565b610b92610b8d610b9792610b7b565b61081a565b6101de565b90565b610ba46001610b7e565b90565b610baf610b9a565b90565b34610be257610bc236600461026d565b610bde610bcd610ba7565b610bd5610193565b91829182610396565b0390f35b610199565b5190565b60209181520190565b60200190565b90610c078160209361053e565b0190565b60200190565b90610c2e610c28610c2184610be7565b8093610beb565b92610bf4565b9060005b818110610c3f5750505090565b909192610c58610c526001928651610bfa565b94610c0b565b9101919091610c32565b92916020610c7f610c879360408701908782036000890152610c11565b940190610389565b565b34610cba57610ca1610c9c36600461074b565b612159565b90610cb6610cad610193565b92839283610c62565b0390f35b610199565b9091606082840312610cf557610cf2610cdb84600085016101cf565b93610ce981602086016101f6565b936040016101f6565b90565b61019e565b34610d2957610d13610d0d366004610cbf565b91612602565b610d1b610193565b80610d2581610233565b0390f35b610199565b34610d5c57610d3e36600461026d565b610d466127cd565b610d4e610193565b80610d5881610233565b0390f35b610199565b34610d8f57610d79610d74366004610681565b612854565b610d81610193565b80610d8b81610233565b0390f35b610199565b34610dc257610dac610da7366004610681565b612b7f565b610db4610193565b80610dbe81610233565b0390f35b610199565b610ddd9160208201916000818403910152610c11565b90565b34610e1057610e0c610dfb610df636600461074b565b612bb1565b610e03610193565b91829182610dc7565b0390f35b610199565b610e1e816104e1565b03610e2557565b600080fd5b90503590610e3782610e15565b565b610e42816104cb565b03610e4957565b600080fd5b90503590610e5b82610e39565b565b60031115610e6757565b600080fd5b90503590610e7982610e5d565b565b60e081830312610ee757610e9282600083016101cf565b92610ea08360208401610e2a565b92610eae8160408501610e4e565b92610ebc82606083016101cf565b92610ee4610ecd8460808501610e6c565b93610edb8160a086016101cf565b9360c0016101f6565b90565b61019e565b34610f2157610f0b610eff366004610e7b565b959490949391936134ff565b610f13610193565b80610f1d81610233565b0390f35b610199565b90610f3090610845565b600052602052604060002090565b610f5590610f50600791600092610f26565b6102a4565b90565b34610f8857610f84610f73610f6e366004610681565b610f3e565b610f7b610193565b918291826102cf565b0390f35b610199565b600080fd5b610f9b9061081d565b90565b610fa790610f92565b90565b610fb390610839565b90565b600080fd5b601f801991011690565b634e487b7160e01b600052604160045260246000fd5b90610fe590610fbb565b810190811067ffffffffffffffff821117610fff57604052565b610fc5565b60e01b90565b90505190611017826101e1565b565b90602082820312611033576110309160000161100a565b90565b61019e565b611040610193565b3d6000823e3d90fd5b60209181520190565b60007f3300000000000000000000000000000000000000000000000000000000000000910152565b6110876001602092611049565b61109081611052565b0190565b6110aa906020810190600081830391015261107a565b90565b156110b457565b6110bc610193565b62461bcd60e51b8152806110d260048201611094565b0390fd5b6110df9061081d565b90565b6110eb906110d6565b90565b6110f790610839565b90565b600091031261110557565b61019e565b91602061112c929493611125604082019660008301906102c2565b0190610389565b565b90565b61114561114061114a9261112e565b61081a565b6101de565b90565b600161115991016101de565b90565b61116590610839565b90565b9061117282610be7565b811015611183576020809102010190565b61076a565b61119290516101de565b90565b60007f3400000000000000000000000000000000000000000000000000000000000000910152565b6111ca6001602092611049565b6111d381611195565b0190565b6111ed90602081019060008183039101526111bd565b90565b156111f757565b6111ff610193565b62461bcd60e51b815280611215600482016111d7565b0390fd5b9061122381612bb1565b9061126d602061124361123e6112396003610883565b610f9e565b610faa565b6370a08231906112623392611256610193565b95869485938493611004565b8352600483016102cf565b03915afa80156114b45761129d91600091611486575b50611296611290846101de565b916101de565b10156110ad565b6112b76112b26112ad6003610883565b6110e2565b6110ee565b90639dc29fac90339092803b15611481576112e6600080946112f16112da610193565b97889687958694611004565b84526004840161110a565b03925af1801561147c5761144f575b5061130b6000611131565b5b8061132861132261131d6006610780565b6101de565b916101de565b101561144a57611358600061135261134b6113456006869061078f565b906102a4565b6005610851565b01610883565b906113a1602061136f61136a85610f9e565b610faa565b6370a08231906113966113813061115c565b9261138a610193565b95869485938493611004565b8352600483016102cf565b03915afa801561144557611412936113ee6113f39261140d94600091611417575b506113e76113e16113dc6113d78b8a90611168565b611188565b6101de565b916101de565b10156111f0565b610f9e565b85611407611402878690611168565b611188565b91613538565b61114d565b61130c565b611438915060203d811161143e575b6114308183610fdb565b810190611019565b386113c2565b503d611426565b611038565b505050565b61146f9060003d8111611475575b6114678183610fdb565b8101906110fa565b38611300565b503d61145d565b611038565b610fb6565b6114a7915060203d81116114ad575b61149f8183610fdb565b810190611019565b38611283565b503d611495565b611038565b906114c39161360b565b565b600090565b6114d39061081d565b90565b6114df906114ca565b90565b6114eb90610839565b90565b9161152d6115286115226115549561151d600061151760209861150f6114c5565b506005610851565b016108e0565b613c75565b926114d6565b6114e2565b61154963c6e6f59261153d610193565b95869485938493611004565b835260048301610396565b03915afa9081156115995760009161156b575b5090565b61158c915060203d8111611592575b6115848183610fdb565b810190611019565b38611567565b503d61157a565b611038565b606090565b60209181520190565b6115b6905461086f565b90565b60010190565b906115dc6115d66115cf84610780565b80936115a3565b92610784565b9060005b8181106115ed5750505090565b90919261160d611607600192611602876115ac565b610402565b946115b9565b91019190916115e0565b90611621916115bf565b90565b9061164461163d92611634610193565b93848092611617565b0383610fdb565b565b61164f90611624565b90565b61165a61159e565b506116656006611646565b90565b606090565b90611680611679610193565b9283610fdb565b565b67ffffffffffffffff811161169a5760208091020190565b610fc5565b906116b16116ac83611682565b61166d565b918252565b6116c060e061166d565b90565b600090565b600090565b600090565b600090565b600090565b6116e46116b6565b906020808080808080886116f66116c3565b8152016117016116c8565b81520161170c6116cd565b8152016117176116cd565b8152016117226116d2565b81520161172d6116c3565b8152016117386116d7565b81525050565b6117466116dc565b90565b60005b82811061175857505050565b60209061176361173e565b818401520161174c565b9061179261177a8361169f565b926020806117888693611682565b9201910390611749565b565b9061179e826104b8565b8110156117af576020809102010190565b61076a565b906117be906101ae565b9052565b906117cc906104cb565b9052565b906117da906104e1565b9052565b906117e890610519565b9052565b906117f6906101de565b9052565b906118ab6118a2600261180b6116b6565b9461182461181b60008301610883565b600088016117b4565b61183c611833600083016108b3565b602088016117c2565b61185461184b600083016108e0565b604088016117d0565b61186c61186360008301610907565b606088016117d0565b61188461187b60008301610934565b608088016117de565b61189c61189360018301610883565b60a088016117b4565b01610958565b60c084016117ec565b565b6118b6906117fa565b90565b6118c1611668565b506118d46118cf6006610780565b61176d565b6118de6000611131565b5b806118fb6118f56118f06006610780565b6101de565b916101de565b101561194f5761194a90611943611928600561192261191c6006869061078f565b906102a4565b90610851565b8461193384926118ad565b61193d8383611794565b52611794565b515061114d565b6118df565b5090565b60007f3100000000000000000000000000000000000000000000000000000000000000910152565b6119886001602092611049565b61199181611953565b0190565b6119ab906020810190600081830391015261197b565b90565b156119b557565b6119bd610193565b62461bcd60e51b8152806119d360048201611995565b0390fd5b611a0590611a00336119fa6119f46119ef6002610883565b6101ae565b916101ae565b146119ae565b611c70565b565b611a1b611a16611a209261112e565b61081a565b6101a3565b90565b611a2c90611a07565b90565b60007f3900000000000000000000000000000000000000000000000000000000000000910152565b611a646001602092611049565b611a6d81611a2f565b0190565b611a879060208101906000818303910152611a57565b90565b15611a9157565b611a99610193565b62461bcd60e51b815280611aaf60048201611a71565b0390fd5b611ac7611ac2611acc9261112e565b61081a565b6104cb565b90565b634e487b7160e01b600052601160045260246000fd5b611af4611afa919392936101de565b926101de565b8203918211611b0557565b611acf565b1b90565b91906008611b2e910291611b2860018060a01b0384611b0a565b92611b0a565b9181191691161790565b90565b9190611b51611b4c611b5993610845565b611b38565b908354611b0e565b9055565b611b71611b6c611b76926101de565b61081a565b6104e1565b90565b60c81b90565b90611b8e60ff60c81b91611b79565b9181191691161790565b611bac611ba7611bb1926104e1565b61081a565b6104e1565b90565b90565b90611bcc611bc7611bd392611b98565b611bb4565b8254611b7f565b9055565b90565b634e487b7160e01b600052603160045260246000fd5b5490565b600052602060002090565b611c0881611bf0565b821015611c2357611c1a600191611bf4565b91020190600090565b61076a565b600090565b611c3f91611c39611c28565b91611b3b565b565b611c4a81611bf0565b8015611c6b576001900390611c68611c628383611bff565b90611c2d565b55565b611bda565b611cac611c8a6000611c8460058590610851565b01610883565b611ca5611c9f611c9a6000611a23565b6101ae565b916101ae565b1415611a8a565b611cd781611cc76000611cc160058690610851565b016108b3565b611cd16000611ab3565b91613d2c565b611ce16000611131565b5b80611cfe611cf8611cf36006610780565b6101de565b916101de565b1015611e0e57611d19611d136006839061078f565b906102a4565b611d2b611d25846101ae565b916101ae565b14611d3e57611d399061114d565b611ce2565b611db990611d88611d76611d706006611d6a611d5a6006610780565b611d646001610b7e565b90611ae5565b9061078f565b906102a4565b611d826006849061078f565b90611b3b565b6000611db3611d9683611b5d565b92611dad611da7600592600661078f565b906102a4565b90610851565b01611bb7565b611dcb611dc66006611bd7565b611c41565b5b611df67f37803e2125c48ee96c38ddf04e826daf335b0e1603579040fd275aba6d06b6fc91610845565b90611dff610193565b80611e0981610233565b0390a2565b50611dcc565b611e1d906119d7565b565b611e4d90611e4833611e42611e3c611e376002610883565b6101ae565b916101ae565b146119ae565b611e90565b565b60001b90565b90611e6660018060a01b0391611e4f565b9181191691161790565b90611e85611e80611e8c92610845565b611b38565b8254611e55565b9055565b611e9b816004611e70565b611ec57fb12580e226e25bbb446909adeb7b42f7dd51fc77e9b58f14f321016cbd68c16a91610845565b90611ece610193565b80611ed881610233565b0390a2565b611ee690611e1f565b565b611ef19061081d565b90565b611efd90611ee8565b90565b611f0990610839565b90565b611f30611f2b611f26611f2160073390610f26565b610883565b611ef4565b611f00565b906351cff8d990823b15611fac57611f6892611f5d60008094611f51610193565b96879586948593611004565b8352600483016102cf565b03925af18015611fa757611f7a575b50565b611f9a9060003d8111611fa0575b611f928183610fdb565b8101906110fa565b38611f77565b503d611f88565b611038565b610fb6565b606090565b67ffffffffffffffff8111611fce5760208091020190565b610fc5565b90611fe5611fe083611fb6565b61166d565b918252565b369037565b90612014611ffc83611fd3565b9260208061200a8693611fb6565b9201910390611fea565b565b61201f9061081d565b90565b61202b90612016565b90565b61203790610839565b90565b90565b61205161204c6120569261203a565b61081a565b6101de565b90565b61206d612068612072926104cb565b61081a565b6101de565b90565b61208461208a919392936101de565b926101de565b916120968382026101de565b9281840414901517156120a557565b611acf565b6120b96120bf919392936101de565b926101de565b82018092116120ca57565b611acf565b634e487b7160e01b600052601260045260246000fd5b6120f16120f7916101de565b916101de565b908115612102570490565b6120cf565b6121109061081d565b90565b61211c90612107565b90565b61212890610839565b90565b9050519061213882610e15565b565b90602082820312612154576121519160000161212b565b90565b61019e565b612161611fb1565b5061216a6114c5565b506121756006610780565b9161217f83611fef565b9261218981611fef565b906121946000611131565b9261219f6000611131565b935b846121b46121ae856101de565b916101de565b10156123145761221a906121d36121cd6006889061078f565b906102a4565b9060206121f06121eb6121e66004610883565b612022565b61202e565b63aea910789061220f8592612203610193565b97889485938493611004565b8352600483016102cf565b03915afa801561230f576122816122ac93612293926122b2966000916122e1575b509081612258612252670de0b6b3a764000061203d565b916101de565b116122b8575b612277600061227161227c936005610851565b016108b3565b612059565b612075565b61228e8b918a9092611168565b6117ec565b6122a66122a18a8990611168565b611188565b906120aa565b9461114d565b936121a1565b905061227c61227760006122716122d6670de0b6b3a764000061203d565b94935050505061225e565b612302915060203d8111612308575b6122fa8183610fdb565b810190611019565b3861223b565b503d6122f0565b611038565b929591949093506123256000611131565b936123306000611131565b945b8561234561233f896101de565b916101de565b101561247b576123a66123e49161238d61237b6123748761236e6123698d8c611168565b611188565b90612075565b89906120e5565b6123888c918b9092611168565b6117ec565b6123a061239b8b8a90611168565b611188565b906120aa565b9560206123ce6123c96123c46123be6006869061078f565b906102a4565b612113565b61211f565b63313ce567906123dc610193565b948592611004565b825281806123f460048201610233565b03915afa80156124765761242b61243d9161244294600091612448575b506124256124208d8690611168565b611188565b90613c75565b6124388b91849092611168565b6117ec565b61114d565b94612332565b612469915060203d811161246f575b6124618183610fdb565b81019061213a565b38612411565b503d612457565b611038565b96945094505050509190565b905090565b60007f3200000000000000000000000000000000000000000000000000000000000000910152565b6124c060018092612487565b6124c98161248c565b0190565b5190565b60005b8381106124e5575050906000910152565b8060209183015181850152016124d4565b61251b61251292602092612509816124cd565b94858093612487565b938491016124d1565b0190565b60007f2c00000000000000000000000000000000000000000000000000000000000000910152565b61255360018092612487565b61255c8161251f565b0190565b61257a612585939261257461257f936124b4565b906124f6565b612547565b906124f6565b90565b90565b6125aa6125b36020936125b8936125a1816124cd565b93848093611049565b958691016124d1565b610fbb565b0190565b6125d2916020820191600081840391015261258b565b90565b156125dd5750565b6125fe906125e9610193565b91829162461bcd60e51b8352600483016125bc565b0390fd5b929061260d90612159565b9390939061261b6000611131565b5b8061263861263261262d6006610780565b6101de565b916101de565b10156126905761268b9061268661266261265d6126576006859061078f565b906102a4565b610f9e565b3361266c3061115c565b9061268061267b8c8790611168565b611188565b92613df5565b61114d565b61261c565b50919350916126f8906126f2846126af6126a9846101de565b916101de565b11916126ed6126c66126c088613eee565b92613eee565b916126de6126d2610193565b93849260208401612560565b60208201810382520382610fdb565b612588565b906125d5565b61271261270d6127086003610883565b6110e2565b6110ee565b916340c10f19919092803b1561278f576127406000809461274b612734610193565b97889687958694611004565b84526004840161110a565b03925af1801561278a5761275d575b50565b61277d9060003d8111612783575b6127758183610fdb565b8101906110fa565b3861275a565b503d61276b565b611038565b610fb6565b6127b9336127b36127ad6127a86002610883565b6101ae565b916101ae565b146119ae565b6127c16127c3565b565b6127cb613fbc565b565b6127d5612794565b565b61280590612800336127fa6127f46127ef6002610883565b6101ae565b916101ae565b146119ae565b612807565b565b612812816003611e70565b61283c7f81b85e876e8723f9d61f238308ea004b759aee15ab163f6bd9b2cde9b20cc61891610845565b90612845610193565b8061284f81610233565b0390a2565b61285d906127d7565b565b60081c90565b60ff1690565b61287761287c9161285f565b612865565b90565b612889905461286b565b90565b151590565b61289d6128a291610869565b6108c6565b90565b6128af9054612891565b90565b6128c66128c16128cb92610b7b565b61081a565b6104e1565b90565b6128d790610839565b90565b60207f647920696e697469616c697a6564000000000000000000000000000000000000917f496e697469616c697a61626c653a20636f6e747261637420697320616c72656160008201520152565b612935602e604092611049565b61293e816128da565b0190565b6129589060208101906000818303910152612928565b90565b1561296257565b61296a610193565b62461bcd60e51b81528061298060048201612942565b0390fd5b9061299060ff91611e4f565b9181191691161790565b906129af6129aa6129b692611b98565b611bb4565b8254612984565b9055565b60081b90565b906129cd61ff00916129ba565b9181191691161790565b6129e09061288c565b90565b90565b906129fb6129f6612a02926129d7565b6129e3565b82546129c0565b9055565b612a0f906128b2565b9052565b9190612a2790600060208501940190612a06565b565b612a76612a3f612a39600061287f565b1561288c565b918280612b28575b8015612ad9575b612a579061295b565b612a6b612a6460016128b2565b600061299a565b82612ac8575b612b4c565b612a7d575b565b612a886000806129e6565b6001612ac07f7f26b83ff96e1f2b6a682f133852f6798a09c465da95921460cefb384740249891612ab7610193565b91829182612a13565b0390a1612a7b565b612ad4600160006129e6565b612a71565b50612af4612aee612ae9306128ce565b6142ea565b1561288c565b80612aff575b612a4e565b50612a57612b0d60006128a5565b612b20612b1a60016128b2565b916104e1565b149050612afa565b50612b3360006128a5565b612b46612b4060016128b2565b916104e1565b10612a47565b612b7d90612b7681612b6f612b69612b646000611a23565b6101ae565b916101ae565b14156119ae565b6002611e70565b565b612b8890612a29565b565b612b9490516104cb565b90565b612ba190516104e1565b90565b612bae90516101ae565b90565b612bb9611fb1565b50612bcc612bc76006610780565b611fef565b612bd66004610883565b90612be16000611131565b5b80612bfe612bf8612bf36006610780565b6101de565b916101de565b1015612d6457612c19612c136006839061078f565b906102a4565b90612c2e612c2960058490610851565b6118ad565b612ca0612c62612c5288612c4c612c4760208701612b8a565b612059565b90612075565b612c5c6001610958565b906120e5565b936020612c76612c7189612022565b61202e565b63aea9107890612c958492612c89610193565b96879485938493611004565b8352600483016102cf565b03915afa928315612d5f57612d0f6000612d07612d2c98612d01612cd5612d2799612d15998691612d31575b5060019061430b565b612cfc612ce460408901612b97565b93612cf6670de0b6b3a764000061203d565b90612075565b6120e5565b90613c75565b939201612ba4565b916114ee565b612d228591849092611168565b6117ec565b61114d565b612be2565b612d52915060203d8111612d58575b612d4a8183610fdb565b810190611019565b38612ccc565b503d612d40565b611038565b5091505090565b90612d9f969594939291612d9a33612d94612d8e612d896002610883565b6101ae565b916101ae565b146119ae565b613149565b565b9081549168010000000000000000831015612dd15782612dc9916001612dcf95018155611bff565b90611b3b565b565b610fc5565b90565b60a01b90565b90612df163ffffffff60a01b91612dd9565b9181191691161790565b612e0f612e0a612e14926104cb565b61081a565b6104cb565b90565b90565b90612e2f612e2a612e3692612dfb565b612e17565b8254612ddf565b9055565b612e476001602092611049565b612e508161248c565b0190565b612e6a9060208101906000818303910152612e3a565b90565b15612e7457565b612e7c610193565b62461bcd60e51b815280612e9260048201612e54565b0390fd5b60c01b90565b90612eab60ff60c01b91612e96565b9181191691161790565b90612eca612ec5612ed192611b98565b611bb4565b8254612e9c565b9055565b60d01b90565b90612eea60ff60d01b91612ed5565b9181191691161790565b612efd90610519565b90565b90565b90612f18612f13612f1f92612ef4565b612f00565b8254612edb565b9055565b60007f3700000000000000000000000000000000000000000000000000000000000000910152565b612f586001602092611049565b612f6181612f23565b0190565b612f7b9060208101906000818303910152612f4b565b90565b15612f8557565b612f8d610193565b62461bcd60e51b815280612fa360048201612f65565b0390fd5b60007f3600000000000000000000000000000000000000000000000000000000000000910152565b612fdc6001602092611049565b612fe581612fa7565b0190565b612fff9060208101906000818303910152612fcf565b90565b1561300957565b613011610193565b62461bcd60e51b81528061302760048201612fe9565b0390fd5b90505190613038826101ba565b565b90602082820312613054576130519160000161302b565b90565b61019e565b60007f3800000000000000000000000000000000000000000000000000000000000000910152565b61308e6001602092611049565b61309781613059565b0190565b6130b19060208101906000818303910152613081565b90565b156130bb57565b6130c3610193565b62461bcd60e51b8152806130d96004820161309b565b0390fd5b906130ea60001991611e4f565b9181191691161790565b61310861310361310d926101de565b61081a565b6101de565b90565b90565b9061312861312361312f926130f4565b613110565b82546130dd565b9055565b9190613147906000602085019401906109cc565b565b949593909291956131768661316f6131696131646000611a23565b6101ae565b916101ae565b14156110ad565b61319c8361319561318f61318a6000611a23565b6101ae565b916101ae565b14156111f0565b6131b360006131ad60058990610851565b01610883565b6131ce6131c86131c36000611a23565b6101ae565b916101ae565b146134aa575b6131f76131ee60006131e860058a90610851565b016108b3565b87908991613d2c565b61320b61320660058890610851565b612dd6565b936132198460008701611e70565b6132268860008701612e1a565b613252602061323c6132378a612113565b61211f565b63313ce5679061324a610193565b938492611004565b8252818061326260048201610233565b03915afa809160009261347a575b501560001461344a57506001613437575b505b6132908260008601612f03565b816132a461329e6000610519565b91610519565b14801561341c575b6000146133f1576132d8906132d26132cc6132c76000611a23565b6101ae565b916101ae565b14613002565b5b6132ec6132e66002610519565b91610519565b03613344575b506002613300929101613113565b61333f61332d7fa5018518746db5e7a6deddc5d2fb0297f409c5c2c0d24ef212302425b71dbd8092610845565b92613336610193565b91829182613133565b0390a2565b91602061335b613356613371956114d6565b6114e2565b6338d52e0f90613369610193565b958692611004565b8252818061338160048201610233565b03915afa9081156133ec576133b7600292613300956000916133be575b506133b16133ab886101ae565b916101ae565b146130b4565b92506132f2565b6133df915060203d81116133e5575b6133d78183610fdb565b81019061303a565b3861339e565b503d6133cd565b611038565b6134179061341061340a6134056000611a23565b6101ae565b916101ae565b1415612f7e565b6132d9565b508161343161342b6001610519565b91610519565b146132ac565b6134449060008601612eb5565b38613281565b9061346c613475929161346661346084926104e1565b916104e1565b14612e6d565b60008601612eb5565b613283565b61349c91925060203d81116134a3575b6134948183610fdb565b81019061213a565b9038613270565b503d61348a565b6134be6134b76006611bd7565b8790612da1565b6134fa6134e66134e16134d16006610780565b6134db6001610b7e565b90611ae5565b611b5d565b60006134f460058a90610851565b01611bb7565b6131d4565b9061350e969594939291612d6b565b565b63ffffffff60e01b1690565b61353061352b613535926104cb565b611004565b613510565b90565b9161357c60049261356d613581959361355463a9059cbb61351c565b9261355d610193565b968794602086019081520161110a565b60208201810382520383610fdb565b6144d2565b565b61358d9051610519565b90565b6135999061081d565b90565b6135a590613590565b90565b6135b190610839565b90565b9160206135d69294936135cf604082019660008301906102c2565b01906102c2565b565b60409061360261360994969593966135f860608401986000850190610389565b60208301906102c2565b01906102c2565b565b9190916136186006610780565b916136236000611131565b5b80613637613631866101de565b916101de565b1015613bf05761365261364c6006839061078f565b906102a4565b9061366761366260058490610851565b6118ad565b6136b0602061368661368161367c6004610883565b612022565b61202e565b63aea91078906136a58792613699610193565b95869485938493611004565b8352600483016102cf565b03915afa908115613beb57613725916136d491600091613bbd575b5060019061430b565b61371f61370f6136f88b6136f26136ed60208901612b8a565b612059565b90612075565b613709670de0b6b3a764000061203d565b90612075565b9161371a6001610958565b612075565b906120e5565b9061376e602061373c61373787610f9e565b610faa565b6370a082319061376361374e3061115c565b92613757610193565b95869485938493611004565b8352600483016102cf565b03915afa908115613bb857600091613b8a575b5061379c6137976137926003610883565b6110e2565b6110ee565b639dc29fac338b92803b15613b85576137c9600080946137d46137bd610193565b97889687958694611004565b84526004840161110a565b03925af18015613b8057613b53575b50806137f76137f1856101de565b916101de565b101560001461382657505061381b9061381261382194610f9e565b90869091613538565b5b61114d565b613624565b61383290839293611ae5565b9161383f60008201612ba4565b9061384c60808201613583565b61385f6138596000610519565b91610519565b1460001461390d575061387b6138766020926114d6565b6114e2565b63b460af9493906138a1600033966138ac33613895610193565b998a9788968795611004565b8552600485016135d8565b03925af1801561390857613821946138d6936138cd926138dc575b50610f9e565b90869091613538565b5b61381c565b6138fc9060203d8111613901575b6138f48183610fdb565b810190611019565b6138c7565b503d6138ea565b611038565b915091935061391e60808201613583565b61393161392b6001610519565b91610519565b14600014613a0c575061394e61394960073390610f26565b610883565b908161396b6139656139606000611a23565b6101ae565b916101ae565b14613989575b50613821926139839133919091614647565b5b6138d7565b90506139943061115c565b9061399d610193565b916107b683019083821067ffffffffffffffff831117613a075783926139ca926107b6614dba86396135b4565b03906000f08015613a0257613821926139e561398392611f00565b6139fa816139f560073390610f26565b611e70565b915092613971565b611038565b610fc5565b6020613a2060a0613a5b9396949601612ba4565b92613a32613a2d8561359c565b6135a8565b613a50600063c6e6f592613a44610193565b96879586948593611004565b835260048301610396565b03925af1918215613b4e57613a8b613a83613a9594613a9094600091613b20575b5096610f9e565b828791613538565b61359c565b6135a8565b91631e9a695090859093803b15613b1b57613ac460008094613acf613ab8610193565b98899687958694611004565b84526004840161110a565b03925af1918215613b165761382192613ae9575b50613984565b613b099060003d8111613b0f575b613b018183610fdb565b8101906110fa565b38613ae3565b503d613af7565b611038565b610fb6565b613b41915060203d8111613b47575b613b398183610fdb565b810190611019565b38613a7c565b503d613b2f565b611038565b613b739060003d8111613b79575b613b6b8183610fdb565b8101906110fa565b386137e3565b503d613b61565b611038565b610fb6565b613bab915060203d8111613bb1575b613ba38183610fdb565b810190611019565b38613781565b503d613b99565b611038565b613bde915060203d8111613be4575b613bd68183610fdb565b810190611019565b386136cb565b503d613bcc565b611038565b5092505050565b90565b613c0e613c09613c1392613bf7565b61081a565b6104e1565b90565b613c22613c28916104e1565b916104e1565b90039060ff8211613c3557565b611acf565b90565b613c51613c4c613c5692613c3a565b61081a565b6101de565b90565b613c62906104e1565b604d8111613c7057600a0a90565b611acf565b613c7d6114c5565b5080613c92613c8c6012613bfa565b916104e1565b10600014613cc257613cb9613cb4613cbf9392613caf6012613bfa565b613c16565b613c59565b906120e5565b90565b80613cd6613cd06012613bfa565b916104e1565b11613cdf575090565b613cff613cfa613d059392613cf46012613bfa565b90613c16565b613c59565b90612075565b90565b916020613d2a929493613d23604082019660008301906109cc565b01906109cc565b565b613d64613d5d613d4e613d3f6001610958565b613d4887612059565b906120aa565b613d5785612059565b90611ae5565b6001613113565b613d7c836000613d7660058590610851565b01612e1a565b9091613da87ffe53ad22d287601d2ed917d8aedf4a9bf6f948833c8b55fbc07d8a4e1cdd778992610845565b92613dbd613db4610193565b92839283613d08565b0390a2565b604090613dec613df39496959396613de2606084019860008501906102c2565b60208301906102c2565b0190610389565b565b613e429391613e2e600494613e3d9394613e126323b872dd61351c565b93919091613e1e610193565b9788956020870190815201613dc2565b60208201810382520383610fdb565b6144d2565b565b606090565b90613e5491016101de565b90565b67ffffffffffffffff8111613e7557613e71602091610fbb565b0190565b610fc5565b90613e8c613e8783613e57565b61166d565b918252565b369037565b90613ebb613ea383613e7a565b92602080613eb18693613e57565b9201910390613e91565b565b6001613ec991036101de565b90565b613ed8613ede916101de565b916101de565b908115613ee9570490565b6120cf565b613ef6613e44565b50613f13613f0382614891565b613f0d6001610b7e565b90613e49565b90613f1d82613e96565b91613f266114c5565b5060200182015b600115613f9157613f40613f6c91613ebd565b916f181899199a1a9b1b9c1cb0b131b232b360811b600a82061a8353613f66600a613c3d565b90613ecc565b80613f80613f7a6000611131565b916101de565b14613f8b5790613f2d565b50505b90565b5050613f8e565b916020613fba929493613fb360408201966000830190610389565b01906102c2565b565b613fc66006610780565b90613fd16000611131565b5b80613fe5613fdf856101de565b916101de565b10156142e057614008614003613ffd6006849061078f565b906102a4565b610f9e565b90614049602061401784610faa565b6370a082319061403e6140293061115c565b92614032610193565b95869485938493611004565b8352600483016102cf565b03915afa9081156142db576000916142ad575b50614085614080600561407a6140746006879061078f565b906102a4565b90610851565b6118ad565b9061409260c08301611188565b90806140a66140a0846101de565b916101de565b106142a057906140b591611ae5565b906140c260808201613583565b6140d56140cf6000610519565b91610519565b14801561427a575b6000146141d1576140fb6140f660006141009301612ba4565b6114d6565b6114e2565b926020636e553f6594839061413160006141193061115c565b9861413c614125610193565b9a8b9687958694611004565b845260048401613f98565b03925af19081156141cc5761419b9461415b926141a0575b505b610faa565b907f60a87e0712ebfb325304641a2056198edc17feb06aeac8f8a57a1087a859db8d91614192614189610193565b9283928361110a565b0390a15b61114d565b613fd2565b6141c09060203d81116141c5575b6141b88183610fdb565b810190611019565b614154565b503d6141ae565b611038565b6141e86141e360a06141ed9301612ba4565b61359c565b6135a8565b9263b6b55f2582853b15614275576142259561421a6000809461420e610193565b998a9586948593611004565b835260048301610396565b03925af19081156142705761419b9461415b92614243575b50614156565b6142639060003d8111614269575b61425b8183610fdb565b8101906110fa565b3861423d565b503d614251565b611038565b610fb6565b5061428760808201613583565b61429a6142946001610519565b91610519565b146140dd565b50505061419b9150614196565b6142ce915060203d81116142d4575b6142c68183610fdb565b810190611019565b3861405c565b503d6142bc565b611038565b509050565b600090565b6142f26142e5565b503b6143076143016000611131565b916101de565b1190565b906143146114c5565b506000146143585780614337614331670de0b6b3a764000061203d565b916101de565b10614341575b5b90565b50614353670de0b6b3a764000061203d565b61433d565b8061437361436d670de0b6b3a764000061203d565b916101de565b1161437e575b61433e565b50614390670de0b6b3a764000061203d565b614379565b60007f5361666545524332303a206c6f772d6c6576656c2063616c6c206661696c6564910152565b6143c76020613e7a565b906143d460208301614395565b565b6143de6143bd565b90565b5190565b6143ee8161288c565b036143f557565b600080fd5b90505190614407826143e5565b565b9060208282031261442357614420916000016143fa565b90565b61019e565b60207f6f74207375636365656400000000000000000000000000000000000000000000917f5361666545524332303a204552433230206f7065726174696f6e20646964206e60008201520152565b614483602a604092611049565b61448c81614428565b0190565b6144a69060208101906000818303910152614476565b90565b156144b057565b6144b8610193565b62461bcd60e51b8152806144ce60048201614490565b0390fd5b61451c916144e26144f192610faa565b906144eb6143d6565b91614af8565b6144fa816143e1565b61450d6145076000611131565b916101de565b1490811561451e575b506144a9565b565b6145399150602061452e826143e1565b818301019101614409565b38614516565b60007f4d75737420776974686472617720736f6d657468696e67000000000000000000910152565b6145746017602092611049565b61457d8161453f565b0190565b6145979060208101906000818303910152614567565b90565b156145a157565b6145a9610193565b62461bcd60e51b8152806145bf60048201614581565b0390fd5b60007f4d757374207370656369667920726563697069656e7400000000000000000000910152565b6145f86016602092611049565b614601816145c3565b0190565b61461b90602081019060008183039101526145eb565b90565b1561462557565b61462d610193565b62461bcd60e51b81528061464360048201614605565b0390fd5b61469c9192614692614697926146708661466a6146646000611131565b916101de565b1161459a565b61468b6146856146806000611a23565b6101ae565b916101ae565b141561461e565b611ef4565b611f00565b90634b77556390823b15614718576146d4926146c9600080946146bd610193565b96879586948593611004565b835260048301610396565b03925af18015614713576146e6575b50565b6147069060003d811161470c575b6146fe8183610fdb565b8101906110fa565b386146e3565b503d6146f4565b611038565b610fb6565b90565b61473461472f6147399261471d565b61081a565b6101de565b90565b90565b61475361474e6147589261473c565b61081a565b6101de565b90565b90565b61477261476d6147779261475b565b61081a565b6101de565b90565b90565b61479161478c6147969261477a565b61081a565b6101de565b90565b90565b6147b06147ab6147b592614799565b61081a565b6101de565b90565b90565b6147cf6147ca6147d4926147b8565b61081a565b6101de565b90565b90565b6147ee6147e96147f3926147d7565b61081a565b6101de565b90565b90565b61480d614808614812926147f6565b61081a565b6101de565b90565b90565b61482c61482761483192614815565b61081a565b6101de565b90565b90565b61484b61484661485092614834565b61081a565b6101de565b90565b90565b61486a61486561486f92614853565b61081a565b6101de565b90565b90565b61488961488461488e92614872565b61081a565b6101de565b90565b6148996114c5565b506148a46000611131565b90806148d36148cd7a184f03e93ff9f4daa797ed6e38ed64bf6a1f010000000000000000614720565b916101de565b1015614aab575b806148fb6148f56d04ee2d6d415b85acef810000000061475e565b916101de565b1015614a70575b8061491c614916662386f26fc1000061479c565b916101de565b1015614a3c575b8061493a6149346305f5e1006147da565b916101de565b1015614a0b575b80614956614950612710614818565b916101de565b10156149dc575b8061497161496b6064614856565b916101de565b10156149ae575b61498b614985600a613c3d565b916101de565b1015614995575b90565b6149a9906149a36001610b7e565b90613e49565b614992565b6149c56149d6916149bf6064614856565b90613ecc565b916149d06002614875565b90613e49565b90614978565b6149f4614a05916149ee612710614818565b90613ecc565b916149ff6004614837565b90613e49565b9061495d565b614a25614a3691614a1f6305f5e1006147da565b90613ecc565b91614a3060086147f9565b90613e49565b90614941565b614a59614a6a91614a53662386f26fc1000061479c565b90613ecc565b91614a6460106147bb565b90613e49565b90614923565b614a94614aa591614a8e6d04ee2d6d415b85acef810000000061475e565b90613ecc565b91614a9f602061477d565b90613e49565b90614902565b614adc614aed91614ad67a184f03e93ff9f4daa797ed6e38ed64bf6a1f010000000000000000614720565b90613ecc565b91614ae7604061473f565b90613e49565b906148da565b606090565b90614b189291614b06614af3565b5090614b126000611131565b91614c36565b90565b614b2490610839565b90565b60207f722063616c6c0000000000000000000000000000000000000000000000000000917f416464726573733a20696e73756666696369656e742062616c616e636520666f60008201520152565b614b826026604092611049565b614b8b81614b27565b0190565b614ba59060208101906000818303910152614b75565b90565b15614baf57565b614bb7610193565b62461bcd60e51b815280614bcd60048201614b8f565b0390fd5b67ffffffffffffffff8111614bef57614beb602091610fbb565b0190565b610fc5565b90614c06614c0183614bd1565b61166d565b918252565b3d600014614c2857614c1c3d614bf4565b903d6000602084013e5b565b614c30614af3565b90614c26565b9160008091614c8d9593614c48614af3565b50614c6f614c5530614b1b565b31614c68614c62856101de565b916101de565b1015614ba8565b8591602082019151925af191614c83614c0b565b9092909192614d14565b90565b60007f416464726573733a2063616c6c20746f206e6f6e2d636f6e7472616374000000910152565b614cc5601d602092611049565b614cce81614c90565b0190565b614ce89060208101906000818303910152614cb8565b90565b15614cf257565b614cfa610193565b62461bcd60e51b815280614d1060048201614cd2565b0390fd5b919290614d1f614af3565b50600014614d655750614d31826143e1565b614d44614d3e6000611131565b916101de565b14614d4e575b5090565b614d5a614d5f916142ea565b614ceb565b38614d4a565b8290614d70826143e1565b614d83614d7d6000611131565b916101de565b11600014614d945750805190602001fd5b614db590614da0610193565b91829162461bcd60e51b8352600483016125bc565b0390fdfe6080604052346100305761001a61001461010a565b906101a7565b610022610035565b6105f66101c082396105f690f35b61003b565b60405190565b600080fd5b601f801991011690565b634e487b7160e01b600052604160045260246000fd5b9061006a90610040565b810190811060018060401b0382111761008257604052565b61004a565b9061009a610093610035565b9283610060565b565b600080fd5b60018060a01b031690565b6100b5906100a1565b90565b6100c1816100ac565b036100c857565b600080fd5b905051906100da826100b8565b565b919060408382031261010557806100f961010292600086016100cd565b936020016100cd565b90565b61009c565b6101286107b68038038061011d81610087565b9283398101906100dc565b9091565b60001b90565b9061014360018060a01b039161012c565b9181191691161790565b90565b61016461015f610169926100a1565b61014d565b6100a1565b90565b61017590610150565b90565b6101819061016c565b90565b90565b9061019c6101976101a392610178565b610184565b8254610132565b9055565b906101b66101bd926000610187565b6001610187565b56fe60806040526004361015610013575b61026f565b61001e60003561005d565b80634b7755631461005857806351cff8d914610053578063cc31b2561461004e5763fc84bcaf0361000e5761023a565b6101f5565b61014c565b6100bf565b60e01c90565b60405190565b600080fd5b600080fd5b90565b61007f81610073565b0361008657565b600080fd5b9050359061009882610076565b565b906020828203126100b4576100b19160000161008b565b90565b61006e565b60000190565b346100ed576100d76100d236600461009a565b610461565b6100df610063565b806100e9816100b9565b0390f35b610069565b60018060a01b031690565b610106906100f2565b90565b610112816100fd565b0361011957565b600080fd5b9050359061012b82610109565b565b90602082820312610147576101449160000161011e565b90565b61006e565b3461017a5761016461015f36600461012d565b610525565b61016c610063565b80610176816100b9565b0390f35b610069565b600091031261018a57565b61006e565b1c90565b60018060a01b031690565b6101ae9060086101b3930261018f565b610193565b90565b906101c1915461019e565b90565b6101cf6000806101b6565b90565b6101db906100fd565b9052565b91906101f3906000602085019401906101d2565b565b346102255761020536600461017f565b6102216102106101c4565b610218610063565b918291826101df565b0390f35b610069565b61023760016000906101b6565b90565b3461026a5761024a36600461017f565b61026661025561022a565b61025d610063565b918291826101df565b0390f35b610069565b600080fd5b60001c90565b61028661028b91610274565b610193565b90565b610298905461027a565b90565b60209181520190565b60207f6472617700000000000000000000000000000000000000000000000000000000917f4f6e6c792062656e746f5553445661756c742063616e2063616c6c207769746860008201520152565b6102ff602460409261029b565b610308816102a4565b0190565b61032290602081019060008183039101526102f2565b90565b1561032c57565b610334610063565b62461bcd60e51b81528061034a6004820161030c565b0390fd5b90565b61036561036061036a926100f2565b61034e565b6100f2565b90565b61037690610351565b90565b6103829061036d565b90565b61038e90610351565b90565b61039a90610385565b90565b600080fd5b601f801991011690565b634e487b7160e01b600052604160045260246000fd5b906103cc906103a2565b810190811067ffffffffffffffff8211176103e657604052565b6103ac565b60e01b90565b905051906103fe82610076565b565b9060208282031261041a57610417916000016103f1565b90565b61006e565b61042890610073565b9052565b91602061044e9294936104476040820196600083019061041f565b01906101d2565b565b610458610063565b3d6000823e3d90fd5b6104863361048061047a610475600161028e565b6100fd565b916100fd565b14610325565b60206104a261049d610498600061028e565b610379565b610391565b63a2af490092906104c7600033956104d26104bb610063565b978896879586946103eb565b84526004840161042c565b03925af18015610510576104e4575b50565b6105049060203d8111610509575b6104fc81836103c2565b810190610400565b6104e1565b503d6104f2565b610450565b600091031261052057565b61006e565b61053f61053a610535600061028e565b610379565b610391565b9063f2888dbb90823b156105bb576105779261056c60008094610560610063565b968795869485936103eb565b8352600483016101df565b03925af180156105b657610589575b50565b6105a99060003d81116105af575b6105a181836103c2565b810190610515565b38610586565b503d610597565b610450565b61039d56fea26469706673582212208894bfc5d2c82912e08dbc7abba609553e7085f58850dd9168af10aa2161d40464736f6c634300081b0033a2646970667358221220c85e64ddd4531cc5de9a8f85f5dfca5112efec00f326b10a190279ce88f4e9ec64736f6c634300081b0033","abi":[{"inputs":[],"stateMutability":"nonpayable","type":"constructor"},{"inputs":[{"internalType":"string","name":"reason","type":"string"}],"name":"SwapFailed","type":"error"},{"anonymous":false,"inputs":[{"indexed":true,"internalType":"address","name":"asset","type":"address"},{"indexed":false,"internalType":"uint32","name":"weight","type":"uint32"}],"name":"AssetAdded","type":"event"},{"anonymous":false,"inputs":[{"indexed":false,"internalType":"address","name":"asset","type":"address"},{"indexed":false,"internalType":"uint256","name":"amount","type":"uint256"}],"name":"AssetAllocated","type":"event"},{"anonymous":false,"inputs":[{"indexed":true,"internalType":"address","name":"asset","type":"address"}],"name":"AssetRemoved","type":"event"},{"anonymous":false,"inputs":[{"indexed":true,"internalType":"address","name":"asset","type":"address"},{"indexed":false,"internalType":"uint32","name":"oldWeight","type":"uint32"},{"indexed":false,"internalType":"uint32","name":"newWeight","type":"uint32"}],"name":"AssetWeightChanged","type":"event"},{"anonymous":false,"inputs":[{"indexed":true,"internalType":"address","name":"bentoUSD","type":"address"}],"name":"BentoUSDUpdated","type":"event"},{"anonymous":false,"inputs":[{"indexed":true,"internalType":"address","name":"governor","type":"address"}],"name":"GovernorUpdated","type":"event"},{"anonymous":false,"inputs":[{"indexed":false,"internalType":"uint8","name":"version","type":"uint8"}],"name":"Initialized","type":"event"},{"anonymous":false,"inputs":[{"indexed":true,"internalType":"address","name":"oracleRouter","type":"address"}],"name":"OracleRouterUpdated","type":"event"},{"anonymous":false,"inputs":[{"indexed":false,"internalType":"address","name":"inputAsset","type":"address"},{"indexed":false,"internalType":"address","name":"outputAsset","type":"address"},{"indexed":false,"internalType":"address","name":"router","type":"address"},{"indexed":false,"internalType":"uint256","name":"amount","type":"uint256"}],"name":"Swap","type":"event"},{"inputs":[{"internalType":"uint256","name":"","type":"uint256"}],"name":"allAssets","outputs":[{"internalType":"address","name":"","type":"address"}],"stateMutability":"view","type":"function"},{"inputs":[],"name":"allocate","outputs":[],"stateMutability":"nonpayable","type":"function"},{"inputs":[{"internalType":"address","name":"","type":"address"}],"name":"assetToAssetInfo","outputs":[{"internalType":"address","name":"ltToken","type":"address"},{"internalType":"uint32","name":"weight","type":"uint32"},{"internalType":"uint8","name":"decimals","type":"uint8"},{"internalType":"uint8","name":"index","type":"uint8"},{"internalType":"enum StrategyType","name":"strategyType","type":"uint8"},{"internalType":"address","name":"strategy","type":"address"},{"internalType":"uint256","name":"minimalAmountInVault","type":"uint256"}],"stateMutability":"view","type":"function"},{"inputs":[],"name":"bentoUSD","outputs":[{"internalType":"address","name":"","type":"address"}],"stateMutability":"view","type":"function"},{"inputs":[{"internalType":"uint256","name":"amount","type":"uint256"},{"internalType":"address","name":"asset","type":"address"},{"internalType":"address","name":"ltToken","type":"address"}],"name":"convertToLTAmount","outputs":[{"internalType":"uint256","name":"","type":"uint256"}],"stateMutability":"view","type":"function"},{"inputs":[],"name":"deviationTolerance","outputs":[{"internalType":"uint256","name":"","type":"uint256"}],"stateMutability":"view","type":"function"},{"inputs":[],"name":"getAllAssets","outputs":[{"internalType":"address[]","name":"","type":"address[]"}],"stateMutability":"view","type":"function"},{"inputs":[],"name":"getAssetInfos","outputs":[{"components":[{"internalType":"address","name":"ltToken","type":"address"},{"internalType":"uint32","name":"weight","type":"uint32"},{"internalType":"uint8","name":"decimals","type":"uint8"},{"internalType":"uint8","name":"index","type":"uint8"},{"internalType":"enum StrategyType","name":"strategyType","type":"uint8"},{"internalType":"address","name":"strategy","type":"address"},{"internalType":"uint256","name":"minimalAmountInVault","type":"uint256"}],"internalType":"struct AssetInfo[]","name":"","type":"tuple[]"}],"stateMutability":"view","type":"function"},{"inputs":[{"internalType":"uint256","name":"desiredAmount","type":"uint256"}],"name":"getDepositAssetAmounts","outputs":[{"internalType":"uint256[]","name":"","type":"uint256[]"},{"internalType":"uint256","name":"","type":"uint256"}],"stateMutability":"view","type":"function"},{"inputs":[{"internalType":"uint256","name":"inputAmount","type":"uint256"}],"name":"getOutputLTAmounts","outputs":[{"internalType":"uint256[]","name":"","type":"uint256[]"}],"stateMutability":"view","type":"function"},{"inputs":[],"name":"governor","outputs":[{"internalType":"address","name":"","type":"address"}],"stateMutability":"view","type":"function"},{"inputs":[{"internalType":"address","name":"_governor","type":"address"}],"name":"initialize","outputs":[],"stateMutability":"nonpayable","type":"function"},{"inputs":[{"internalType":"address","name":"_recipient","type":"address"},{"internalType":"uint256","name":"_amount","type":"uint256"},{"internalType":"uint256","name":"_minimumBentoUSDAmount","type":"uint256"}],"name":"mintBasket","outputs":[],"stateMutability":"nonpayable","type":"function"},{"inputs":[],"name":"oracleRouter","outputs":[{"internalType":"address","name":"","type":"address"}],"stateMutability":"view","type":"function"},{"inputs":[{"internalType":"address","name":"_recipient","type":"address"},{"internalType":"uint256","name":"_amount","type":"uint256"}],"name":"redeemLTBasket","outputs":[],"stateMutability":"nonpayable","type":"function"},{"inputs":[{"internalType":"address","name":"_recipient","type":"address"},{"internalType":"uint256","name":"_amount","type":"uint256"}],"name":"redeemUnderlyingBasket","outputs":[],"stateMutability":"nonpayable","type":"function"},{"inputs":[{"internalType":"address","name":"_asset","type":"address"}],"name":"removeAsset","outputs":[],"stateMutability":"nonpayable","type":"function"},{"inputs":[{"internalType":"address","name":"_asset","type":"address"},{"internalType":"uint8","name":"_decimals","type":"uint8"},{"internalType":"uint32","name":"_weight","type":"uint32"},{"internalType":"address","name":"_ltToken","type":"address"},{"internalType":"enum StrategyType","name":"_strategyType","type":"uint8"},{"internalType":"address","name":"_strategy","type":"address"},{"internalType":"uint256","name":"_minimalAmountInVault","type":"uint256"}],"name":"setAsset","outputs":[],"stateMutability":"nonpayable","type":"function"},{"inputs":[{"internalType":"address","name":"_bentoUSD","type":"address"}],"name":"setBentoUSD","outputs":[],"stateMutability":"nonpayable","type":"function"},{"inputs":[{"internalType":"address","name":"_oracleRouter","type":"address"}],"name":"setOracleRouter","outputs":[],"stateMutability":"nonpayable","type":"function"},{"inputs":[],"name":"totalWeight","outputs":[{"internalType":"uint256","name":"","type":"uint256"}],"stateMutability":"view","type":"function"},{"inputs":[{"internalType":"address","name":"","type":"address"}],"name":"userToEthenaWalletProxy","outputs":[{"internalType":"address","name":"","type":"address"}],"stateMutability":"view","type":"function"},{"inputs":[{"internalType":"address","name":"_recipient","type":"address"}],"name":"withdrawFromEthena","outputs":[],"stateMutability":"nonpayable","type":"function"}]}