{"address":"0xEd3407bF7ba7ebD6c1aFb23F69FEa71268A6A511","bytecode":"0x60806040523461002757610011610037565b61001961002c565b61519e610267823961519e90f35b610032565b60405190565b600080fd5b61003f6101da565b565b60081c90565b60ff1690565b61005961005e91610041565b610047565b90565b61006b905461004d565b90565b151590565b60209181520190565b60207f616c697a696e6700000000000000000000000000000000000000000000000000917f496e697469616c697a61626c653a20636f6e747261637420697320696e69746960008201520152565b6100d76027604092610073565b6100e08161007c565b0190565b6100fa90602081019060008183039101526100ca565b90565b1561010457565b61010c61002c565b62461bcd60e51b815280610122600482016100e4565b0390fd5b60001c90565b60ff1690565b61013e61014391610126565b61012c565b90565b6101509054610132565b90565b60ff1690565b60001b90565b9061016b60ff91610159565b9181191691161790565b90565b61018c61018761019192610153565b610175565b610153565b90565b90565b906101ac6101a76101b392610178565b610194565b825461015f565b9055565b6101c090610153565b9052565b91906101d8906000602085019401906101b7565b565b6101f56101f06101ea6000610061565b1561006e565b6100fd565b6101ff6000610146565b61021261020c60ff610153565b91610153565b0361021a575b565b61022660ff6000610197565b60ff61025e7f7f26b83ff96e1f2b6a682f133852f6798a09c465da95921460cefb38474024989161025561002c565b918291826101c4565b0390a161021856fe60a06040526004361015610013575b6110e5565b61001e6000356101dd565b80630a789ece146101d85780630b5580a4146101d35780630c340a24146101ce57806315e6bc99146101c957806322acb867146101c45780632fd34f5f146101bf5780634a3e6544146101ba5780634a5e42b1146101b55780634a7fe890146101b05780634d69ee0e146101ab57806355a29e91146101a6578063578e5c22146101a157806367e4ac2c1461019c57806372cb5d9714610197578063829c8db71461019257806396c82e571461018d578063a158b3ae14610188578063a1b2439e14610183578063abaa99161461017e578063aee3fee714610179578063b0ce3dfa14610174578063b5c705b51461016f578063b658e9f81461016a578063bca678e014610165578063c4d66de814610160578063c9339e9f1461015b578063caa648b4146101565763f11b81880361000e576110ac565b610f08565b610ed3565b610ea0565b610e6b565b610e05565b610da4565b610d6d565b610d36565b610c74565b610c3e565b610be2565b610b76565b610ae5565b610aa1565b610a3e565b6108f9565b610849565b610806565b6107d1565b6106fd565b6106c8565b610674565b610528565b61044a565b6103e7565b610394565b610313565b60e01c90565b60405190565b600080fd5b600080fd5b600080fd5b60018060a01b031690565b61020c906101f8565b90565b61021881610203565b0361021f57565b600080fd5b905035906102318261020f565b565b9060208282031261024d5761024a91600001610224565b90565b6101ee565b90565b61026961026461026e926101f8565b610252565b6101f8565b90565b61027a90610255565b90565b61028690610271565b90565b906102939061027d565b600052602052604060002090565b1c90565b60018060a01b031690565b6102c09060086102c593026102a1565b6102a5565b90565b906102d391546102b0565b90565b6102ed906102e8600791600092610289565b6102c8565b90565b6102f990610203565b9052565b9190610311906000602085019401906102f0565b565b346103435761033f61032e610329366004610233565b6102d6565b6103366101e3565b918291826102fd565b0390f35b6101e9565b90565b61035481610348565b0361035b57565b600080fd5b9050359061036d8261034b565b565b906020828203126103895761038691600001610360565b90565b6101ee565b60000190565b346103c2576103ac6103a736600461036f565b6113de565b6103b46101e3565b806103be8161038e565b0390f35b6101e9565b60009103126103d257565b6101ee565b6103e460026000906102c8565b90565b34610417576103f73660046103c7565b6104136104026103d7565b61040a6101e3565b918291826102fd565b0390f35b6101e9565b919060408382031261044557806104396104429260008601610360565b93602001610360565b90565b6101ee565b346104795761046361045d36600461041c565b9061181f565b61046b6101e3565b806104758161038e565b0390f35b6101e9565b5190565b60209181520190565b60200190565b63ffffffff1690565b6104a390610491565b9052565b906104b48160209361049a565b0190565b60200190565b906104db6104d56104ce8461047e565b8093610482565b9261048b565b9060005b8181106104ec5750505090565b9091926105056104ff60019286516104a7565b946104b8565b91019190916104df565b61052591602082019160008184039101526104be565b90565b34610558576105383660046103c7565b610554610543611a56565b61054b6101e3565b9182918261050f565b0390f35b6101e9565b600080fd5b600080fd5b600080fd5b909182601f830112156105a65781359167ffffffffffffffff83116105a157602001926020830284011161059c57565b610567565b610562565b61055d565b909182601f830112156105e55781359167ffffffffffffffff83116105e05760200192602083028401116105db57565b610567565b610562565b61055d565b909160a08284031261066f576106038360008401610224565b926106118160208501610360565b9261061f8260408301610360565b92606082013567ffffffffffffffff811161066a578361064091840161056c565b929093608082013567ffffffffffffffff81116106655761066192016105ab565b9091565b6101f3565b6101f3565b6101ee565b346106a9576106936106873660046105ea565b95949094939193611af0565b61069b6101e3565b806106a58161038e565b0390f35b6101e9565b6106c5906106c0600991600092610289565b6102c8565b90565b346106f8576106f46106e36106de366004610233565b6106ae565b6106eb6101e3565b918291826102fd565b0390f35b6101e9565b3461072b57610715610710366004610233565b611f5d565b61071d6101e3565b806107278161038e565b0390f35b6101e9565b5190565b60209181520190565b60200190565b61074c90610348565b9052565b9061075d81602093610743565b0190565b60200190565b9061078461077e61077784610730565b8093610734565b9261073d565b9060005b8181106107955750505090565b9091926107ae6107a86001928651610750565b94610761565b9101919091610788565b6107ce9160208201916000818403910152610767565b90565b34610801576107e13660046103c7565b6107fd6107ec61208c565b6107f46101e3565b918291826107b8565b0390f35b6101e9565b346108345761081e610819366004610233565b612301565b6108266101e3565b806108308161038e565b0390f35b6101e9565b61084660046000906102c8565b90565b34610879576108593660046103c7565b610875610864610839565b61086c6101e3565b918291826102fd565b0390f35b6101e9565b634e487b7160e01b600052603260045260246000fd5b5490565b600052602060002090565b6108ac81610894565b8210156108c7576108be600191610898565b91020190600090565b61087e565b60066108d781610894565b8210156108f4576108f1916108eb916108a3565b906102c8565b90565b600080fd5b346109295761092561091461090f36600461036f565b6108cc565b61091c6101e3565b918291826102fd565b0390f35b6101e9565b5190565b60209181520190565b60200190565b151590565b61094f90610941565b9052565b60ff1690565b61096290610953565b9052565b61096f90610203565b9052565b906060806109bb9361098d60008201516000860190610946565b61099f60208201516020860190610959565b6109b16040820151604086019061049a565b0151910190610966565b565b906109ca81608093610973565b0190565b60200190565b906109f16109eb6109e48461092e565b8093610932565b9261093b565b9060005b818110610a025750505090565b909192610a1b610a1560019286516109bd565b946109ce565b91019190916109f5565b610a3b91602082019160008184039101526109d4565b90565b34610a6e57610a4e3660046103c7565b610a6a610a596124b7565b610a616101e3565b91829182610a25565b0390f35b6101e9565b9190604083820312610a9c5780610a90610a999260008601610224565b93602001610224565b90565b6101ee565b34610ad057610aba610ab4366004610a73565b90612598565b610ac26101e3565b80610acc8161038e565b0390f35b6101e9565b610ae260036000906102c8565b90565b34610b1557610af53660046103c7565b610b11610b00610ad5565b610b086101e3565b918291826102fd565b0390f35b6101e9565b90565b610b2d906008610b3293026102a1565b610b1a565b90565b90610b409154610b1d565b90565b610b506001600090610b35565b90565b610b5c90610348565b9052565b9190610b7490600060208501940190610b53565b565b34610ba657610b863660046103c7565b610ba2610b91610b43565b610b996101e3565b91829182610b60565b0390f35b6101e9565b90565b610bc2610bbd610bc792610bab565b610252565b610348565b90565b610bd46001610bae565b90565b610bdf610bca565b90565b34610c1257610bf23660046103c7565b610c0e610bfd610bd7565b610c056101e3565b91829182610b60565b0390f35b6101e9565b92916020610c34610c3c9360408701908782036000890152610767565b940190610b53565b565b34610c6f57610c56610c5136600461036f565b61269a565b90610c6b610c626101e3565b92839283610c17565b0390f35b6101e9565b34610ca257610c843660046103c7565b610c8c612a01565b610c946101e3565b80610c9e8161038e565b0390f35b6101e9565b610cb081610953565b03610cb757565b600080fd5b90503590610cc982610ca7565b565b610cd481610491565b03610cdb57565b600080fd5b90503590610ced82610ccb565b565b608081830312610d3157610d068260008301610224565b92610d2e610d178460208501610cbc565b93610d258160408601610ce0565b93606001610224565b90565b6101ee565b34610d6857610d52610d49366004610cef565b92919091612bc0565b610d5a6101e3565b80610d648161038e565b0390f35b6101e9565b34610d9f57610d89610d80366004610cef565b92919091612d9f565b610d916101e3565b80610d9b8161038e565b0390f35b6101e9565b34610dd257610dbc610db7366004610233565b612e2a565b610dc46101e3565b80610dce8161038e565b0390f35b6101e9565b9190604083820312610e005780610df4610dfd9260008601610224565b93602001610360565b90565b6101ee565b34610e3457610e1e610e18366004610dd7565b90612ed2565b610e266101e3565b80610e308161038e565b0390f35b6101e9565b90610e439061027d565b600052602052604060002090565b610e6890610e63600891600092610e39565b610b35565b90565b34610e9b57610e97610e86610e81366004610233565b610e51565b610e8e6101e3565b91829182610b60565b0390f35b6101e9565b34610ece57610eb8610eb3366004610233565b613257565b610ec06101e3565b80610eca8161038e565b0390f35b6101e9565b34610f0357610eff610eee610ee936600461036f565b613283565b610ef66101e3565b918291826107b8565b0390f35b6101e9565b34610f3857610f183660046103c7565b610f34610f23613503565b610f2b6101e3565b91829182610b60565b0390f35b6101e9565b90610f479061027d565b600052602052604060002090565b60001c90565b60ff1690565b610f6d610f7291610f55565b610f5b565b90565b610f7f9054610f61565b90565b60081c90565b60ff1690565b610f9a610f9f91610f82565b610f88565b90565b610fac9054610f8e565b90565b60101c90565b63ffffffff1690565b610fca610fcf91610faf565b610fb5565b90565b610fdc9054610fbe565b90565b60301c90565b610ff1610ff691610fdf565b6102a5565b90565b6110039054610fe5565b90565b611011906005610f3d565b9061101e60008301610f75565b9161102b60008201610fa2565b91611043600061103c818501610fd2565b9301610ff9565b90565b61104f90610941565b9052565b61105c90610953565b9052565b61106990610491565b9052565b6110a36110aa9461109960609498979561108f608086019a6000870190611046565b6020850190611053565b6040830190611060565b01906102f0565b565b346110e0576110dc6110c76110c2366004610233565b611006565b906110d39492946101e3565b9485948561106d565b0390f35b6101e9565b600080fd5b6110f66110fb91610f55565b6102a5565b90565b61110890546110ea565b90565b61111490610255565b90565b6111209061110b565b90565b61112c90610271565b90565b600080fd5b601f801991011690565b634e487b7160e01b600052604160045260246000fd5b9061115e90611134565b810190811067ffffffffffffffff82111761117857604052565b61113e565b60e01b90565b905051906111908261034b565b565b906020828203126111ac576111a991600001611183565b90565b6101ee565b6111b96101e3565b3d6000823e3d90fd5b60209181520190565b60207f20696e207573657227732077616c6c6574000000000000000000000000000000917f5661756c74436f72653a20696e73756666696369656e742042656e746f55534460008201520152565b61122660316040926111c2565b61122f816111cb565b0190565b6112499060208101906000818303910152611219565b90565b1561125357565b61125b6101e3565b62461bcd60e51b81528061127160048201611233565b0390fd5b61127e90610255565b90565b61128a90611275565b90565b61129690610271565b90565b60009103126112a457565b6101ee565b9160206112cb9294936112c4604082019660008301906102f0565b0190610b53565b565b90565b6112e46112df6112e9926112cd565b610252565b610348565b90565b60016112f89101610348565b90565b61130490610271565b90565b9061131182610730565b811015611322576020809102010190565b61087e565b6113319051610348565b90565b60207f7320696e207661756c7400000000000000000000000000000000000000000000917f5661756c74436f72653a20696e73756666696369656e74204c5420746f6b656e60008201520152565b61138f602a6040926111c2565b61139881611334565b0190565b6113b29060208101906000818303910152611382565b90565b156113bc57565b6113c46101e3565b62461bcd60e51b8152806113da6004820161139c565b0390fd5b906113e882613283565b9161143260206114086114036113fe60036110fe565b611117565b611123565b6370a0823190611427339261141b6101e3565b9586948593849361117d565b8352600483016102fd565b03915afa8015611679576114629160009161164b575b5061145b61145584610348565b91610348565b101561124c565b61147c61147761147260036110fe565b611281565b61128d565b90639dc29fac90339092803b15611646576114ab600080946114b661149f6101e3565b9788968795869461117d565b8452600484016112a9565b03925af1801561164157611614575b506114d060006112d0565b5b806114ed6114e76114e26006610894565b610348565b91610348565b101561160f5761151d600061151761151061150a600686906108a3565b906102c8565b6005610f3d565b01610ff9565b90611566602061153461152f85611117565b611123565b6370a082319061155b611546306112fb565b9261154f6101e3565b9586948593849361117d565b8352600483016102fd565b03915afa801561160a576115d7936115b36115b8926115d2946000916115dc575b506115ac6115a66115a161159c8c8a90611307565b611327565b610348565b91610348565b10156113b5565b611117565b336115cc6115c7888690611307565b611327565b91613819565b6112ec565b6114d1565b6115fd915060203d8111611603575b6115f58183611154565b810190611192565b38611587565b503d6115eb565b6111b1565b509050565b6116349060003d811161163a575b61162c8183611154565b810190611299565b386114c5565b503d611622565b6111b1565b61112f565b61166c915060203d8111611672575b6116648183611154565b810190611192565b38611448565b503d61165a565b6111b1565b905090565b60207f6967682e20546f74616c2076616c75653a200000000000000000000000000000917f5661756c74436f72653a20707269636520646576696174696f6e20746f6f206860008201520152565b6116dd6032809261167e565b6116e681611683565b0190565b5190565b60005b838110611702575050906000910152565b8060209183015181850152016116f1565b61173861172f92602092611726816116ea565b9485809361167e565b938491016116ee565b0190565b60007f2c204d696e696d756d2072657175697265643a20000000000000000000000000910152565b6117706014809261167e565b6117798161173c565b0190565b6117976117a2939261179161179c936116d1565b90611713565b611764565b90611713565b90565b90565b6117c76117d06020936117d5936117be816116ea565b938480936111c2565b958691016116ee565b611134565b0190565b6117ef91602082019160008184039101526117a8565b90565b156117fa5750565b61181b906118066101e3565b91829162461bcd60e51b8352600483016117d9565b0390fd5b6118289061269a565b92909261183560006112d0565b5b8061185261184c6118476006610894565b610348565b91610348565b10156118aa576118a5906118a061187c611877611871600685906108a3565b906102c8565b611117565b33611886306112fb565b9061189a6118958b8790611307565b611327565b92613897565b6112ec565b611836565b509161191191935061190b836118c86118c284610348565b91610348565b11916119066118df6118d987613990565b92613990565b916118f76118eb6101e3565b9384926020840161177d565b60208201810382520382611154565b6117a5565b906117f2565b61192b61192661192160036110fe565b611281565b61128d565b906340c10f1990339092803b156119a95761195a6000809461196561194e6101e3565b9788968795869461117d565b8452600484016112a9565b03925af180156119a457611977575b50565b6119979060003d811161199d575b61198f8183611154565b810190611299565b38611974565b503d611985565b6111b1565b61112f565b606090565b906119c66119bf6101e3565b9283611154565b565b67ffffffffffffffff81116119e05760208091020190565b61113e565b906119f76119f2836119c8565b6119b3565b918252565b369037565b90611a26611a0e836119e5565b92602080611a1c86936119c8565b92019103906119fc565b565b90611a328261047e565b811015611a43576020809102010190565b61087e565b90611a5290610491565b9052565b611a5e6119ae565b50611a71611a6c6006610894565b611a01565b611a7b60006112d0565b5b80611a98611a92611a8d6006610894565b610348565b91610348565b1015611aec57611ae790611ae2611ad06000611aca6005611ac4611abe600688906108a3565b906102c8565b90610f3d565b01610fd2565b611add8591849092611a28565b611a48565b6112ec565b611a7c565b5090565b91611b05969492959391909192939495613cf3565b565b60207f74696f6e00000000000000000000000000000000000000000000000000000000917f4f6e6c7920676f7665726e6f722063616e2063616c6c20746869732066756e6360008201520152565b611b6260246040926111c2565b611b6b81611b07565b0190565b611b859060208101906000818303910152611b55565b90565b15611b8f57565b611b976101e3565b62461bcd60e51b815280611bad60048201611b6f565b0390fd5b611bdf90611bda33611bd4611bce611bc960026110fe565b610203565b91610203565b14611b88565b611df3565b565b60007f4173736574206973206e6f7420737570706f7274656400000000000000000000910152565b611c1660166020926111c2565b611c1f81611be1565b0190565b611c399060208101906000818303910152611c09565b90565b15611c4357565b611c4b6101e3565b62461bcd60e51b815280611c6160048201611c23565b0390fd5b611c79611c74611c7e926112cd565b610252565b610491565b90565b60001b90565b90611c9360ff91611c81565b9181191691161790565b611ca690610941565b90565b90565b90611cc1611cbc611cc892611c9d565b611ca9565b8254611c87565b9055565b634e487b7160e01b600052601160045260246000fd5b611cf1611cf791939293610348565b92610348565b8203918211611d0257565b611ccc565b1b90565b91906008611d2b910291611d2560018060a01b0384611d07565b92611d07565b9181191691161790565b90565b9190611d4e611d49611d569361027d565b611d35565b908354611d0b565b9055565b90565b634e487b7160e01b600052603160045260246000fd5b5490565b600052602060002090565b611d8b81611d73565b821015611da657611d9d600191611d77565b91020190600090565b61087e565b600090565b611dc291611dbc611dab565b91611d38565b565b611dcd81611d73565b8015611dee576001900390611deb611de58383611d82565b90611db0565b55565b611d5d565b611e12611e0d6000611e0760058590610f3d565b01610f75565b611c3c565b611e3d81611e2d6000611e2760058690610f3d565b01610fd2565b611e376000611c65565b916143bc565b611e55600080611e4f60058590610f3d565b01611cac565b611e5f60006112d0565b5b80611e7c611e76611e716006610894565b610348565b91610348565b1015611f5757611e97611e91600683906108a3565b906102c8565b611ea9611ea384610203565b91610203565b14611ebc57611eb7906112ec565b611e60565b611f0290611efc611ef4611eee6006611ee8611ed86006610894565b611ee26001610bae565b90611ce2565b906108a3565b906102c8565b9160066108a3565b90611d38565b611f14611f0f6006611d5a565b611dc4565b5b611f3f7f37803e2125c48ee96c38ddf04e826daf335b0e1603579040fd275aba6d06b6fc9161027d565b90611f486101e3565b80611f528161038e565b0390a2565b50611f15565b611f6690611bb1565b565b606090565b67ffffffffffffffff8111611f855760208091020190565b61113e565b90611f9c611f9783611f6d565b6119b3565b918252565b369037565b90611fcb611fb383611f8a565b92602080611fc18693611f6d565b9201910390611fa1565b565b611fd690610255565b90565b611fe290611fcd565b90565b611fee90610271565b90565b90505190611ffe82610ca7565b565b9060208282031261201a5761201791600001611ff1565b90565b6101ee565b90565b61203661203161203b9261201f565b610252565b610348565b90565b61204790610953565b604d811161205557600a0a90565b611ccc565b61206390610255565b90565b61206f9061205a565b90565b61207b90610271565b90565b9061208890610348565b9052565b612094611f68565b5061209f6006610894565b6120a881611fa6565b916120b360006112d0565b5b806120c76120c185610348565b91610348565b10156122425761213a906120e66120e0600683906108a3565b906102c8565b602061212461211f6121196000612113600561210d61210760068b906108a3565b906102c8565b90610f3d565b01610ff9565b93611fd9565b611fe5565b63313ce567906121326101e3565b95869261117d565b8252818061214a6004820161038e565b03915afa90811561223d5761217e6121796121736020946121a597600091612210575b5061203e565b92612066565b612072565b61219a63c6e6f59261218e6101e3565b9687948593849361117d565b835260048301610b60565b03915afa91821561220b576121d8926121d3916000916121dd575b506121ce8791849092611307565b61207e565b6112ec565b6120b4565b6121fe915060203d8111612204575b6121f68183611154565b810190611192565b386121c0565b503d6121ec565b6111b1565b6122309150863d8111612236575b6122288183611154565b810190612000565b3861216d565b503d61221e565b6111b1565b5091905090565b612277906122723361226c61226661226160026110fe565b610203565b91610203565b14611b88565b6122b4565b565b9061228a60018060a01b0391611c81565b9181191691161790565b906122a96122a46122b09261027d565b611d35565b8254612279565b9055565b6122bf816004612294565b6122e97fb12580e226e25bbb446909adeb7b42f7dd51fc77e9b58f14f321016cbd68c16a9161027d565b906122f26101e3565b806122fc8161038e565b0390a2565b61230a90612249565b565b606090565b67ffffffffffffffff81116123295760208091020190565b61113e565b9061234061233b83612311565b6119b3565b918252565b61234f60806119b3565b90565b600090565b600090565b600090565b600090565b61236e612345565b9060208080808561237d612352565b815201612388612357565b81520161239361235c565b81520161239e612361565b81525050565b6123ac612366565b90565b60005b8281106123be57505050565b6020906123c96123a4565b81840152016123b2565b906123f86123e08361232e565b926020806123ee8693612311565b92019103906123af565b565b906124048261092e565b811015612415576020809102010190565b61087e565b9061242490610941565b9052565b9061243290610953565b9052565b9061244090610203565b9052565b906124a96124a06000612455612345565b9461246c612464838301610f75565b83880161241a565b61248361247a838301610fa2565b60208801612428565b61249a612491838301610fd2565b60408801611a48565b01610ff9565b60608401612436565b565b6124b490612444565b90565b6124bf61230c565b506124d26124cd6006610894565b6123d3565b6124dc60006112d0565b5b806124f96124f36124ee6006610894565b610348565b91610348565b101561254d5761254890612541612526600561252061251a600686906108a3565b906102c8565b90610f3d565b8461253184926124ab565b61253b83836123fa565b526123fa565b51506112ec565b6124dd565b5090565b906125809161257b3361257561256f61256a60026110fe565b610203565b91610203565b14611b88565b612582565b565b61259161259692916009610289565b612294565b565b906125a291612551565b565b600090565b6125b290610255565b90565b6125be906125a9565b90565b6125ca90610271565b90565b90565b6125e46125df6125e9926125cd565b610252565b610348565b90565b6126006125fb61260592610491565b610252565b610348565b90565b61261761261d91939293610348565b92610348565b91612629838202610348565b92818404149015171561263857565b611ccc565b61264c61265291939293610348565b92610348565b820180921161265d57565b611ccc565b634e487b7160e01b600052601260045260246000fd5b61268461268a91610348565b91610348565b908115612695570490565b612662565b6126a2611f68565b506126ab6125a4565b506126b66006610894565b916126c083611fa6565b926126ca81611fa6565b906126d560006112d0565b926126e060006112d0565b935b846126f56126ef85610348565b91610348565b10156128555761275b9061271461270e600688906108a3565b906102c8565b90602061273161272c61272760046110fe565b6125b5565b6125c1565b63aea910789061275085926127446101e3565b9788948593849361117d565b8352600483016102fd565b03915afa8015612850576127c26127ed936127d4926127f396600091612822575b509081612799612793670de0b6b3a76400006125d0565b91610348565b116127f9575b6127b860006127b26127bd936005610f3d565b01610fd2565b6125ec565b612608565b6127cf8b918a9092611307565b61207e565b6127e76127e28a8990611307565b611327565b9061263d565b946112ec565b936126e2565b90506127bd6127b860006127b2612817670de0b6b3a76400006125d0565b94935050505061279f565b612843915060203d8111612849575b61283b8183611154565b810190611192565b3861277c565b503d612831565b6111b1565b9295919490935061286660006112d0565b9361287160006112d0565b945b8561288661288089610348565b91610348565b10156129bc576128e7612925916128ce6128bc6128b5876128af6128aa8d8c611307565b611327565b90612608565b8990612678565b6128c98c918b9092611307565b61207e565b6128e16128dc8b8a90611307565b611327565b9061263d565b95602061290f61290a6129056128ff600686906108a3565b906102c8565b611fd9565b611fe5565b63313ce5679061291d6101e3565b94859261117d565b825281806129356004820161038e565b03915afa80156129b75761296c61297e9161298394600091612989575b506129666129618d8690611307565b611327565b90614495565b6129798b91849092611307565b61207e565b6112ec565b94612873565b6129aa915060203d81116129b0575b6129a28183611154565b810190612000565b38612952565b503d612998565b6111b1565b96945094505050509190565b6129ed336129e76129e16129dc60026110fe565b610203565b91610203565b14611b88565b6129f56129f7565b565b6129ff61454c565b565b612a096129c8565b565b90612a3c939291612a3733612a31612a2b612a2660026110fe565b610203565b91610203565b14611b88565b612b06565b565b60081b90565b90612a5161ff0091612a3e565b9181191691161790565b612a6f612a6a612a7492610953565b610252565b610953565b90565b90565b90612a8f612a8a612a9692612a5b565b612a77565b8254612a44565b9055565b60301b90565b90612ab86601000000000000600160d01b0391612a9a565b9181191691161790565b90612ad7612ad2612ade9261027d565b611d35565b8254612aa0565b9055565b916020612b04929493612afd60408201966000830190611053565b0190611060565b565b909192612b7a90612b2c612b276000612b2160058790610f3d565b01610f75565b611c3c565b612b4e83612b476000612b4160058890610f3d565b01610fd2565b87916143bc565b612b66846000612b6060058790610f3d565b01612a7a565b6000612b7460058590610f3d565b01612ac2565b9091612ba67fd19afa6a62432ff0578526c79ab25d5e83049cfd7c7dade58cb858714dc0df039261027d565b92612bbb612bb26101e3565b92839283612ae2565b0390a2565b90612bcc939291612a0b565b565b90612bff939291612bfa33612bf4612bee612be960026110fe565b610203565b91610203565b14611b88565b612cba565b565b60007f417373657420697320616c726561647920737570706f72746564000000000000910152565b612c36601a6020926111c2565b612c3f81612c01565b0190565b612c599060208101906000818303910152612c29565b90565b15612c6357565b612c6b6101e3565b62461bcd60e51b815280612c8160048201612c43565b0390fd5b9081549168010000000000000000831015612cb55782612cad916001612cb395018155611d82565b90611d38565b565b61113e565b909192612d4590612ce9612ce4612cde6000612cd860058890610f3d565b01610f75565b15610941565b612c5c565b612d0083600090612cfa8892611c65565b906143bc565b612d1960016000612d1360058790610f3d565b01611cac565b612d31846000612d2b60058790610f3d565b01612a7a565b6000612d3f60058590610f3d565b01612ac2565b612d59612d526006611d5a565b8290612c85565b9091612d857f62bd751f51149024e62ea3228318ca127fd1c35241bf764fba1e4b27d255e9309261027d565b92612d9a612d916101e3565b92839283612ae2565b0390a2565b90612dab939291612bce565b565b612ddb90612dd633612dd0612dca612dc560026110fe565b610203565b91610203565b14611b88565b612ddd565b565b612de8816003612294565b612e127f81b85e876e8723f9d61f238308ea004b759aee15ab163f6bd9b2cde9b20cc6189161027d565b90612e1b6101e3565b80612e258161038e565b0390a2565b612e3390612dad565b565b90612e6491612e5f33612e59612e53612e4e60026110fe565b610203565b91610203565b14611b88565b612ebc565b565b90612e7360001991611c81565b9181191691161790565b612e91612e8c612e9692610348565b610252565b610348565b90565b90565b90612eb1612eac612eb892612e7d565b612e99565b8254612e66565b9055565b612ecb612ed092916008610e39565b612e9c565b565b90612edc91612e35565b565b612eea612eef91610f82565b610f5b565b90565b612efc9054612ede565b90565b612f0b612f1091610f55565b610f88565b90565b612f1d9054612eff565b90565b612f34612f2f612f3992610bab565b610252565b610953565b90565b612f4590610271565b90565b60207f647920696e697469616c697a6564000000000000000000000000000000000000917f496e697469616c697a61626c653a20636f6e747261637420697320616c72656160008201520152565b612fa3602e6040926111c2565b612fac81612f48565b0190565b612fc69060208101906000818303910152612f96565b90565b15612fd057565b612fd86101e3565b62461bcd60e51b815280612fee60048201612fb0565b0390fd5b9061300761300261300e92612a5b565b612a77565b8254611c87565b9055565b9061302761302261302e92611c9d565b611ca9565b8254612a44565b9055565b61303b90612f20565b9052565b919061305390600060208501940190613032565b565b6130a261306b6130656000612ef2565b15610941565b918280613154575b8015613105575b61308390612fc9565b6130976130906001612f20565b6000612ff2565b826130f4575b613224565b6130a9575b565b6130b4600080613012565b60016130ec7f7f26b83ff96e1f2b6a682f133852f6798a09c465da95921460cefb3847402498916130e36101e3565b9182918261303f565b0390a16130a7565b61310060016000613012565b61309d565b5061312061311a61311530612f3c565b6147dd565b15610941565b8061312b575b61307a565b506130836131396000612f13565b61314c6131466001612f20565b91610953565b149050613126565b5061315f6000612f13565b61317261316c6001612f20565b91610953565b10613073565b61318c613187613191926112cd565b610252565b6101f8565b90565b61319d90613178565b90565b60007f476f7665726e6f722063616e6e6f74206265207a65726f206164647265737300910152565b6131d5601f6020926111c2565b6131de816131a0565b0190565b6131f890602081019060008183039101526131c8565b90565b1561320257565b61320a6101e3565b62461bcd60e51b815280613220600482016131e2565b0390fd5b6132559061324e8161324761324161323c6000613194565b610203565b91610203565b14156131fb565b6002612294565b565b61326090613055565b565b61326e61327391610f55565b610b1a565b90565b6132809054613262565b90565b9061328c611f68565b5061329f61329a6006610894565b611fa6565b916132aa60006112d0565b5b806132c76132c16132bc6006610894565b610348565b91610348565b10156134ff576132e26132dc600683906108a3565b906102c8565b906132fa60006132f460058590610f3d565b01610ff9565b6133366133268561332061331b600061331560058a90610f3d565b01610fd2565b6125ec565b90612608565b6133306001613276565b90612678565b90613380602061335661335161334c60046110fe565b6125b5565b6125c1565b63aea910789061337588926133696101e3565b9586948593849361117d565b8352600483016102fd565b03915afa9485156134fa5761340760209461340161340d9361343999613412966000916134cd575b5090816133c56133bf670de0b6b3a76400006125d0565b91610348565b106134a4575b6133e460006133de6133fc936005610f3d565b01610fa2565b936133f6670de0b6b3a76400006125d0565b90612608565b612678565b90614495565b92612066565b612072565b61342e63c6e6f5926134226101e3565b9687948593849361117d565b835260048301610b60565b03915afa91821561349f5761346c9261346791600091613471575b506134628791849092611307565b61207e565b6112ec565b6132ab565b613492915060203d8111613498575b61348a8183611154565b810190611192565b38613454565b503d613480565b6111b1565b90506133fc6133e460006133de6134c2670de0b6b3a76400006125d0565b9493505050506133cb565b6134ed9150893d81116134f3575b6134e58183611154565b810190611192565b386133a8565b503d6134db565b6111b1565b5050565b61350b6125a4565b5061351660006112d0565b9061352160006112d0565b915b8261353f6135396135346006610894565b610348565b91610348565b10156137eb5761355a613554600685906108a3565b906102c8565b6135a2602061357061356b84611117565b611123565b6370a0823190613597613582306112fb565b9261358b6101e3565b9586948593849361117d565b8352600483016102fd565b03915afa9081156137e6576000916137b8575b50916135ce60006135c860058590610f3d565b01610ff9565b61361660206135e46135df84611117565b611123565b6370a082319061360b6135f6306112fb565b926135ff6101e3565b9586948593849361117d565b8352600483016102fd565b03915afa9182156137b35761364261363d61366994602094600091613786575b5092612066565b612072565b61365e6307a2d13a6136526101e3565b9586948593849361117d565b835260048301610b60565b03915afa908115613781576136d09460209261368e92600091613754575b509061263d565b926136a96136a461369f60046110fe565b6125b5565b6125c1565b6136c563aea910786136b96101e3565b9788948593849361117d565b8352600483016102fd565b03915afa801561374f576136f86137159361370f9261371b96600091613721575b5090612608565b613709670de0b6b3a76400006125d0565b90612678565b9061263d565b926112ec565b91613523565b613742915060203d8111613748575b61373a8183611154565b810190611192565b386136f1565b503d613730565b6111b1565b6137749150843d811161377a575b61376c8183611154565b810190611192565b38613687565b503d613762565b6111b1565b6137a69150853d81116137ac575b61379e8183611154565b810190611192565b38613636565b503d613794565b6111b1565b6137d9915060203d81116137df575b6137d18183611154565b810190611192565b386135b5565b503d6137c7565b6111b1565b90915090565b63ffffffff60e01b1690565b61381161380c61381692610491565b61117d565b6137f1565b90565b9161385d60049261384e613862959361383563a9059cbb6137fd565b9261383e6101e3565b96879460208601908152016112a9565b60208201810382520383611154565b61493b565b565b60409061388e6138959496959396613884606084019860008501906102f0565b60208301906102f0565b0190610b53565b565b6138e493916138d06004946138df93946138b46323b872dd6137fd565b939190916138c06101e3565b9788956020870190815201613864565b60208201810382520383611154565b61493b565b565b606090565b906138f69101610348565b90565b67ffffffffffffffff811161391757613913602091611134565b0190565b61113e565b9061392e613929836138f9565b6119b3565b918252565b369037565b9061395d6139458361391c565b9260208061395386936138f9565b9201910390613933565b565b600161396b9103610348565b90565b61397a61398091610348565b91610348565b90811561398b570490565b612662565b6139986138e6565b506139b56139a582614afd565b6139af6001610bae565b906138eb565b906139bf82613938565b916139c86125a4565b5060200182015b600115613a33576139e2613a0e9161395f565b916f181899199a1a9b1b9c1cb0b131b232b360811b600a82061a8353613a08600a612022565b9061396e565b80613a22613a1c60006112d0565b91610348565b14613a2d57906139cf565b50505b90565b5050613a30565b60007f416d6f756e74206d7573742062652067726561746572207468616e2030000000910152565b613a6f601d6020926111c2565b613a7881613a3a565b0190565b613a929060208101906000818303910152613a62565b90565b15613a9c57565b613aa46101e3565b62461bcd60e51b815280613aba60048201613a7c565b0390fd5b5090565b60007f496e76616c696420726f757465722064617461206c656e677468000000000000910152565b613af7601a6020926111c2565b613b0081613ac2565b0190565b613b1a9060208101906000818303910152613aea565b90565b15613b2457565b613b2c6101e3565b62461bcd60e51b815280613b4260048201613b04565b0390fd5b9190811015613b56576020020190565b61087e565b35613b658161020f565b90565b600080fd5b600080fd5b600080fd5b903590600160200381360303821215613bb9570180359067ffffffffffffffff8211613bb457602001916001820236038313613baf57565b613b72565b613b6d565b613b68565b90821015613bd9576020613bd59202810190613b77565b9091565b61087e565b613c14613c1b94613c0a606094989795613c00608086019a60008701906102f0565b60208501906102f0565b60408301906102f0565b0190610b53565b565b613c279051610491565b90565b90565b613c41613c3c613c4692613c2a565b610252565b610348565b90565b60207f64207765696768747320746f6f20686967680000000000000000000000000000917f5661756c74436f72653a20646576696174696f6e2066726f6d2064657369726560008201520152565b613ca460326040926111c2565b613cad81613c49565b0190565b613cc79060208101906000818303910152613c97565b90565b15613cd157565b613cd96101e3565b62461bcd60e51b815280613cef60048201613cb1565b0390fd5b9496939195608052613d1a613d156000613d0f60058990610f3d565b01610f75565b611c3c565b613d3781613d31613d2b60006112d0565b91610348565b11613a95565b613d68613d478860805190613abe565b613d62613d5c613d576006610894565b610348565b91610348565b14613b1d565b613d726001613276565b92613d7d60006112d0565b94613d886006610894565b97613d9360006112d0565b965b87613da8613da28c610348565b91610348565b101561422d57613dc3613dbd60068a906108a3565b906102c8565b80613dd6613dd08c610203565b91610203565b141560001461416857613e3c91613df7613df260058490610f3d565b6124ab565b6020613e0a613e0585611117565b611123565b6370a0823190613e31613e1c306112fb565b92613e256101e3565b9889948593849361117d565b8352600483016102fd565b03915afa801561416357613e9994600091614135575b506020613e6f613e6a613e6560046110fe565b6125b5565b6125c1565b63aea9107890613e8e8792613e826101e3565b998a948593849361117d565b8352600483016102fd565b03915afa8015614130578f95600091614102575b50948c8b8a88613ecd613ec7670de0b6b3a76400006125d0565b91610348565b116140d2575b91613ef0613eeb613efc93613f029695908491613b46565b613b5b565b92906080519091613bbe565b91614e5e565b613f4a6020613f18613f1387611117565b611123565b6370a0823190613f3f613f2a306112fb565b92613f336101e3565b9586948593849361117d565b8352600483016102fd565b03915afa9081156140cd5760009161409f575b5090613f6891611ce2565b928c90888d8c613f7792613b46565b613f8090613b5b565b9085927fa502e3bc10e47f200a18c57c70f77788429a03d25cf6cd06b06171bf2415855793613fad6101e3565b938493613fba9385613bde565b0390a18790604001613fcb90613c1d565b613fd4906125ec565b613fdd91612608565b89613fe791612678565b8083613ff290610348565b90613ffc90610348565b116000146140869461407f9461405d61403e614079956140629561408c57614039614028828690611ce2565b5b6140336064613c2d565b90612608565b612678565b61405761405161404c610bca565b610348565b91610348565b10613cca565b612608565b614073670de0b6b3a76400006125d0565b90612678565b9061263d565b975b6112ec565b96613d95565b61403961409a858390611ce2565b614029565b6140c0915060203d81116140c6575b6140b88183611154565b810190611192565b38613f5d565b503d6140ae565b6111b1565b9750613f029291613ef0613eeb613efc936140f4670de0b6b3a76400006125d0565b9b9395965093505050613ed3565b614123915060203d8111614129575b61411b8183611154565b810190611192565b38613ead565b503d614111565b6111b1565b614156915060203d811161415c575b61414e8183611154565b810190611192565b38613e52565b503d614144565b6111b1565b60206141af9161418861418361417e60046110fe565b6125b5565b6125c1565b6141a463aea910786141986101e3565b9586948593849361117d565b8352600483016102fd565b03915afa918215614228576141ee6141d7614086946141f4946000916141fa575b5089612608565b6141e8670de0b6b3a76400006125d0565b90612678565b9061263d565b97614081565b61421b915060203d8111614221575b6142138183611154565b810190611192565b386141d0565b503d614209565b6111b1565b9850955097505050505061429b91506142958361425261424c84610348565b91610348565b119161429061426961426387613990565b92613990565b916142816142756101e3565b9384926020840161177d565b60208201810382520382611154565b6117a5565b906117f2565b6142b56142b06142ab60036110fe565b611281565b61128d565b906340c10f1990339092803b15614333576142e4600080946142ef6142d86101e3565b9788968795869461117d565b8452600484016112a9565b03925af1801561432e57614301575b50565b6143219060003d8111614327575b6143198183611154565b810190611299565b386142fe565b503d61430f565b6111b1565b61112f565b60101b90565b9061434f65ffffffff000091614338565b9181191691161790565b61436d61436861437292610491565b610252565b610491565b90565b90565b9061438d61438861439492614359565b614375565b825461433e565b9055565b9160206143ba9294936143b360408201966000830190611060565b0190611060565b565b6143f46143ed6143de6143cf6001613276565b6143d8876125ec565b9061263d565b6143e7856125ec565b90611ce2565b6001612e9c565b61440c83600061440660058590610f3d565b01614378565b90916144387ffe53ad22d287601d2ed917d8aedf4a9bf6f948833c8b55fbc07d8a4e1cdd77899261027d565b9261444d6144446101e3565b92839283614398565b0390a2565b90565b61446961446461446e92614452565b610252565b610953565b90565b61447d61448391610953565b91610953565b90039060ff821161449057565b611ccc565b61449d6125a4565b50806144b26144ac6012614455565b91610953565b106000146144e2576144d96144d46144df93926144cf6012614455565b614471565b61203e565b90612678565b90565b806144f66144f06012614455565b91610953565b116144ff575090565b61451f61451a61452593926145146012614455565b90614471565b61203e565b90612608565b90565b61453190610255565b90565b61453d90614528565b90565b61454990610271565b90565b6145566006610894565b9061456160006112d0565b5b8061457561456f85610348565b91610348565b10156147d35761459861459361458d600684906108a3565b906102c8565b611117565b906145d960206145a784611123565b6370a08231906145ce6145b9306112fb565b926145c26101e3565b9586948593849361117d565b8352600483016102fd565b03915afa9081156147ce576000916147a0575b5061460961460460086145fe86611123565b90610e39565b613276565b908061461d61461784610348565b91610348565b10614794579061462c91611ce2565b614648614643600961463d86611123565b90610289565b6110fe565b908161466561465f61465a6000613194565b610203565b91610203565b141580614779575b614684575b505061467f91505b6112ec565b614562565b6146a961469083614534565b6146a48661469d83614540565b8591613819565b614540565b9363b6b55f2582863b15614774576146e1966146d6600080946146ca6101e3565b9a8b958694859361117d565b835260048301610b60565b03925af190811561476f5761467f956146ff92614742575b50611123565b9190916147387f41b99659f6ba0803f444aff29e5bf6e26dd86a3219aff92119d69710a956ba8d9361472f6101e3565b93849384613864565b0390a13880614672565b6147629060003d8111614768575b61475a8183611154565b810190611299565b386146f9565b503d614750565b6111b1565b61112f565b508061478e61478860006112d0565b91610348565b1161466d565b505061467f915061467a565b6147c1915060203d81116147c7575b6147b98183611154565b810190611192565b386145ec565b503d6147af565b6111b1565b509050565b600090565b6147e56147d8565b503b6147fa6147f460006112d0565b91610348565b1190565b60007f5361666545524332303a206c6f772d6c6576656c2063616c6c206661696c6564910152565b614830602061391c565b9061483d602083016147fe565b565b614847614826565b90565b5190565b61485781610941565b0361485e57565b600080fd5b905051906148708261484e565b565b9060208282031261488c5761488991600001614863565b90565b6101ee565b60207f6f74207375636365656400000000000000000000000000000000000000000000917f5361666545524332303a204552433230206f7065726174696f6e20646964206e60008201520152565b6148ec602a6040926111c2565b6148f581614891565b0190565b61490f90602081019060008183039101526148df565b90565b1561491957565b6149216101e3565b62461bcd60e51b815280614937600482016148f9565b0390fd5b6149859161494b61495a92611123565b9061495461483f565b91614f0c565b6149638161484a565b61497661497060006112d0565b91610348565b14908115614987575b50614912565b565b6149a2915060206149978261484a565b818301019101614872565b3861497f565b90565b6149bf6149ba6149c4926149a8565b610252565b610348565b90565b90565b6149de6149d96149e3926149c7565b610252565b610348565b90565b90565b6149fd6149f8614a02926149e6565b610252565b610348565b90565b90565b614a1c614a17614a2192614a05565b610252565b610348565b90565b90565b614a3b614a36614a4092614a24565b610252565b610348565b90565b90565b614a5a614a55614a5f92614a43565b610252565b610348565b90565b90565b614a79614a74614a7e92614a62565b610252565b610348565b90565b90565b614a98614a93614a9d92614a81565b610252565b610348565b90565b90565b614ab7614ab2614abc92614aa0565b610252565b610348565b90565b90565b614ad6614ad1614adb92614abf565b610252565b610348565b90565b90565b614af5614af0614afa92614ade565b610252565b610348565b90565b614b056125a4565b50614b1060006112d0565b9080614b3f614b397a184f03e93ff9f4daa797ed6e38ed64bf6a1f0100000000000000006149ab565b91610348565b1015614d17575b80614b67614b616d04ee2d6d415b85acef81000000006149e9565b91610348565b1015614cdc575b80614b88614b82662386f26fc10000614a27565b91610348565b1015614ca8575b80614ba6614ba06305f5e100614a65565b91610348565b1015614c77575b80614bc2614bbc612710614aa3565b91610348565b1015614c48575b80614bdd614bd76064613c2d565b91610348565b1015614c1a575b614bf7614bf1600a612022565b91610348565b1015614c01575b90565b614c1590614c0f6001610bae565b906138eb565b614bfe565b614c31614c4291614c2b6064613c2d565b9061396e565b91614c3c6002614ae1565b906138eb565b90614be4565b614c60614c7191614c5a612710614aa3565b9061396e565b91614c6b6004614ac2565b906138eb565b90614bc9565b614c91614ca291614c8b6305f5e100614a65565b9061396e565b91614c9c6008614a84565b906138eb565b90614bad565b614cc5614cd691614cbf662386f26fc10000614a27565b9061396e565b91614cd06010614a46565b906138eb565b90614b8f565b614d00614d1191614cfa6d04ee2d6d415b85acef81000000006149e9565b9061396e565b91614d0b6020614a08565b906138eb565b90614b6e565b614d48614d5991614d427a184f03e93ff9f4daa797ed6e38ed64bf6a1f0100000000000000006149ab565b9061396e565b91614d5360406149ca565b906138eb565b90614b46565b905090565b90826000939282370152565b909182614d8081614d8793614d5f565b8093614d64565b0190565b9091614d9692614d70565b90565b67ffffffffffffffff8111614db757614db3602091611134565b0190565b61113e565b90614dce614dc983614d99565b6119b3565b918252565b606090565b3d600014614df557614de93d614dbc565b903d6000602084013e5b565b614dfd614dd3565b90614df3565b60007f556e6b6e6f776e20726561736f6e000000000000000000000000000000000000910152565b614e38600e6020926111c2565b614e4181614e03565b0190565b614e5b9060208101906000818303910152614e2b565b90565b9060009283809392614e7a614e716101e3565b93849283614d8b565b03925af1614e90614e89614dd8565b9115610941565b614e975750565b614ea08161484a565b614eb3614ead60006112d0565b91610348565b11600014614ee957614ec7614ee5916117a5565b614ecf6101e3565b918291634ecb9b6d60e01b8352600483016117d9565b0390fd5b614ef16101e3565b634ecb9b6d60e01b815280614f0860048201614e45565b0390fd5b90614f2c9291614f1a614dd3565b5090614f2660006112d0565b91614fe5565b90565b614f3890610271565b90565b60207f722063616c6c0000000000000000000000000000000000000000000000000000917f416464726573733a20696e73756666696369656e742062616c616e636520666f60008201520152565b614f9660266040926111c2565b614f9f81614f3b565b0190565b614fb99060208101906000818303910152614f89565b90565b15614fc357565b614fcb6101e3565b62461bcd60e51b815280614fe160048201614fa3565b0390fd5b916000809161503c9593614ff7614dd3565b5061501e61500430614f2f565b3161501761501185610348565b91610348565b1015614fbc565b8591602082019151925af191615032614dd8565b90929091926150c3565b90565b60007f416464726573733a2063616c6c20746f206e6f6e2d636f6e7472616374000000910152565b615074601d6020926111c2565b61507d8161503f565b0190565b6150979060208101906000818303910152615067565b90565b156150a157565b6150a96101e3565b62461bcd60e51b8152806150bf60048201615081565b0390fd5b9192906150ce614dd3565b5060001461511457506150e08261484a565b6150f36150ed60006112d0565b91610348565b146150fd575b5090565b61510961510e916147dd565b61509a565b386150f9565b829061511f8261484a565b61513261512c60006112d0565b91610348565b116000146151435750805190602001fd5b6151649061514f6101e3565b91829162461bcd60e51b8352600483016117d9565b0390fdfea2646970667358221220f48e3ff4792d42e1aefb204e6eb9e9d96897496b8a01ee538c9ce50feee16e7564736f6c634300081b0033","abi":[{"inputs":[],"stateMutability":"nonpayable","type":"constructor"},{"inputs":[{"internalType":"string","name":"reason","type":"string"}],"name":"SwapFailed","type":"error"},{"anonymous":false,"inputs":[{"indexed":true,"internalType":"address","name":"asset","type":"address"},{"indexed":false,"internalType":"uint8","name":"decimals","type":"uint8"},{"indexed":false,"internalType":"uint32","name":"weight","type":"uint32"}],"name":"AssetAdded","type":"event"},{"anonymous":false,"inputs":[{"indexed":false,"internalType":"address","name":"asset","type":"address"},{"indexed":false,"internalType":"address","name":"strategy","type":"address"},{"indexed":false,"internalType":"uint256","name":"amount","type":"uint256"}],"name":"AssetAllocated","type":"event"},{"anonymous":false,"inputs":[{"indexed":true,"internalType":"address","name":"asset","type":"address"},{"indexed":false,"internalType":"uint8","name":"decimals","type":"uint8"},{"indexed":false,"internalType":"uint32","name":"weight","type":"uint32"}],"name":"AssetChanged","type":"event"},{"anonymous":false,"inputs":[{"indexed":true,"internalType":"address","name":"asset","type":"address"}],"name":"AssetRemoved","type":"event"},{"anonymous":false,"inputs":[{"indexed":true,"internalType":"address","name":"asset","type":"address"},{"indexed":false,"internalType":"uint32","name":"oldWeight","type":"uint32"},{"indexed":false,"internalType":"uint32","name":"newWeight","type":"uint32"}],"name":"AssetWeightChanged","type":"event"},{"anonymous":false,"inputs":[{"indexed":true,"internalType":"address","name":"bentoUSD","type":"address"}],"name":"BentoUSDUpdated","type":"event"},{"anonymous":false,"inputs":[{"indexed":true,"internalType":"address","name":"governor","type":"address"}],"name":"GovernorUpdated","type":"event"},{"anonymous":false,"inputs":[{"indexed":false,"internalType":"uint8","name":"version","type":"uint8"}],"name":"Initialized","type":"event"},{"anonymous":false,"inputs":[{"indexed":true,"internalType":"address","name":"oracleRouter","type":"address"}],"name":"OracleRouterUpdated","type":"event"},{"anonymous":false,"inputs":[{"indexed":false,"internalType":"address","name":"inputAsset","type":"address"},{"indexed":false,"internalType":"address","name":"outputAsset","type":"address"},{"indexed":false,"internalType":"address","name":"router","type":"address"},{"indexed":false,"internalType":"uint256","name":"amount","type":"uint256"}],"name":"SwapResult","type":"event"},{"inputs":[{"internalType":"uint256","name":"","type":"uint256"}],"name":"allAssets","outputs":[{"internalType":"address","name":"","type":"address"}],"stateMutability":"view","type":"function"},{"inputs":[],"name":"allocate","outputs":[],"stateMutability":"nonpayable","type":"function"},{"inputs":[{"internalType":"address","name":"","type":"address"}],"name":"assetToStrategy","outputs":[{"internalType":"address","name":"","type":"address"}],"stateMutability":"view","type":"function"},{"inputs":[{"internalType":"address","name":"","type":"address"}],"name":"assets","outputs":[{"internalType":"bool","name":"isSupported","type":"bool"},{"internalType":"uint8","name":"decimals","type":"uint8"},{"internalType":"uint32","name":"weight","type":"uint32"},{"internalType":"address","name":"ltToken","type":"address"}],"stateMutability":"view","type":"function"},{"inputs":[],"name":"bentoUSD","outputs":[{"internalType":"address","name":"","type":"address"}],"stateMutability":"view","type":"function"},{"inputs":[{"internalType":"address","name":"_asset","type":"address"},{"internalType":"uint8","name":"_decimals","type":"uint8"},{"internalType":"uint32","name":"_weight","type":"uint32"},{"internalType":"address","name":"_ltToken","type":"address"}],"name":"changeAsset","outputs":[],"stateMutability":"nonpayable","type":"function"},{"inputs":[],"name":"deviationTolerance","outputs":[{"internalType":"uint256","name":"","type":"uint256"}],"stateMutability":"view","type":"function"},{"inputs":[],"name":"getAssets","outputs":[{"components":[{"internalType":"bool","name":"isSupported","type":"bool"},{"internalType":"uint8","name":"decimals","type":"uint8"},{"internalType":"uint32","name":"weight","type":"uint32"},{"internalType":"address","name":"ltToken","type":"address"}],"internalType":"struct VaultStorage.Asset[]","name":"","type":"tuple[]"}],"stateMutability":"view","type":"function"},{"inputs":[{"internalType":"uint256","name":"desiredAmount","type":"uint256"}],"name":"getDepositAssetAmounts","outputs":[{"internalType":"uint256[]","name":"","type":"uint256[]"},{"internalType":"uint256","name":"","type":"uint256"}],"stateMutability":"view","type":"function"},{"inputs":[{"internalType":"uint256","name":"inputAmount","type":"uint256"}],"name":"getOutputLTAmounts","outputs":[{"internalType":"uint256[]","name":"","type":"uint256[]"}],"stateMutability":"view","type":"function"},{"inputs":[],"name":"getTokenToShareRatios","outputs":[{"internalType":"uint256[]","name":"","type":"uint256[]"}],"stateMutability":"view","type":"function"},{"inputs":[],"name":"getTotalValue","outputs":[{"internalType":"uint256","name":"","type":"uint256"}],"stateMutability":"view","type":"function"},{"inputs":[],"name":"getWeights","outputs":[{"internalType":"uint32[]","name":"","type":"uint32[]"}],"stateMutability":"view","type":"function"},{"inputs":[],"name":"governor","outputs":[{"internalType":"address","name":"","type":"address"}],"stateMutability":"view","type":"function"},{"inputs":[{"internalType":"address","name":"_governor","type":"address"}],"name":"initialize","outputs":[],"stateMutability":"nonpayable","type":"function"},{"inputs":[{"internalType":"address","name":"","type":"address"}],"name":"ltTokenToAsset","outputs":[{"internalType":"address","name":"","type":"address"}],"stateMutability":"view","type":"function"},{"inputs":[{"internalType":"address","name":"","type":"address"}],"name":"minimalAmountInVault","outputs":[{"internalType":"uint256","name":"","type":"uint256"}],"stateMutability":"view","type":"function"},{"inputs":[{"internalType":"address","name":"_asset","type":"address"},{"internalType":"uint256","name":"_amount","type":"uint256"},{"internalType":"uint256","name":"_minimumBentoUSDAmount","type":"uint256"},{"internalType":"address[]","name":"_routers","type":"address[]"},{"internalType":"bytes[]","name":"_routerData","type":"bytes[]"}],"name":"mint","outputs":[],"stateMutability":"nonpayable","type":"function"},{"inputs":[{"internalType":"uint256","name":"_amount","type":"uint256"},{"internalType":"uint256","name":"_minimumBentoUSDAmount","type":"uint256"}],"name":"mintBasket","outputs":[],"stateMutability":"nonpayable","type":"function"},{"inputs":[],"name":"oracleRouter","outputs":[{"internalType":"address","name":"","type":"address"}],"stateMutability":"view","type":"function"},{"inputs":[{"internalType":"uint256","name":"_amount","type":"uint256"}],"name":"redeemLTBasket","outputs":[],"stateMutability":"nonpayable","type":"function"},{"inputs":[{"internalType":"address","name":"_asset","type":"address"}],"name":"removeAsset","outputs":[],"stateMutability":"nonpayable","type":"function"},{"inputs":[{"internalType":"address","name":"_asset","type":"address"},{"internalType":"uint8","name":"_decimals","type":"uint8"},{"internalType":"uint32","name":"_weight","type":"uint32"},{"internalType":"address","name":"_ltToken","type":"address"}],"name":"setAsset","outputs":[],"stateMutability":"nonpayable","type":"function"},{"inputs":[{"internalType":"address","name":"_bentoUSD","type":"address"}],"name":"setBentoUSD","outputs":[],"stateMutability":"nonpayable","type":"function"},{"inputs":[{"internalType":"address","name":"_asset","type":"address"},{"internalType":"uint256","name":"_amount","type":"uint256"}],"name":"setMinimalAmountInVault","outputs":[],"stateMutability":"nonpayable","type":"function"},{"inputs":[{"internalType":"address","name":"_oracleRouter","type":"address"}],"name":"setOracleRouter","outputs":[],"stateMutability":"nonpayable","type":"function"},{"inputs":[{"internalType":"address","name":"_asset","type":"address"},{"internalType":"address","name":"_strategy","type":"address"}],"name":"setStrategy","outputs":[],"stateMutability":"nonpayable","type":"function"},{"inputs":[],"name":"totalWeight","outputs":[{"internalType":"uint256","name":"","type":"uint256"}],"stateMutability":"view","type":"function"}]}