{"address":"0x222DD7EbAEb66d0B2bA0147046C1f62B30D1b26D","bytecode":"0x6080806040523460bd576000549060ff8260081c16606b575060ff808216036031575b60405161380890816100c38239f35b60ff90811916176000557f7f26b83ff96e1f2b6a682f133852f6798a09c465da95921460cefb3847402498602060405160ff8152a1386022565b62461bcd60e51b815260206004820152602760248201527f496e697469616c697a61626c653a20636f6e747261637420697320696e697469604482015266616c697a696e6760c81b6064820152608490fd5b600080fdfe6080604052600436101561001257600080fd5b60003560e01c80630248ddaa146102325780630329e33c1461022d5780630c340a24146102285780631522451914610223578063174f57af1461021e578063266c91a5146102195780632acada4d146102145780633e55e5801461020f5780634a5e42b11461020a5780634d69ee0e1461020557806355a29e9114610200578063578e5c22146101fb57806357e28507146101f657806360938db5146101f157806361f89918146101ec57806363cbb145146101e7578063684eda7d146101e25780637506f8ec146101dd57806377943bcd146101ce578063829c8db7146101d857806396c82e57146101d3578063a158b3ae146101ce578063a1b2439e146101c9578063a594e81e146101c4578063ab8bca0c146101bf578063abaa9916146101ba578063b5c60b38146101b5578063b5c705b5146101b0578063c4d66de8146101ab578063c9339e9f146101a6578063caa648b4146101a1578063d45d84251461019c578063db2c656b146101975763e45d65df1461019257600080fd5b6119ca565b611977565b611909565b6118db565b6118a8565b6117ae565b61175d565b61170d565b61147e565b611401565b6113b9565b61137c565b6112e5565b61132a565b611301565b6112c9565b6112ad565b61126b565b61121a565b6111a6565b611126565b611075565b611016565b610fc5565b610e0b565b610d33565b610be6565b610b7a565b610aa3565b61058d565b610564565b6103c9565b610270565b6001600160a01b0381160361024857565b600080fd5b60609060031901126102485760043561026581610237565b906024359060443590565b34610248576102f961028d6102843661024d565b81939130611e9b565b60035460209083906102b5906102a9906001600160a01b031681565b6001600160a01b031690565b6004546001600160a01b031660405163095ea7b360e01b81526001600160a01b03909116600482015260248101929092529094859190829060009082906044820190565b03925af19182156103995761035f9360209361039e575b50600454610328906102a9906001600160a01b031681565b604051636e553f6560e01b815260048101929092526001600160a01b03909216602482015292839190829060009082906044820190565b03925af180156103995761036f57005b6103909060203d602011610392575b6103888183611a41565b810190611a87565b005b503d61037e565b611a7b565b6103bd90843d86116103c2575b6103b58183611a41565b810190611a63565b610310565b503d6103ab565b34610248576040366003190112610248576004356103e681610237565b6024356103f28161253d565b60035490919061040c906102a9906001600160a01b031681565b803b1561024857604051632770a7eb60e21b815233600482015260248101929092526000908290604490829084905af180156103995761053e575b506007549060005b82811061045857005b6104a96102a961049c61048261046d85611055565b905460039190911b1c6001600160a01b031690565b6001600160a01b0316600090815260066020526040902090565b546001600160a01b031690565b6040516370a0823160e01b81523060048201529091906020816024816001600160a01b0387165afa90811561039957600091610520575b506104eb8285611aa3565b511161050f57610509600192866105028487611aa3565b5191612c58565b0161044f565b631e9acf1760e31b60005260046000fd5b610538915060203d8111610392576103888183611a41565b386104e0565b8061054d600061055393611a41565b80610559565b38610447565b600091031261024857565b34610248576000366003190112610248576002546040516001600160a01b039091168152602090f35b34610248576040366003190112610248576004356105aa81610237565b600754600354602435906105c8906102a9906001600160a01b031681565b803b1561024857604051632770a7eb60e21b815233600482015260248101839052906000908290604490829084905af1801561039957610a8e575b5060005b82811061061057005b61061c61046d82611055565b9061064161063c8360018060a01b03166000526006602052604060002090565b611ac3565b600554610658906102a9906001600160a01b031681565b6040516315d5220f60e31b81526001600160a01b038516600482015290602090829060249082905afa8015610399576106a06106d8916106e693600091610a70575b50612ca0565b6106d16106c86106c36106ba602088015163ffffffff1690565b63ffffffff1690565b611b63565b91600154611b8c565b9087612cd1565b604083015160ff1690612d29565b6040516370a0823160e01b8152306004820152909390916001600160a01b0390911690602083602481855afa8015610399578893600091610a52575b5085811061073f5750509261073991600194612c58565b01610607565b91509361074c9250611bae565b82519092906001600160a01b03169060808101805161076a81610c76565b61077381610c76565b6107e6575050604051632d182be560e21b81526004810193909352336024840152306044840152602090839060649082906000906001600160a01b03165af1918215610399576001926107c8575b505b610739565b6107df9060203d8111610392576103888183611a41565b50386107c1565b600190516107f381610c76565b6107fc81610c76565b03610978575033600090815260096020526040902061081a9061049c565b6001600160a01b038116156108ee575b6040516363737ac960e11b815260048101949094526001600160a01b03919091169290602082602481875afa918215610399576000926108ce575b5060405163a9059cbb60e01b81526001600160a01b03821660048201526024810183905293602090859060449082906000905af1918215610399576001946107c3936108b2575b50612d82565b6108c99060203d81116103c2576103b58183611a41565b6108ac565b6108e791925060203d8111610392576103888183611a41565b9038610865565b5060405161034b8082019082821067ffffffffffffffff8311176109735782916109359161348884396001600160a01b038516815230602082015233604082015260600190565b03906000f09081156103995733600090815260096020526040902080546001600160a01b0319166001600160a01b039390931692831790559061082a565b611a0f565b60a001516040516363737ac960e11b815260048101949094526001600160a01b03169081906020856024816000865af194851561039957600095610a2e575b506109cc9185916001600160a01b0316612c58565b803b15610248576040516301e9a69560e41b81526001600160a01b038716600482015260248101939093526000908390604490829084905af191821561039957600192610a195750610739565b8061054d6000610a2893611a41565b386107c1565b6109cc929550610a4b9060203d8111610392576103888183611a41565b94916109b7565b610a6a915060203d8111610392576103888183611a41565b38610722565b610a88915060203d8111610392576103888183611a41565b3861069a565b8061054d6000610a9d93611a41565b38610603565b3461024857600036600319011261024857610abc6126fd565b600354610ad3906102a9906001600160a01b031681565b6040516370a0823160e01b81523060048201529091602082602481865afa90811561039957610b0a92600092610b59575b50611bae565b90803b15610248576040516340c10f1960e01b815233600482015260248101839052906000908290818381604481015b03925af1801561039957610b4a57005b8061054d600061039093611a41565b610b7391925060203d602011610392576103888183611a41565b9038610b04565b34610248576000366003190112610248576004546040516001600160a01b039091168152602090f35b602060408183019282815284518094520192019060005b818110610bc75750505090565b82516001600160a01b0316845260209384019390920191600101610bba565b346102485760003660031901126102485760405180602060075491828152019060076000527fa66cc928b5edb82af9bd49922954155ab7b0942694bea4ce44661d9a8736c6889060005b818110610c5757610c5385610c4781870382611a41565b60405191829182610ba3565b0390f35b82546001600160a01b0316845260209093019260019283019201610c30565b60031115610c8057565b634e487b7160e01b600052602160045260246000fd5b602060408183019282815284518094520192019060005b818110610cba5750505090565b909192602060e060019260c08751858060a01b03815116835263ffffffff85820151168584015260ff604082015116604084015260ff60608201511660608401526080810151610d0981610c76565b608084015260a0818101516001600160a01b031690840152015160c0820152019401929101610cad565b3461024857600036600319011261024857600754610d5081611bbb565b90610d5e6040519283611a41565b808252601f19610d6d82611bbb565b0160005b818110610dc357505060005b818110610d925760405180610c538582610c96565b80610da761063c61048261046d600195611055565b610db18286611aa3565b52610dbc8185611aa3565b5001610d7d565b602090604051610dd281611a25565b60008152600083820152600060408201526000606082015260006080820152600060a0820152600060c082015282828701015201610d71565b3461024857602036600319011261024857600435610e2881610237565b6002546001600160a01b03163303610fb5576001600160a01b038181166000908152600660205260409020541615610fa4576001600160a01b0381166000908152600660205260409020610e8e90610e88905b5460a01c63ffffffff1690565b82612de9565b6007546001600160a01b039091169060005b818110610ed0575b827f37803e2125c48ee96c38ddf04e826daf335b0e1603579040fd275aba6d06b6fc600080a2005b82610ef4610edd83611055565b90546001600160a01b039260039290921b1c821690565b1614610f0257600101610ea0565b610f959150610f4d610f2061046d610f1b600754611b9f565b611055565b610f2983611055565b81546001600160a01b0393841660039290921b91821b9390911b1916919091179055565b610f7861048260ff610f5e84611055565b9054949091169360039190911b1c6001600160a01b031690565b805460ff60c81b191660c89290921b60ff60c81b16919091179055565b610f9d611bd3565b3880610ea8565b630280e1e560e61b60005260046000fd5b6282b42960e81b60005260046000fd5b3461024857602036600319011261024857600435610fe281610237565b6002546001600160a01b03163303610fb557600580546001600160a01b0319166001600160a01b0392909216919091179055005b34610248576000366003190112610248576005546040516001600160a01b039091168152602090f35b634e487b7160e01b600052603260045260246000fd5b60075481101561107057600760005260206000200190600090565b61103f565b34610248576020366003190112610248576004356007548110156102485760076000527fa66cc928b5edb82af9bd49922954155ab7b0942694bea4ce44661d9a8736c68801546040516001600160a01b039091168152602090f35b6001600160a01b03909116815263ffffffff91909116602082015260ff91821660408201529116606082015260e0810194939260c09261110f81610c76565b60808301526001600160a01b031660a08201520152565b346102485760203660031901126102485760043561114381610237565b60018060a01b0316600052600660205260406000208054610c53600260018060a01b03600185015416930154604051938360ff869560d01c169060ff8160c81c169060ff8160c01c169063ffffffff8160a01c169060018060a01b0316886110d0565b34610248576020366003190112610248576004356111c381610237565b336000908152600960205260409020546111e5906001600160a01b03166102a9565b803b15610248576040516351cff8d960e01b81526001600160a01b038316600482015290600090829081838160248101610b3a565b346102485760203660031901126102485760043561123781610237565b6002546001600160a01b03163303610fb557600480546001600160a01b0319166001600160a01b0392909216919091179055005b346102485760203660031901126102485760043561128881610237565b60018060a01b03166000526008602052602060ff604060002054166040519015158152f35b3461024857600036600319011261024857602060405160658152f35b3461024857600036600319011261024857602060405160638152f35b3461024857600036600319011261024857602060405160648152f35b34610248576000366003190112610248576003546040516001600160a01b039091168152602090f35b34610248576000366003190112610248576020600154604051908152f35b906020808351928381520192019060005b8181106113665750505090565b8251845260209384019390920191600101611359565b34610248576020366003190112610248576113af61139b600435611c95565b604051928392604084526040840190611348565b9060208301520390f35b34610248576103906113ca3661024d565b91611e9b565b9181601f840112156102485782359167ffffffffffffffff8311610248576020808501948460051b01011161024857565b346102485760c03660031901126102485760043561141e81610237565b60243561142a81610237565b6044359160643560843567ffffffffffffffff8111610248576114519036906004016113d0565b9160a4359567ffffffffffffffff8711610248576114766103909736906004016113d0565b969095611fef565b34610248576000366003190112610248576002546001600160a01b03163303610fb55760075460005b8181106114b057005b6114bf6102a961046d83611055565b6040516370a0823160e01b81523060048201529091906001600160a01b03831690602081602481855afa908115610399576000916116ef575b5061150b61063c61048261046d86611055565b9060c0820151908181106116e2579061152391611bae565b9060808101805161153381610c76565b61153c81610c76565b159081156116c4575b5015611632575161157d9082906001600160a01b0316809673dac17f958d2ee523a2206206994597c13d831ec78614611623576132e0565b604051636e553f6560e01b81526004810182905230602482015293602090859060449082906000906001600160a01b03165af1918215610399576001947f60a87e0712ebfb325304641a2056198edc17feb06aeac8f8a57a1087a859db8d93611605575b505b604080516001600160a01b039290921682526020820192909252a15b016114a7565b61161c9060203d8111610392576103888183611a41565b50386115e1565b61162d8282613299565b6132e0565b60a0015190935061164d906102a9906001600160a01b031681565b92833b156102485760405163b6b55f2560e01b815260048101829052936000908590602490829084905af1918215610399576001947f60a87e0712ebfb325304641a2056198edc17feb06aeac8f8a57a1087a859db8d936116af575b506115e3565b8061054d60006116be93611a41565b386116a9565b60019150516116d281610c76565b6116db81610c76565b1438611545565b50505050600191506115ff565b611707915060203d8111610392576103888183611a41565b386114f8565b346102485760203660031901126102485760043561172a81610237565b6002546001600160a01b03163303610fb5576001600160a01b03166000908152600860205260409020805460ff19169055005b346102485760203660031901126102485760043561177a81610237565b6002546001600160a01b03163303610fb557600380546001600160a01b0319166001600160a01b0392909216919091179055005b34610248576020366003190112610248576004356117cb81610237565b61181c600054916118006117ea6117e68560ff9060081c1690565b1590565b8094819561189a575b811561187a575b506124a0565b82611813600160ff196000541617600055565b61186157612503565b61182257005b61183261ff001960005416600055565b604051600181527f7f26b83ff96e1f2b6a682f133852f6798a09c465da95921460cefb384740249890602090a1005b61187561010061ff00196000541617600055565b612503565b303b1591508161188c575b50386117fa565b60ff16600114905038611885565b600160ff82161091506117f3565b3461024857602036600319011261024857610c536118c760043561253d565b604051918291602083526020830190611348565b346102485760003660031901126102485760206118f66126fd565b604051908152f35b60ff81160361024857565b346102485760e03660031901126102485760043561192681610237565b60243590611933826118fe565b6044359163ffffffff831683036102485760643561195081610237565b608435906003821015610248576103909460a4359361196e85610237565b60c435956128ef565b346102485760203660031901126102485760043561199481610237565b6002546001600160a01b03163303610fb5576001600160a01b03166000908152600860205260409020805460ff19166001179055005b34610248576020366003190112610248576004356119e781610237565b60018060a01b03166000526009602052602060018060a01b0360406000205416604051908152f35b634e487b7160e01b600052604160045260246000fd5b60e0810190811067ffffffffffffffff82111761097357604052565b90601f8019910116810190811067ffffffffffffffff82111761097357604052565b90816020910312610248575180151581036102485790565b6040513d6000823e3d90fd5b90816020910312610248575190565b8051156110705760200190565b80518210156110705760209160051b010190565b611ac082610c76565b52565b90604051611ad081611a25565b82546001600160a01b038116825260a081901c63ffffffff16602083015260c081811c60ff166040840152919384929160029190611b3390611b2a90611b2160c882901c60ff1660ff166060890152565b60d01c60ff1690565b60808601611ab7565b60018101546001600160a01b031660a08501520154910152565b634e487b7160e01b600052601160045260246000fd5b90670de0b6b3a7640000820291808304670de0b6b3a76400001490151715611b8757565b611b4d565b81810292918115918404141715611b8757565b600019810191908211611b8757565b91908203918211611b8757565b67ffffffffffffffff81116109735760051b60200190565b6007548015611c2857600754600019820191600091831015611070576007918290527fa66cc928b5edb82af9bd49922954155ab7b0942694bea4ce44661d9a8736c6870180546001600160a01b031916905555565b634e487b7160e01b600052603160045260246000fd5b90611c4882611bbb565b611c556040519182611a41565b8281528092611c66601f1991611bbb565b0190602036910137565b91908201809211611b8757565b908160209103126102485751611c92816118fe565b90565b9060075491611ca383611c3e565b90611cad84611c3e565b91600080611cc86102a96102a960055460018060a01b031690565b905b878310611dc85750505050600093600091600154905b828410611cef57505050509190565b90919295611d3290611d1684611d106106ba610e7b61048261046d8e611055565b85612cd1565b611d208988611aa3565b52611d2b8887611aa3565b5190611c70565b95611d3d8186611aa3565b519060046020611d556102a96102a961046d86611055565b60405163313ce56760e01b815292839182905afa801561039957600193611d8492600092611d98575b50612d29565b611d8e8288611aa3565b5201929190611ce0565b611dba91925060203d8111611dc1575b611db28183611a41565b810190611c7d565b9038611d7e565b503d611da8565b611dd461046d84611055565b6040516315d5220f60e31b81526001600160a01b038216600482015291602083602481875afa92831561039957600193611e6393611e4e92600092611e7b575b50670de0b6b3a76400008211611e6b575b6001600160a01b03166000908152600660205260409020611e49906106ba90610e7b565b611b8c565b611e588688611aa3565b52611d2b8587611aa3565b920191611cca565b670de0b6b3a76400009150611e25565b611e9491925060203d8111610392576103888183611a41565b9038611e14565b90611ea590611c95565b92906007549060005b828110611f3e575050508210611f2d57600354611ed5906102a9906001600160a01b031681565b91823b15610248576040516340c10f1960e01b81526001600160a01b039290921660048301526024820152906000908290604490829084905af1801561039957611f1c5750565b8061054d6000611f2b93611a41565b565b63428637bb60e11b60005260046000fd5b80611f68611f536102a961046d600195611055565b611f5d8386611aa3565b519030903390612e88565b01611eae565b91908110156110705760051b0190565b35611c9281610237565b634e487b7160e01b600052601260045260246000fd5b8115611fa8570490565b611f88565b91908110156110705760051b81013590601e198136030182121561024857019081359167ffffffffffffffff8311610248576020018236038113610248579190565b6001600160a01b038281166000908152600660205260409020959891979496919591949161201c9061049c565b1615610fa457821561248f57600754948581036120d45760009861203f87611c3e565b9261204988611c3e565b966001600160a01b0386169061206188303385612e88565b8c5b8a81106120f05750505050505050505060015b82811061209d575050508210611f2d57600354611ed5906102a9906001600160a01b031681565b6120bb6120aa8284611aa3565b516120b484611a96565b5190612ce6565b606581119081156120e5575b506120d457600101612076565b630d917f2f60e21b60005260046000fd5b6063915010386120c7565b6120f981611055565b90546001600160a01b0360039290921b1c166000818152600660205260409020909e9061212590611ac3565b9e6001600160a01b0381168581146123b3576040516370a0823160e01b815230600482015291602083602481855afa9283156103995785878f928c90600097612381575b5061218793926121819261217c92611f6e565b611f7e565b89612ecc565b6121a961219861217c87898d611f6e565b6121a3878d8c611fad565b91612fc0565b6040516370a0823160e01b815230600482015291602090839060249082905afa91821561039957818d6122668e6122338a8f61217c828f61222d9361221d6122ad9f60209f7fffebebfb273923089a3ed6bac0fd4686ac740307859becadeb82f998e30db6149e6000916123635750611bae565b612227848a611aa3565b52611f6e565b92611aa3565b51604080516001600160a01b03958616815295851660208701529190931690840152606083019190915281906080820190565b0390a1600554612280906102a9906001600160a01b031681565b6040516315d5220f60e31b81526001600160a01b0390921660048301529092839190829081906024820190565b03915afa90811561039957600091612345575b50670de0b6b3a76400008111612336575b6122db838a611aa3565b51906122e691611b8c565b670de0b6b3a764000090046122fa91611c70565b9d6123058289611aa3565b5160209091015163ffffffff1663ffffffff1661232191611f9e565b61232b828c611aa3565b526001905b01612063565b50670de0b6b3a76400006122d1565b61235d915060203d8111610392576103888183611a41565b386122c0565b602061237b92503d8111610392576103888183611a41565b38610b04565b61217c91975092612181926123a7612187969560203d8111610392576103888183611a41565b98925092509293612169565b506005546123d291602091612280906102a9906001600160a01b031681565b03915afa90811561039957600091612471575b506123f1838589611f6e565b6123fa90611f7e565b6001600160a01b031661240d848b611aa3565b52612418838a611aa3565b519061242391611b8c565b670de0b6b3a7640000900461243791611c70565b9d6124428289611aa3565b5160209091015163ffffffff1663ffffffff1661245e91611f9e565b612468828c611aa3565b52600190612330565b612489915060203d8111610392576103888183611a41565b386123e5565b631f2a200560e01b60005260046000fd5b156124a757565b60405162461bcd60e51b815260206004820152602e60248201527f496e697469616c697a61626c653a20636f6e747261637420697320616c72656160448201526d191e481a5b9a5d1a585b1a5e995960921b6064820152608490fd5b6001600160a01b0316801561252c576bffffffffffffffffffffffff60a01b6002541617600255565b63d92e233d60e01b60005260046000fd5b6007549061254a82611c3e565b6005549092906001600160a01b03166001546001600160a01b039091169260005b83811061257a57505050505090565b61258661046d82611055565b906125a661063c8360018060a01b03166000526006602052604060002090565b916125c5856125bf6106ba602087015163ffffffff1690565b86612cd1565b6040516315d5220f60e31b81526001600160a01b03831660048201529093906020816024818c5afa80156103995760049561260d612613926020946000916126e65750612ca0565b90612cf2565b60405163313ce56760e01b815295909386919082906001600160a01b03165afa938415610399576102a96102a961265b61268997602096612669956000926126ce5750612d29565b93516001600160a01b031690565b60405180809681946363737ac960e11b8352600483019190602083019252565b03915afa8015610399576001926000916126b0575b506126a98289611aa3565b520161256b565b6126c8915060203d8111610392576103888183611a41565b3861269e565b611dba919250883d8111611dc157611db28183611a41565b610a889150853d8111610392576103888183611a41565b600754600554600091829161271c906102a9906001600160a01b031681565b905b80831061272b5750505090565b90919261273a61046d85611055565b6040516370a0823160e01b815230600482015290916020826024816001600160a01b0387165afa918215610399576000926128cf575b506001600160a01b0383811660009081526006602052604090206127939061049c565b6040516370a0823160e01b815230600482015291169290602081602481875afa8015610399576127e9946020926000926128b0575b5060405180809781946303d1689d60e11b8352600483019190602083019252565b03915afa928315610399576128379360209261280d92600092612891575b50611c70565b6040516315d5220f60e31b81526001600160a01b0390951660048601529392839081906024820190565b0381885afa80156103995760019361285e6128649261286a95600091612873575b50612cbf565b90612d05565b90611c70565b9301919061271e565b61288b915060203d8111610392576103888183611a41565b38612858565b6128a9919250843d8111610392576103888183611a41565b9038612807565b6128c8919250833d8111610392576103888183611a41565b90386127c8565b6128e891925060203d8111610392576103888183611a41565b9038612770565b6002549096959294919392906001600160a01b03163303610fb5576001600160a01b0387169687158015612ba0575b61252c57806129486102a961049c6129779460018060a01b03166000526006602052604060002090565b15612b5e575b61048287612971610e7b8460018060a01b03166000526006602052604060002090565b83612e27565b805463ffffffff60a01b60a088901b166001600160c01b03199091166001600160a01b0386161717815560405163313ce56760e01b815290946020826004818c5afa60009281612b3d575b50612b1457855460ff60c01b191660c09190911b60ff60c01b16178555505b6129eb8285612c1f565b6129f482610c76565b81158015612b01575b15612aeb576001600160a01b0316612ada576002905b612a1c81610c76565b03612a5f575b506002019190915560405163ffffffff90911681527fa5018518746db5e7a6deddc5d2fb0297f409c5c2c0d24ef212302425b71dbd8090602090a2565b6040516338d52e0f60e01b815291929190602090829060049082906001600160a01b03165afa8015610399578591600091612aab575b506001600160a01b0316036120d4579038612a22565b612acd915060203d602011612ad3575b612ac58183611a41565b810190612c43565b38612a95565b503d612abb565b639952d2e960e01b60005260046000fd5b6001600160a01b0316156120d457600290612a13565b50612b0b82610c76565b600182146129fd565b60ff1660ff8216036120d457845460ff60c01b191660c09190911b60ff60c01b161784556129e1565b612b5791935060203d602011611dc157611db28183611a41565b91386129c2565b612b6781612bb1565b612b9b612b7e612b78600754611b9f565b60ff1690565b6001600160a01b0383166000908152600660205260409020610f78565b61294e565b506001600160a01b0384161561291e565b600754906801000000000000000082101561097357600182016007556007548210156110705760076000527fa66cc928b5edb82af9bd49922954155ab7b0942694bea4ce44661d9a8736c68890910180546001600160a01b0319166001600160a01b03909216919091179055565b90612c2981610c76565b815460ff60d01b191660d09190911b60ff60d01b16179055565b908160209103126102485751611c9281610237565b60405163a9059cbb60e01b60208201526001600160a01b0390921660248301526044820192909252611f2b91612c9b82606481015b03601f198101845283611a41565b613071565b670de0b6b3a76400008110612cb25790565b50670de0b6b3a764000090565b670de0b6b3a76400008111612cb25790565b90612cdc92916131a1565b611c926000610c76565b906064612cdc926131a1565b90670de0b6b3a7640000612cdc926131a1565b612cdc91670de0b6b3a7640000916131a1565b60ff16604d8111611b8757600a0a90565b9060ff1680601210600014612d5757601119019060ff8211611b8757612d51611c9292612d18565b90611b8c565b80601211612d63575090565b60120360ff8111611b8757612d7790612d18565b908115611fa8570490565b6000918115612dda576001600160a01b031690813b15612dd6578291602483926040519485938492634b77556360e01b845260048401525af1801561039957612dc9575050565b81612dd391611a41565b50565b8280fd5b631f2a200560e01b8352600483fd5b9063ffffffff60015491168103908111611b87576001556001600160a01b03166000908152600660205260409020805463ffffffff60a01b19169055565b60015463ffffffff841681019392908410611b875763ffffffff168303928311611b8757611f2b9260015560018060a01b0316600052600660205260406000209081549063ffffffff60a01b9060a01b169063ffffffff60a01b1916179055565b6040516323b872dd60e01b60208201526001600160a01b039283166024820152929091166044830152606480830193909352918152611f2b91612c9b608483611a41565b604051636eb1769f60e11b81523060048201526001600160a01b0383166024820152602081806044810103816001600160a01b0386165afa90811561039957611f2b94612c9b92612f2492600091612f535750611c70565b60405163095ea7b360e01b60208201526001600160a01b03909416602485015260448401528260648101612c8d565b612f6c915060203d602011610392576103888183611a41565b38612807565b908092918237016000815290565b3d15612fbb573d9067ffffffffffffffff82116109735760405191612faf601f8201601f191660200184611a41565b82523d6000602084013e565b606090565b6001600160a01b03811660009081526008602052604090205460ff161561306057600092838093612ff660405180948193612f72565b03925af1613002612f80565b901561300b5750565b80511561301a57805190602001fd5b604051634ecb9b6d60e01b815260206004820152601c60248201527f53776170206661696c656420776974686f7574206120726561736f6e000000006044820152606490fd5b635bb5845760e11b60005260046000fd5b6040805190926130d6926001600160a01b03169060009081906130948786611a41565b602085527f5361666545524332303a206c6f772d6c6576656c2063616c6c206661696c6564602086015260208151910182855af16130d0612f80565b916133f9565b8051908115918215613143575b5050156130ed5750565b5162461bcd60e51b815260206004820152602a60248201527f5361666545524332303a204552433230206f7065726174696f6e20646964206e6044820152691bdd081cdd58d8d9595960b21b6064820152608490fd5b6131569250602080918301019101611a63565b38806130e3565b1561316457565b60405162461bcd60e51b81526020600482015260156024820152744d6174683a206d756c446976206f766572666c6f7760581b6044820152606490fd5b90916000198383099280830292838086109503948086039514613221579082916131cc86841161315d565b0960018219018216809204600281600302188082026002030280820260020302808202600203028082026002030280820260020302809102600203029360018380600003040190848311900302920304170290565b505090611c929250611f9e565b1561323557565b60405162461bcd60e51b815260206004820152603660248201527f5361666545524332303a20617070726f76652066726f6d206e6f6e2d7a65726f60448201527520746f206e6f6e2d7a65726f20616c6c6f77616e636560501b6064820152608490fd5b90611f2b916132a8600161322e565b60405163095ea7b360e01b60208201526001600160a01b03909216602483015260006044808401919091528252612c9b606483611a41565b9190918115801561332e575b611f2b936132fc612c9b9261322e565b60405163095ea7b360e01b60208201526001600160a01b03909116602482015260448101939093528260648101612c8d565b50604051636eb1769f60e11b81523060048201526001600160a01b038416602482015292602084806044810103816001600160a01b0386165afa908115610399576132fc612c9b92611f2b9660009161338e575b501592505093506132ec565b6133a7915060203d602011610392576103888183611a41565b38613382565b156133b457565b60405162461bcd60e51b815260206004820152601d60248201527f416464726573733a2063616c6c20746f206e6f6e2d636f6e74726163740000006044820152606490fd5b91929015613419575081511561340d575090565b611c92903b15156133ad565b82519091501561342c5750805190602001fd5b6040519062461bcd60e51b8252602060048301528181519182602483015260005b83811061346f5750508160006044809484010152601f80199101168101030190fd5b6020828201810151604487840101528593500161344d56fe60803460a357601f61034b38819003918201601f19168301916001600160401b0383118484101760a85780849260609460405283398101031260a35760428160be565b906057604060516020840160be565b920160be565b600080546001600160a01b039485166001600160a01b03199182161790915560018054938516938216939093179092556002805491909316911617905560405161027990816100d28239f35b600080fd5b634e487b7160e01b600052604160045260246000fd5b51906001600160a01b038216820360a35756fe608080604052600436101561001357600080fd5b600090813560e01c9081634b77556314610180575080634f8632ba1461015757806351cff8d9146100aa578063cc31b256146100835763fc84bcaf1461005857600080fd5b346100805780600319360112610080576001546040516001600160a01b039091168152602090f35b80fd5b5034610080578060031936011261008057546040516001600160a01b039091168152602090f35b5034610080576020366003190112610080576004356001600160a01b03811690819003610153576002546001600160a01b0316330361014557815482916001600160a01b0390911690813b1561014157829160248392604051958693849263f2888dbb60e01b845260048401525af18015610134576101265780f35b61012f9161020b565b388180f35b50604051903d90823e3d90fd5b5050fd5b6282b42960e81b8252600482fd5b5080fd5b50346100805780600319360112610080576002546040516001600160a01b039091168152602090f35b905034610153576020366003190112610153576001546001600160a01b03163303610145576020816024818560018060a01b03815416639343d9e160e01b835260043560048401525af18015610200576101d8575080f35b602090813d83116101f9575b6101ee818361020b565b810103126100805780f35b503d6101e4565b6040513d84823e3d90fd5b90601f8019910116810190811067ffffffffffffffff82111761022d57604052565b634e487b7160e01b600052604160045260246000fdfea264697066735822122085b2f0df3ec7a886e1f52534474648005d12260b3bbebb97fd768dc57bdee7b364736f6c634300081b0033a2646970667358221220870ad7d94db955f47db18f3e1f83cbaa5c8c06ff37c3f70d44e6cf43fc8cac3b64736f6c634300081b0033","abi":[{"inputs":[],"stateMutability":"nonpayable","type":"constructor"},{"inputs":[],"name":"DefaultValueRequired","type":"error"},{"inputs":[],"name":"Inconsistency","type":"error"},{"inputs":[],"name":"InsufficientBalance","type":"error"},{"inputs":[],"name":"NotSupported","type":"error"},{"inputs":[],"name":"RouterNotWhitelisted","type":"error"},{"inputs":[],"name":"SlippageTooHigh","type":"error"},{"inputs":[],"name":"StalePrice","type":"error"},{"inputs":[{"internalType":"string","name":"reason","type":"string"}],"name":"SwapFailed","type":"error"},{"inputs":[],"name":"Unauthorized","type":"error"},{"inputs":[],"name":"ZeroAddress","type":"error"},{"inputs":[],"name":"ZeroAmount","type":"error"},{"anonymous":false,"inputs":[{"indexed":true,"internalType":"address","name":"asset","type":"address"},{"indexed":false,"internalType":"uint32","name":"weight","type":"uint32"}],"name":"AssetAdded","type":"event"},{"anonymous":false,"inputs":[{"indexed":false,"internalType":"address","name":"asset","type":"address"},{"indexed":false,"internalType":"uint256","name":"amount","type":"uint256"}],"name":"AssetAllocated","type":"event"},{"anonymous":false,"inputs":[{"indexed":true,"internalType":"address","name":"asset","type":"address"}],"name":"AssetRemoved","type":"event"},{"anonymous":false,"inputs":[{"indexed":false,"internalType":"uint8","name":"version","type":"uint8"}],"name":"Initialized","type":"event"},{"anonymous":false,"inputs":[{"indexed":false,"internalType":"address","name":"inputAsset","type":"address"},{"indexed":false,"internalType":"address","name":"outputAsset","type":"address"},{"indexed":false,"internalType":"address","name":"router","type":"address"},{"indexed":false,"internalType":"uint256","name":"amount","type":"uint256"}],"name":"Swap","type":"event"},{"inputs":[{"internalType":"uint256","name":"","type":"uint256"}],"name":"allAssets","outputs":[{"internalType":"address","name":"","type":"address"}],"stateMutability":"view","type":"function"},{"inputs":[],"name":"allocate","outputs":[],"stateMutability":"nonpayable","type":"function"},{"inputs":[{"internalType":"address","name":"","type":"address"}],"name":"assetToAssetInfo","outputs":[{"internalType":"address","name":"ltToken","type":"address"},{"internalType":"uint32","name":"weight","type":"uint32"},{"internalType":"uint8","name":"decimals","type":"uint8"},{"internalType":"uint8","name":"index","type":"uint8"},{"internalType":"enum StrategyType","name":"strategyType","type":"uint8"},{"internalType":"address","name":"strategy","type":"address"},{"internalType":"uint256","name":"minimalAmountInVault","type":"uint256"}],"stateMutability":"view","type":"function"},{"inputs":[],"name":"bentoUSD","outputs":[{"internalType":"address","name":"","type":"address"}],"stateMutability":"view","type":"function"},{"inputs":[],"name":"bentoUSDPlus","outputs":[{"internalType":"address","name":"","type":"address"}],"stateMutability":"view","type":"function"},{"inputs":[{"internalType":"address","name":"_router","type":"address"}],"name":"blacklistRouter","outputs":[],"stateMutability":"nonpayable","type":"function"},{"inputs":[],"name":"deviationTolerance","outputs":[{"internalType":"uint256","name":"","type":"uint256"}],"stateMutability":"view","type":"function"},{"inputs":[],"name":"getAllAssets","outputs":[{"internalType":"address[]","name":"","type":"address[]"}],"stateMutability":"view","type":"function"},{"inputs":[],"name":"getAssetInfos","outputs":[{"components":[{"internalType":"address","name":"ltToken","type":"address"},{"internalType":"uint32","name":"weight","type":"uint32"},{"internalType":"uint8","name":"decimals","type":"uint8"},{"internalType":"uint8","name":"index","type":"uint8"},{"internalType":"enum StrategyType","name":"strategyType","type":"uint8"},{"internalType":"address","name":"strategy","type":"address"},{"internalType":"uint256","name":"minimalAmountInVault","type":"uint256"}],"internalType":"struct AssetInfo[]","name":"","type":"tuple[]"}],"stateMutability":"view","type":"function"},{"inputs":[{"internalType":"uint256","name":"desiredAmount","type":"uint256"}],"name":"getDepositAssetAmounts","outputs":[{"internalType":"uint256[]","name":"","type":"uint256[]"},{"internalType":"uint256","name":"","type":"uint256"}],"stateMutability":"view","type":"function"},{"inputs":[{"internalType":"uint256","name":"inputAmount","type":"uint256"}],"name":"getOutputLTAmounts","outputs":[{"internalType":"uint256[]","name":"","type":"uint256[]"}],"stateMutability":"view","type":"function"},{"inputs":[],"name":"getTotalValue","outputs":[{"internalType":"uint256","name":"","type":"uint256"}],"stateMutability":"view","type":"function"},{"inputs":[],"name":"governor","outputs":[{"internalType":"address","name":"","type":"address"}],"stateMutability":"view","type":"function"},{"inputs":[{"internalType":"address","name":"_governor","type":"address"}],"name":"initialize","outputs":[],"stateMutability":"nonpayable","type":"function"},{"inputs":[{"internalType":"address","name":"_recipient","type":"address"},{"internalType":"uint256","name":"_amount","type":"uint256"},{"internalType":"uint256","name":"_minimumBentoUSDAmount","type":"uint256"}],"name":"mintBasket","outputs":[],"stateMutability":"nonpayable","type":"function"},{"inputs":[],"name":"mintReward","outputs":[],"stateMutability":"nonpayable","type":"function"},{"inputs":[{"internalType":"address","name":"_recipient","type":"address"},{"internalType":"uint256","name":"_amount","type":"uint256"},{"internalType":"uint256","name":"_minimumBentoUSDAmount","type":"uint256"}],"name":"mintWithBasketAndStake","outputs":[],"stateMutability":"nonpayable","type":"function"},{"inputs":[{"internalType":"address","name":"_recipient","type":"address"},{"internalType":"address","name":"_asset","type":"address"},{"internalType":"uint256","name":"_amount","type":"uint256"},{"internalType":"uint256","name":"_minimumBentoUSDAmount","type":"uint256"},{"internalType":"address[]","name":"_routers","type":"address[]"},{"internalType":"bytes[]","name":"_routerData","type":"bytes[]"}],"name":"mintWithOneToken","outputs":[],"stateMutability":"nonpayable","type":"function"},{"inputs":[],"name":"oracleRouter","outputs":[{"internalType":"address","name":"","type":"address"}],"stateMutability":"view","type":"function"},{"inputs":[],"name":"ratioDeviationLowerTolerance","outputs":[{"internalType":"uint256","name":"","type":"uint256"}],"stateMutability":"view","type":"function"},{"inputs":[],"name":"ratioDeviationToleranceDenominator","outputs":[{"internalType":"uint256","name":"","type":"uint256"}],"stateMutability":"view","type":"function"},{"inputs":[],"name":"ratioDeviationUpperTolerance","outputs":[{"internalType":"uint256","name":"","type":"uint256"}],"stateMutability":"view","type":"function"},{"inputs":[{"internalType":"address","name":"_recipient","type":"address"},{"internalType":"uint256","name":"_amount","type":"uint256"}],"name":"redeemLTBasket","outputs":[],"stateMutability":"nonpayable","type":"function"},{"inputs":[{"internalType":"address","name":"_recipient","type":"address"},{"internalType":"uint256","name":"_amount","type":"uint256"}],"name":"redeemUnderlyingBasket","outputs":[],"stateMutability":"nonpayable","type":"function"},{"inputs":[{"internalType":"address","name":"_asset","type":"address"}],"name":"removeAsset","outputs":[],"stateMutability":"nonpayable","type":"function"},{"inputs":[{"internalType":"address","name":"","type":"address"}],"name":"routerWhitelist","outputs":[{"internalType":"bool","name":"","type":"bool"}],"stateMutability":"view","type":"function"},{"inputs":[{"internalType":"address","name":"_asset","type":"address"},{"internalType":"uint8","name":"_decimals","type":"uint8"},{"internalType":"uint32","name":"_weight","type":"uint32"},{"internalType":"address","name":"_ltToken","type":"address"},{"internalType":"enum StrategyType","name":"_strategyType","type":"uint8"},{"internalType":"address","name":"_strategy","type":"address"},{"internalType":"uint256","name":"_minimalAmountInVault","type":"uint256"}],"name":"setAsset","outputs":[],"stateMutability":"nonpayable","type":"function"},{"inputs":[{"internalType":"address","name":"_bentoUSD","type":"address"}],"name":"setBentoUSD","outputs":[],"stateMutability":"nonpayable","type":"function"},{"inputs":[{"internalType":"address","name":"_bentoUSDPlus","type":"address"}],"name":"setBentoUSDPlus","outputs":[],"stateMutability":"nonpayable","type":"function"},{"inputs":[{"internalType":"address","name":"_oracleRouter","type":"address"}],"name":"setOracleRouter","outputs":[],"stateMutability":"nonpayable","type":"function"},{"inputs":[],"name":"totalWeight","outputs":[{"internalType":"uint256","name":"","type":"uint256"}],"stateMutability":"view","type":"function"},{"inputs":[{"internalType":"address","name":"","type":"address"}],"name":"userToEthenaWalletProxy","outputs":[{"internalType":"address","name":"","type":"address"}],"stateMutability":"view","type":"function"},{"inputs":[{"internalType":"address","name":"_router","type":"address"}],"name":"whitelistRouter","outputs":[],"stateMutability":"nonpayable","type":"function"},{"inputs":[{"internalType":"address","name":"_recipient","type":"address"}],"name":"withdrawFromEthena","outputs":[],"stateMutability":"nonpayable","type":"function"}]}