{"address":"0x34A61F0333f672FA91906eEAF0edAaef738CA816","bytecode":"0x6080806040523460bd576000549060ff8260081c16606b575060ff808216036031575b604051612edb90816100c38239f35b60ff90811916176000557f7f26b83ff96e1f2b6a682f133852f6798a09c465da95921460cefb3847402498602060405160ff8152a1386022565b62461bcd60e51b815260206004820152602760248201527f496e697469616c697a61626c653a20636f6e747261637420697320696e697469604482015266616c697a696e6760c81b6064820152608490fd5b600080fdfe6080604052600436101561001257600080fd5b6000803560e01c80630248ddaa14611cf65780630329e33c14611b995780630c340a2414611b705780631522451914611533578063174f57af14611450578063266c91a5146114275780632acada4d1461135f5780633e55e5801461117b5780634a5e42b114610fa65780634d69ee0e14610f5c57806355a29e9114610f33578063578e5c2214610eef57806357e2850714610e5257806360938db514610dcc57806361f8991814610d82578063829c8db714610d5957806396c82e5714610d3b578063a158b3ae14610d1f578063a1b2439e14610ce1578063a594e81e14610cc6578063ab8bca0c14610c5b578063abaa9916146107d2578063b5c705b51461077a578063c4d66de81461062f578063c9339e9f146105f7578063caa648b4146105d4578063d45d8425146101945763e45d65df1461015157600080fd5b34610191576020366003190112610191576020906001600160a01b03610175611df4565b16815260088252604060018060a01b0391205416604051908152f35b80fd5b50346101915760e0366003190112610191576101ae611df4565b60243560ff8116908181036105d0576044359063ffffffff8216928383036105cc576064356001600160a01b03811692908390036105c8576084359160038310156105c45760a4356001600160a01b03811692908390036105c0576002546001600160a01b031633036105b2576001600160a01b03881697881580156105aa575b61059b57888a52600660205260408a20546001600160a01b0316156104eb575b50878952600660205261027a63ffffffff60408b205460a01c166102758960015461200f565b611fb8565b600155878952600660205260408920805463ffffffff60a01b191660a088901b63ffffffff60a01b16179055878952600660205260408920805463ffffffff60a01b1987166001600160c01b03199091161760a09790971b63ffffffff60a01b1696909617865560405163313ce56760e01b8152916020836004818c5afa8a93816104ba575b506104835750855460ff60c01b191660c09190911b60ff60c01b16178555505b61032982611e4a565b835460ff60d01b191660d083901b60ff60d01b1617845561034982611e4a565b81158015610470575b1561045457610445576002905b61036881611e4a565b036103a6575b507fa5018518746db5e7a6deddc5d2fb0297f409c5c2c0d24ef212302425b71dbd8091602091600260c435910155604051908152a280f35b6020600491604051928380926338d52e0f60e01b82525afa801561043a57849186916103f1575b506001600160a01b0316036103e2573861036e565b630d917f2f60e21b8452600484fd5b9150506020813d602011610432575b8161040d60209383611f32565b8101031261042e57516001600160a01b038116810361042e578390386103cd565b8480fd5b3d9150610400565b6040513d87823e3d90fd5b639952d2e960e01b8652600486fd5b156104615760029061035f565b630d917f2f60e21b8652600486fd5b5061047a82611e4a565b60018214610352565b905060ff8216036104ab57845460ff60c01b191660c09190911b60ff60c01b16178455610320565b630d917f2f60e21b8852600488fd5b6104dd91945060203d6020116104e4575b6104d58183611f32565b81019061203c565b9238610300565b503d6104cb565b6007546801000000000000000081101561058757906105138260016105379401600755611e6a565b81546001600160a01b0393841660039290921b91821b9390911b1916919091179055565b600754600019810190811161057357888a52600660205260408a20805460ff60c81b191660c89290921b60ff60c81b169190911790553861024f565b634e487b7160e01b8a52601160045260248afd5b634e487b7160e01b8b52604160045260248bfd5b63d92e233d60e01b8a5260048afd5b50851561022f565b6282b42960e81b8952600489fd5b8880fd5b8780fd5b8680fd5b8580fd5b8380fd5b503461019157806003193601126101915760206105ef6125ae565b604051908152f35b50346101915760203660031901126101915761062b61061760043561235d565b604051918291602083526020830190611e9b565b0390f35b503461019157602036600319011261019157610649611df4565b81549060ff8260081c16159182809361076d575b8015610756575b156106fa5760ff1981166001178455826106e9575b506001600160a01b031680156106da576001600160601b0360a01b60025416176002556106a35780f35b61ff001981541681557f7f26b83ff96e1f2b6a682f133852f6798a09c465da95921460cefb3847402498602060405160018152a180f35b63d92e233d60e01b8352600483fd5b61ffff191661010117835538610679565b60405162461bcd60e51b815260206004820152602e60248201527f496e697469616c697a61626c653a20636f6e747261637420697320616c72656160448201526d191e481a5b9a5d1a585b1a5e995960921b6064820152608490fd5b50303b1580156106645750600160ff821614610664565b50600160ff82161061065d565b503461019157602036600319011261019157610794611df4565b6002546001600160a01b031633036107c45760018060a01b03166001600160601b0360a01b600354161760035580f35b6282b42960e81b8252600482fd5b50346101915780600319360112610191576002546001600160a01b03163303610c4d57600754815b818110610805578280f35b61080e81611e6a565b90546040516370a0823160e01b8152306004820152929160031b1c6001600160a01b0316602083602481845afa92831561043a578593610c18575b5061085382611e6a565b60018060a01b0391549060031b1c168552600660205260408520856040519161087b83611f00565b60ff815460018060a01b038116855263ffffffff8160a01c166020860152818160c01c166040860152818160c81c16606086015260d01c169560808401966108c281611e4a565b875260018201546001600160a01b031660a0850190815260029092015460c0850181905290818110610c0957906108f891611fb8565b95805161090481611e4a565b61090d81611e4a565b15908115610beb575b5015610b5e575050516001600160a01b0316928573dac17f958d2ee523a2206206994597c13d831ec78314610b25575b5080158015610aae575b15610a4a5760405163095ea7b360e01b60208201526001600160a01b0385166024820152604480820183905281526109939061098d606482611f32565b836128a0565b604051636e553f6560e01b81526004810182905230602482015293602090859060449082908a905af1918215610a3f576001947f60a87e0712ebfb325304641a2056198edc17feb06aeac8f8a57a1087a859db8d93610a11575b505b604080516001600160a01b039290921682526020820192909252a15b016107fa565b610a319060203d8111610a38575b610a298183611f32565b810190611f6c565b50386109ed565b503d610a1f565b6040513d88823e3d90fd5b60405162461bcd60e51b815260206004820152603660248201527f5361666545524332303a20617070726f76652066726f6d206e6f6e2d7a65726f60448201527520746f206e6f6e2d7a65726f20616c6c6f77616e636560501b6064820152608490fd5b50604051636eb1769f60e11b815230600482015260248101859052602081604481865afa908115610b1a578791610ae7575b5015610950565b905060203d8111610b13575b610afd8183611f32565b6020826000928101031261019157505138610ae0565b503d610af3565b6040513d89823e3d90fd5b610a4a57610b5860405163095ea7b360e01b6020820152856024820152600060448201526044815261098d606482611f32565b85610946565b519091506001600160a01b0316803b15610be75781809160246040518094819363b6b55f2560e01b83528a60048401525af18015610bdc57610bc7575b50506001927f60a87e0712ebfb325304641a2056198edc17feb06aeac8f8a57a1087a859db8d916109ef565b81610bd191611f32565b61042e578438610b9b565b6040513d84823e3d90fd5b5080fd5b6001915051610bf981611e4a565b610c0281611e4a565b1438610916565b50505050505060019150610a0b565b90925060203d8111610c46575b610c2f8183611f32565b602082600092810103126101915750519138610849565b503d610c25565b6282b42960e81b8152600490fd5b50346101915760c036600319011261019157610c75611df4565b50610c7e611e0a565b5060843567ffffffffffffffff8111610be757610c9f903690600401611ecf565b505060a43567ffffffffffffffff8111610be757610cc1903690600401611ecf565b505080f35b503461019157610cde610cd836611e20565b91612262565b80f35b503461019157602036600319011261019157610d15610d01600435612055565b604051928392604084526040840190611e9b565b9060208301520390f35b5034610191578060031936011261019157602060405160648152f35b50346101915780600319360112610191576020600154604051908152f35b50346101915780600319360112610191576003546040516001600160a01b039091168152602090f35b503461019157602036600319011261019157610d9c611df4565b6002546001600160a01b031633036107c45760018060a01b03166001600160601b0360a01b600454161760045580f35b50346101915760203660031901126101915780610de7611df4565b338252600860205260408220546001600160a01b031690813b15610e4e576040516351cff8d960e01b81526001600160a01b0390911660048201529082908290602490829084905af18015610bdc57610e3d5750f35b81610e4791611f32565b6101915780f35b5050fd5b50346101915760203660031901126101915760e0906040906001600160a01b03610e7a611df4565b16815260066020522080549060ff8260d01c1690600260018060a01b036001830154169101549160ff6040519460018060a01b038116865263ffffffff8160a01c166020870152818160c01c16604087015260c81c166060850152610ede81611e4a565b608084015260a083015260c0820152f35b50346101915760203660031901126101915760043590600754821015610191576020610f1a83611e6a565b905460405160039290921b1c6001600160a01b03168152f35b50346101915780600319360112610191576005546040516001600160a01b039091168152602090f35b503461019157602036600319011261019157610f76611df4565b6002546001600160a01b031633036107c45760018060a01b03166001600160601b0360a01b600554161760055580f35b503461019157602036600319011261019157610fc0611df4565b6002546001600160a01b031633036107c4576001600160a01b03908116808352600660205260408320549091161561116c57808252600660205261101363ffffffff604084205460a01c16600154611fb8565b600155808252600660205260408220805463ffffffff60a01b19169055600754825b818110611066575b50507f37803e2125c48ee96c38ddf04e826daf335b0e1603579040fd275aba6d06b6fc8280a280f35b8261107082611e6a565b905460039190911b1c6001600160a01b03161461108f57600101611035565b9050600754600019810190811161115857611111916110cd6110b260ff93611e6a565b905460039190911b1c6001600160a01b031661051383611e6a565b6110d681611e6a565b905460039190911b1c6001600160a01b03168552600660205260408520805460ff60c81b19169290911660c81b60ff60c81b16919091179055565b6007548015611144576000190161112781611e6a565b81549060018060a01b039060031b1b19169055600755388061103d565b634e487b7160e01b83526031600452602483fd5b634e487b7160e01b84526011600452602484fd5b63d92e233d60e01b8252600482fd5b503461019157806003193601126101915760075461119881611fc5565b906111a66040519283611f32565b808252601f196111b582611fc5565b01835b81811061131e575050825b818110611272578284604051918291602083016020845282518091526020604085019301915b8181106111f7575050500390f35b91935091602060e060019260c08751858060a01b03815116835263ffffffff85820151168584015260ff604082015116604084015260ff6060820151166060840152608081015161124781611e4a565b6080840152858060a01b0360a08201511660a0840152015160c08201520194019101918493926111e9565b8061127e600192611e6a565b838060a01b0391549060031b1c1685526006602052604085206002604051916112a683611f00565b60ff8154868060a01b038116855263ffffffff8160a01c166020860152818160c01c166040860152818160c81c16606086015260d01c166112e681611e4a565b6080840152848060a01b03858201541660a0840152015460c082015261130c8286611f7b565b526113178185611f7b565b50016111c3565b60209060405161132d81611f00565b86815286838201528660408201528660608201528660808201528660a08201528660c0820152828287010152016111b8565b503461019157806003193601126101915760405180602060075491828152018091600785527fa66cc928b5edb82af9bd49922954155ab7b0942694bea4ce44661d9a8736c68890855b81811061140857505050826113be910383611f32565b604051928392602084019060208552518091526040840192915b8181106113e6575050500390f35b82516001600160a01b03168452859450602093840193909201916001016113d8565b82546001600160a01b03168452602090930192600192830192016113a8565b50346101915780600319360112610191576004546040516001600160a01b039091168152602090f35b50346101915780600319360112610191578061146a6125ae565b6003546040516370a0823160e01b81523060048201526001600160a01b0390911691602082602481865afa9182156115285784926114eb575b50906114ae91611fb8565b90803b15610e4e576040516340c10f1960e01b8152336004820152602481019290925282908290604490829084905af18015610bdc57610e3d5750f35b915092506020813d602011611520575b8161150860209383611f32565b8101031261151b575183926114ae6114a3565b600080fd5b3d91506114fb565b6040513d86823e3d90fd5b50346101915760403660031901126101915761154d611df4565b600754600354602435929084906001600160a01b0316803b15610be757604051632770a7eb60e21b8152336004820152602481018690529082908290604490829084905af18015610bdc57611b5b575b5050835b8281106115ac578480f35b6115b581611e6a565b905460039190911b1c6001600160a01b031680865260066020526040808720905192916115e184611f00565b81549360018060a01b0385168152602081019463ffffffff8160a01c168652602460ff6040840192818160c01c168452818160c81c16606086015260d01c1696608084019761162f81611e4a565b885260018601546001600160a01b0390811660a0860190815260029097015460c08601526005546040516315d5220f60e31b8152600481018890529360209285928391165afa918215611b50578c92611b1b575b50670de0b6b3a76400008210611b0b575b63ffffffff90511690670de0b6b3a7640000820291808304670de0b6b3a76400001490151715611af7579160ff6116dd8c6116e6948f966116d790600154611f8f565b9161281c565b9151169061284f565b95604051946370a0823160e01b8652306004870152602086602481885afa8015611aec5789968491611aac575b508881106117335750505050509261172d916001946127de565b016115a1565b919450929661174492969550611fb8565b945182516001600160a01b03909116929061175e81611e4a565b61176781611e4a565b6117cc575050606460209293946040519586938492632d182be560e21b845260048401523360248401523060448401525af1918215610a3f576001926117ae575b5061172d565b6117c59060203d8111610a3857610a298183611f32565b50386117a8565b600190959395516117dc81611e4a565b6117e581611e4a565b036119e05750338852600860205260408820549192506001600160a01b0390911690811561195a575b604051926363737ac960e11b84526004840152602083602481845afa92831561191a578893611925575b5060405163a9059cbb60e01b81526001600160a01b03831660048201526024810184905290602090829060449082908c905af1801561191a576118ee575b5081156118df5786916001600160a01b0390911690813b156118db578291602483926040519485938492634b77556360e01b845260048401525af18015610bdc576118c6575b505060019061172d565b816118d091611f32565b61042e5784386118bc565b8280fd5b631f2a200560e01b8752600487fd5b61190e9060203d8111611913575b6119068183611f32565b810190611f54565b611876565b503d6118fc565b6040513d8a823e3d90fd5b90925060203d8111611953575b61193c8183611f32565b602082600092810103126101915750519138611838565b503d611932565b905060405161034b8082019082821067ffffffffffffffff8311176119cc576060918391612b5b833984815230602082015233604082015203019088f08015610b1a5733885260086020526040882080546001600160a01b0319166001600160a01b039290921691821790559061180e565b634e487b7160e01b8a52604160045260248afd5b516040516363737ac960e11b815260048101939093526001600160a01b03169060208360248187865af1928315611528578493611a70575b508282611a24926127de565b803b156118db576040516301e9a69560e41b81526001600160a01b0386166004820152602481019290925282908290604490829084905af18015610bdc576118c657505060019061172d565b919350915060203d8111611aa5575b611a898183611f32565b6020826000928101031261019157505187929091611a24611a18565b503d611a7f565b929495965050915060203d8111611ae5575b611ac88183611f32565b602082600092810103126101915750918a91889594935138611713565b503d611abe565b6040513d85823e3d90fd5b634e487b7160e01b8c52601160045260248cfd5b670de0b6b3a76400009150611694565b90915060203d8111611b49575b611b328183611f32565b602082600092810103126101915750519038611683565b503d611b28565b6040513d8e823e3d90fd5b81611b6591611f32565b6105d057833861159d565b50346101915780600319360112610191576002546040516001600160a01b039091168152602090f35b503461019157604036600319011261019157611bb3611df4565b6024359082611bc18361235d565b9260018060a01b036003541690813b156118db57604051632770a7eb60e21b8152336004820152602481019190915291908290604490829084905af1801561152857611ce2575b5060075491835b838110611c1a578480f35b611c2381611e6a565b90546001600160a01b0360039290921b1c811686526006602090815260408088205490516370a0823160e01b81523060048201529216919081602481855afa908115610b1a578791611caf575b50611c7b8385611f7b565b5111611ca05790611c9a60019285611c938487611f7b565b51916127de565b01611c0f565b631e9acf1760e31b8652600486fd5b905060203d8111611cdb575b611cc58183611f32565b6020826000928101031261019157505138611c70565b503d611cbb565b83611cef91949294611f32565b9138611c08565b503461019157611d57611d14611d0b36611e20565b81939130612262565b6003546004805460405163095ea7b360e01b81526001600160a01b0391821692810192909252602482018590529094602092869216908290889082906044820190565b03925af191821561152857611dab93602093611dd9575b5060048054604051636e553f6560e01b8152918201929092526001600160a01b039283166024820152938492909116908290869082906044820190565b03925af18015610bdc57611dbd575080f35b611dd59060203d602011610a3857610a298183611f32565b5080f35b611def90843d8611611913576119068183611f32565b611d6e565b600435906001600160a01b038216820361151b57565b602435906001600160a01b038216820361151b57565b606090600319011261151b576004356001600160a01b038116810361151b57906024359060443590565b60031115611e5457565b634e487b7160e01b600052602160045260246000fd5b600754811015611e8557600760005260206000200190600090565b634e487b7160e01b600052603260045260246000fd5b906020808351928381520192019060005b818110611eb95750505090565b8251845260209384019390920191600101611eac565b9181601f8401121561151b5782359167ffffffffffffffff831161151b576020808501948460051b01011161151b57565b60e0810190811067ffffffffffffffff821117611f1c57604052565b634e487b7160e01b600052604160045260246000fd5b90601f8019910116810190811067ffffffffffffffff821117611f1c57604052565b9081602091031261151b5751801515810361151b5790565b9081602091031261151b575190565b8051821015611e855760209160051b010190565b81810292918115918404141715611fa257565b634e487b7160e01b600052601160045260246000fd5b91908203918211611fa257565b67ffffffffffffffff8111611f1c5760051b60200190565b90611fe782611fc5565b611ff46040519182611f32565b8281528092612005601f1991611fc5565b0190602036910137565b91908201809211611fa257565b8115612026570490565b634e487b7160e01b600052601260045260246000fd5b9081602091031261151b575160ff8116810361151b5790565b9060075461206281611fdd565b61206b82611fdd565b9160008060018060a01b03600554165b8382106121785750506000956000935b83851061209b5750505050509190565b90919293966120dd906120c1856120bc6120b58c87611f7b565b5187611f8f565b61201c565b6120cb8a89611f7b565b526120d68988611f7b565b519061200f565b966120e88187611f7b565b5190600460206120f783611e6a565b905460405163313ce56760e01b81529384929091839160031b1c6001600160a01b03165afa801561216c576001936121379260009261214c575b5061284f565b6121418289611f7b565b52019392919061208b565b61216591925060203d81116104e4576104d58183611f32565b9038612131565b6040513d6000823e3d90fd5b909293969161218684611e6a565b90546040516315d5220f60e31b815260039290921b1c6001600160a01b031660048201819052602082602481875afa91821561216c5760009261222d575b50916121fd82600194670de0b6b3a764000061221295921161221d575b600052600660205263ffffffff60406000205460a01c16611f8f565b612207878c611f7b565b526120d6868b611f7b565b92979493019061207b565b670de0b6b3a764000091506121e1565b90916020823d821161225a575b8161224760209383611f32565b81010312610191575051906121fd6121c4565b3d915061223a565b9061226c90612055565b919092600754600094855b8281106122f85750505082106122e9576003546001600160a01b031690813b156105d0576040516340c10f1960e01b81526001600160a01b03919091166004820152602481019290925282908290604490829084905af18015610bdc576122dc575050565b816122e691611f32565b50565b63428637bb60e11b8352600483fd5b80612357612307600193611e6a565b848060a01b0391549060031b1c1661231f8386611f7b565b5190604051916323b872dd60e01b6020840152336024840152306044840152606483015260648252612352608483611f32565b6128a0565b01612277565b6007549061236a82611fdd565b6005546001549193916000916001600160a01b0316825b8481106123915750505050505090565b61239a81611e6a565b60018060a01b0391549060031b1c168060005260066020526040600020906124378563ffffffff604051946123ce86611f00565b600281549160018060a01b038316885260ff6020890193858160a01c168552818160c01c1660408b0152818160c81c1660608b015260d01c1661241081611e4a565b608089015260018101546001600160a01b031660a0890152015460c087015251168a61281c565b906040516315d5220f60e31b8152816004820152602081602481895afa90811561216c5760009161257d575b50670de0b6b3a7640000811061256e575b61248990670de0b6b3a76400006000946129c5565b918761255a575060206004916040519283809263313ce56760e01b82525afa801561216c576020926124c292600092612542575061284f565b91516040516363737ac960e11b81526004810193909352829060249082906001600160a01b03165afa90811561216c57600091612510575b5090600191612509828a611f7b565b5201612381565b906020823d821161253a575b8161252960209383611f32565b8101031261019157505160016124fa565b3d915061251c565b612165919250843d81116104e4576104d58183611f32565b634e487b7160e01b81526021600452602490fd5b50670de0b6b3a7640000612474565b906020823d82116125a6575b8161259660209383611f32565b8101031261019157505138612463565b3d9150612589565b60075460055460009182918291906001600160a01b03165b8184106125d4575050505090565b909192936125e185611e6a565b90546040516370a0823160e01b815230600482015260039290921b1c6001600160a01b03169190602081602481865afa90811561216c576000916127ad575b5082600052600660205260018060a01b03604060002054166040516370a0823160e01b8152306004820152602081602481855afa801561216c5760009061277b575b602091506024604051809481936303d1689d60e11b835260048301525afa90811561216c57600091612748575b506126999161200f565b91604051906315d5220f60e31b82526004820152602081602481875afa90811561216c57600091612717575b50670de0b6b3a76400008111612708575b670de0b6b3a76400006126eb916000946129c5565b918561255a57506001916126fe9161200f565b94019291906125c6565b50670de0b6b3a76400006126d6565b906020823d8211612740575b8161273060209383611f32565b81010312610191575051386126c5565b3d9150612723565b906020823d8211612773575b8161276160209383611f32565b8101031261019157505161269961268f565b3d9150612754565b6020823d82116127a5575b8161279360209383611f32565b81010312610191575060209051612662565b3d9150612786565b906020823d82116127d6575b816127c660209383611f32565b8101031261019157505138612620565b3d91506127b9565b60405163a9059cbb60e01b60208201526001600160a01b0392909216602483015260448083019390935291815261281a91612352606483611f32565b565b9061282792916129c5565b90565b9060ff8091169116039060ff8211611fa257565b60ff16604d8111611fa257600a0a90565b9060ff81168060121060001461287d57509061287761287260126128279461282a565b61283e565b90611f8f565b601211612888575090565b9061289a61287261282793601261282a565b9061201c565b60018060a01b03166040916000808451926128bb8685611f32565b602084527f5361666545524332303a206c6f772d6c6576656c2063616c6c206661696c6564602085015260208151910182865af13d156129b8573d9067ffffffffffffffff8211611f1c578451612931949092612922601f8201601f191660200185611f32565b83523d6000602085013e612a8a565b805190811591821561299e575b5050156129485750565b5162461bcd60e51b815260206004820152602a60248201527f5361666545524332303a204552433230206f7065726174696f6e20646964206e6044820152691bdd081cdd58d8d9595960b21b6064820152608490fd5b6129b19250602080918301019101611f54565b388061293e565b9161293192606091612a8a565b916000198284099282810292838086109503948086039514612a7d5784831115612a405782910960018219018216809204600281600302188082026002030280820260020302808202600203028082026002030280820260020302809102600203029360018380600003040190848311900302920304170290565b60405162461bcd60e51b81526020600482015260156024820152744d6174683a206d756c446976206f766572666c6f7760581b6044820152606490fd5b505090612827925061201c565b91929015612aec5750815115612a9e575090565b3b15612aa75790565b60405162461bcd60e51b815260206004820152601d60248201527f416464726573733a2063616c6c20746f206e6f6e2d636f6e74726163740000006044820152606490fd5b825190915015612aff5750805190602001fd5b6040519062461bcd60e51b8252602060048301528181519182602483015260005b838110612b425750508160006044809484010152601f80199101168101030190fd5b60208282018101516044878401015285935001612b2056fe60803460a357601f61034b38819003918201601f19168301916001600160401b0383118484101760a85780849260609460405283398101031260a35760428160be565b906057604060516020840160be565b920160be565b600080546001600160a01b039485166001600160a01b03199182161790915560018054938516938216939093179092556002805491909316911617905560405161027990816100d28239f35b600080fd5b634e487b7160e01b600052604160045260246000fd5b51906001600160a01b038216820360a35756fe608080604052600436101561001357600080fd5b600090813560e01c9081634b77556314610180575080634f8632ba1461015757806351cff8d9146100aa578063cc31b256146100835763fc84bcaf1461005857600080fd5b346100805780600319360112610080576001546040516001600160a01b039091168152602090f35b80fd5b5034610080578060031936011261008057546040516001600160a01b039091168152602090f35b5034610080576020366003190112610080576004356001600160a01b03811690819003610153576002546001600160a01b0316330361014557815482916001600160a01b0390911690813b1561014157829160248392604051958693849263f2888dbb60e01b845260048401525af18015610134576101265780f35b61012f9161020b565b388180f35b50604051903d90823e3d90fd5b5050fd5b6282b42960e81b8252600482fd5b5080fd5b50346100805780600319360112610080576002546040516001600160a01b039091168152602090f35b905034610153576020366003190112610153576001546001600160a01b03163303610145576020816024818560018060a01b03815416639343d9e160e01b835260043560048401525af18015610200576101d8575080f35b602090813d83116101f9575b6101ee818361020b565b810103126100805780f35b503d6101e4565b6040513d84823e3d90fd5b90601f8019910116810190811067ffffffffffffffff82111761022d57604052565b634e487b7160e01b600052604160045260246000fdfea2646970667358221220c697223aff50ac068c9f55df96ff93fbcd7eb603afdc55f6f64c0eac16290abd64736f6c634300081b0033a2646970667358221220e905cfed7c32b1abcdbcfae1f2254f2e423a850671feb2b9dace5e719b2b29a764736f6c634300081b0033","abi":[{"inputs":[],"stateMutability":"nonpayable","type":"constructor"},{"inputs":[],"name":"DefaultValueRequired","type":"error"},{"inputs":[],"name":"Inconsistency","type":"error"},{"inputs":[],"name":"InsufficientBalance","type":"error"},{"inputs":[],"name":"NotSupported","type":"error"},{"inputs":[],"name":"SlippageTooHigh","type":"error"},{"inputs":[],"name":"StalePrice","type":"error"},{"inputs":[{"internalType":"string","name":"reason","type":"string"}],"name":"SwapFailed","type":"error"},{"inputs":[],"name":"Unauthorized","type":"error"},{"inputs":[],"name":"ZeroAddress","type":"error"},{"inputs":[],"name":"ZeroAmount","type":"error"},{"anonymous":false,"inputs":[{"indexed":true,"internalType":"address","name":"asset","type":"address"},{"indexed":false,"internalType":"uint32","name":"weight","type":"uint32"}],"name":"AssetAdded","type":"event"},{"anonymous":false,"inputs":[{"indexed":false,"internalType":"address","name":"asset","type":"address"},{"indexed":false,"internalType":"uint256","name":"amount","type":"uint256"}],"name":"AssetAllocated","type":"event"},{"anonymous":false,"inputs":[{"indexed":true,"internalType":"address","name":"asset","type":"address"}],"name":"AssetRemoved","type":"event"},{"anonymous":false,"inputs":[{"indexed":false,"internalType":"uint8","name":"version","type":"uint8"}],"name":"Initialized","type":"event"},{"anonymous":false,"inputs":[{"indexed":false,"internalType":"address","name":"inputAsset","type":"address"},{"indexed":false,"internalType":"address","name":"outputAsset","type":"address"},{"indexed":false,"internalType":"address","name":"router","type":"address"},{"indexed":false,"internalType":"uint256","name":"amount","type":"uint256"}],"name":"Swap","type":"event"},{"inputs":[{"internalType":"uint256","name":"","type":"uint256"}],"name":"allAssets","outputs":[{"internalType":"address","name":"","type":"address"}],"stateMutability":"view","type":"function"},{"inputs":[],"name":"allocate","outputs":[],"stateMutability":"nonpayable","type":"function"},{"inputs":[{"internalType":"address","name":"","type":"address"}],"name":"assetToAssetInfo","outputs":[{"internalType":"address","name":"ltToken","type":"address"},{"internalType":"uint32","name":"weight","type":"uint32"},{"internalType":"uint8","name":"decimals","type":"uint8"},{"internalType":"uint8","name":"index","type":"uint8"},{"internalType":"enum StrategyType","name":"strategyType","type":"uint8"},{"internalType":"address","name":"strategy","type":"address"},{"internalType":"uint256","name":"minimalAmountInVault","type":"uint256"}],"stateMutability":"view","type":"function"},{"inputs":[],"name":"bentoUSD","outputs":[{"internalType":"address","name":"","type":"address"}],"stateMutability":"view","type":"function"},{"inputs":[],"name":"bentoUSDPlus","outputs":[{"internalType":"address","name":"","type":"address"}],"stateMutability":"view","type":"function"},{"inputs":[],"name":"deviationTolerance","outputs":[{"internalType":"uint256","name":"","type":"uint256"}],"stateMutability":"view","type":"function"},{"inputs":[],"name":"getAllAssets","outputs":[{"internalType":"address[]","name":"","type":"address[]"}],"stateMutability":"view","type":"function"},{"inputs":[],"name":"getAssetInfos","outputs":[{"components":[{"internalType":"address","name":"ltToken","type":"address"},{"internalType":"uint32","name":"weight","type":"uint32"},{"internalType":"uint8","name":"decimals","type":"uint8"},{"internalType":"uint8","name":"index","type":"uint8"},{"internalType":"enum StrategyType","name":"strategyType","type":"uint8"},{"internalType":"address","name":"strategy","type":"address"},{"internalType":"uint256","name":"minimalAmountInVault","type":"uint256"}],"internalType":"struct AssetInfo[]","name":"","type":"tuple[]"}],"stateMutability":"view","type":"function"},{"inputs":[{"internalType":"uint256","name":"desiredAmount","type":"uint256"}],"name":"getDepositAssetAmounts","outputs":[{"internalType":"uint256[]","name":"","type":"uint256[]"},{"internalType":"uint256","name":"","type":"uint256"}],"stateMutability":"view","type":"function"},{"inputs":[{"internalType":"uint256","name":"inputAmount","type":"uint256"}],"name":"getOutputLTAmounts","outputs":[{"internalType":"uint256[]","name":"","type":"uint256[]"}],"stateMutability":"view","type":"function"},{"inputs":[],"name":"getTotalValue","outputs":[{"internalType":"uint256","name":"","type":"uint256"}],"stateMutability":"view","type":"function"},{"inputs":[],"name":"governor","outputs":[{"internalType":"address","name":"","type":"address"}],"stateMutability":"view","type":"function"},{"inputs":[{"internalType":"address","name":"_governor","type":"address"}],"name":"initialize","outputs":[],"stateMutability":"nonpayable","type":"function"},{"inputs":[{"internalType":"address","name":"_recipient","type":"address"},{"internalType":"uint256","name":"_amount","type":"uint256"},{"internalType":"uint256","name":"_minimumBentoUSDAmount","type":"uint256"}],"name":"mintBasket","outputs":[],"stateMutability":"nonpayable","type":"function"},{"inputs":[],"name":"mintReward","outputs":[],"stateMutability":"nonpayable","type":"function"},{"inputs":[{"internalType":"address","name":"_recipient","type":"address"},{"internalType":"uint256","name":"_amount","type":"uint256"},{"internalType":"uint256","name":"_minimumBentoUSDAmount","type":"uint256"}],"name":"mintWithBasketAndStake","outputs":[],"stateMutability":"nonpayable","type":"function"},{"inputs":[{"internalType":"address","name":"_recipient","type":"address"},{"internalType":"address","name":"_asset","type":"address"},{"internalType":"uint256","name":"_amount","type":"uint256"},{"internalType":"uint256","name":"_minimumBentoUSDAmount","type":"uint256"},{"internalType":"address[]","name":"_routers","type":"address[]"},{"internalType":"bytes[]","name":"_routerData","type":"bytes[]"}],"name":"mintWithOneToken","outputs":[],"stateMutability":"nonpayable","type":"function"},{"inputs":[],"name":"oracleRouter","outputs":[{"internalType":"address","name":"","type":"address"}],"stateMutability":"view","type":"function"},{"inputs":[{"internalType":"address","name":"_recipient","type":"address"},{"internalType":"uint256","name":"_amount","type":"uint256"}],"name":"redeemLTBasket","outputs":[],"stateMutability":"nonpayable","type":"function"},{"inputs":[{"internalType":"address","name":"_recipient","type":"address"},{"internalType":"uint256","name":"_amount","type":"uint256"}],"name":"redeemUnderlyingBasket","outputs":[],"stateMutability":"nonpayable","type":"function"},{"inputs":[{"internalType":"address","name":"_asset","type":"address"}],"name":"removeAsset","outputs":[],"stateMutability":"nonpayable","type":"function"},{"inputs":[{"internalType":"address","name":"_asset","type":"address"},{"internalType":"uint8","name":"_decimals","type":"uint8"},{"internalType":"uint32","name":"_weight","type":"uint32"},{"internalType":"address","name":"_ltToken","type":"address"},{"internalType":"enum StrategyType","name":"_strategyType","type":"uint8"},{"internalType":"address","name":"_strategy","type":"address"},{"internalType":"uint256","name":"_minimalAmountInVault","type":"uint256"}],"name":"setAsset","outputs":[],"stateMutability":"nonpayable","type":"function"},{"inputs":[{"internalType":"address","name":"_bentoUSD","type":"address"}],"name":"setBentoUSD","outputs":[],"stateMutability":"nonpayable","type":"function"},{"inputs":[{"internalType":"address","name":"_bentoUSDPlus","type":"address"}],"name":"setBentoUSDPlus","outputs":[],"stateMutability":"nonpayable","type":"function"},{"inputs":[{"internalType":"address","name":"_oracleRouter","type":"address"}],"name":"setOracleRouter","outputs":[],"stateMutability":"nonpayable","type":"function"},{"inputs":[],"name":"totalWeight","outputs":[{"internalType":"uint256","name":"","type":"uint256"}],"stateMutability":"view","type":"function"},{"inputs":[{"internalType":"address","name":"","type":"address"}],"name":"userToEthenaWalletProxy","outputs":[{"internalType":"address","name":"","type":"address"}],"stateMutability":"view","type":"function"},{"inputs":[{"internalType":"address","name":"_recipient","type":"address"}],"name":"withdrawFromEthena","outputs":[],"stateMutability":"nonpayable","type":"function"}]}