{"address":"0x63c9C938be90E0692840E310e917aF1De40e314B","bytecode":"0x608080604052346015576106bf908161001b8239f35b600080fdfe608080604052600436101561001357600080fd5b60003560e01c9081632ac50af0146102bc57508063a6daa8431461009b5763c7d7a7761461004057600080fd5b34610096576040366003190112610096576004356001600160a01b038116810361009657602435906001600160a01b03821682036100965760209161008491610622565b6040516001600160a01b039091168152f35b600080fd5b34610096576020366003190112610096576100b4610434565b604051632acada4d60e01b81526000816004816001600160a01b0386165afa90811561023e57600091610299575b508051916100ef83610482565b926100fd604051948561044a565b80845261010981610482565b602085019390601f190136853760005b8281106101655784866040519182916020830190602084525180915260408301919060005b81811061014c575050500390f35b825184528594506020938401939092019160010161013e565b6001600160a01b036101778284610530565b5116600460206101878784610622565b926040519283809263313ce56760e01b82525afa801561023e57600090610260575b60ff915016604d811161024a576040516363737ac960e11b8152600a9190910a600482015290602090829060249082906001600160a01b03165afa90811561023e57600091610209575b50906001916102028289610530565b5201610119565b906020823d8211610236575b816102226020938361044a565b8101031261023357505160016101f3565b80fd5b3d9150610215565b6040513d6000823e3d90fd5b634e487b7160e01b600052601160045260246000fd5b6020823d8211610291575b816102786020938361044a565b81010312610233575061028c60ff9161055a565b6101a9565b3d915061026b565b6102b691503d806000833e6102ae818361044a565b8101906104ae565b826100e2565b34610096576020366003190112610096576001600160a01b036102dd610434565b632acada4d60e01b83521690600081600481855afa90811561023e57600091610419575b5080519161032761031184610482565b9361031f604051958661044a565b808552610482565b602084019290601f190136843780519060005b82811061038c5784866040519182916020830190602084525180915260408301919060005b81811061036d575050500390f35b825163ffffffff1684528594506020938401939092019160010161035f565b6001600160a01b0361039e8284610530565b516040516357e2850760e01b8152911660048201529060e082602481885afa801561023e57602063ffffffff916001946000916103eb575b500151166103e48289610530565b520161033a565b61040c915060e03d8111610412575b610404818361044a565b810190610568565b8a6103d6565b503d6103fa565b61042e91503d806000833e6102ae818361044a565b82610301565b600435906001600160a01b038216820361009657565b90601f8019910116810190811067ffffffffffffffff82111761046c57604052565b634e487b7160e01b600052604160045260246000fd5b67ffffffffffffffff811161046c5760051b60200190565b51906001600160a01b038216820361009657565b6020818303126100965780519067ffffffffffffffff821161009657019080601f830112156100965781516104e281610482565b926104f0604051948561044a565b81845260208085019260051b82010192831161009657602001905b8282106105185750505090565b602080916105258461049a565b81520191019061050b565b80518210156105445760209160051b010190565b634e487b7160e01b600052603260045260246000fd5b519060ff8216820361009657565b908160e09103126100965760405190600060e0830167ffffffffffffffff81118482101761060e5760405261059c8261049a565b8352602082015163ffffffff8116810361060a5760208401526105c16040830161055a565b60408401526105d26060830161055a565b606084015260808201519060038210156102335750608083015260c0906105fb60a0820161049a565b60a0840152015160c082015290565b5080fd5b634e487b7160e01b82526041600452602482fd5b6040516357e2850760e01b81526001600160a01b0391821660048201529160e09183916024918391165afa90811561023e5760009161066a575b50516001600160a01b031690565b610683915060e03d60e01161041257610404818361044a565b3861065c56fea2646970667358221220e3d83b0a68666abbd2a6456188c82aa29d16898d2d6b0a0544e62198a9220b0264736f6c634300081b0033","abi":[{"inputs":[{"internalType":"address","name":"_asset","type":"address"},{"internalType":"contract IVaultCore","name":"vault","type":"address"}],"name":"getLtToken","outputs":[{"internalType":"address","name":"","type":"address"}],"stateMutability":"view","type":"function"},{"inputs":[{"internalType":"contract IVaultCore","name":"vault","type":"address"}],"name":"getTokenToShareRatios","outputs":[{"internalType":"uint256[]","name":"","type":"uint256[]"}],"stateMutability":"view","type":"function"},{"inputs":[{"internalType":"contract IVaultCore","name":"vault","type":"address"}],"name":"getWeights","outputs":[{"internalType":"uint32[]","name":"","type":"uint32[]"}],"stateMutability":"view","type":"function"}]}